{"contracts/SocialMeadia.sol":{"SocialMeadia":{"abi":[{"inputs":[],"stateMutability":"nonpayable","type":"constructor"},{"inputs":[{"internalType":"string","name":"imageUrl","type":"string"}],"name":"DeleteImages","outputs":[],"stateMutability":"nonpayable","type":"function"},{"inputs":[{"internalType":"address","name":"UserKey","type":"address"}],"name":"DeleteUser","outputs":[],"stateMutability":"nonpayable","type":"function"},{"inputs":[{"internalType":"string","name":"VideoUrl","type":"string"}],"name":"DeleteVideos","outputs":[],"stateMutability":"nonpayable","type":"function"},{"inputs":[{"internalType":"address","name":"pubkey","type":"address"},{"internalType":"uint256","name":"index","type":"uint256"}],"name":"DeletingTExt","outputs":[],"stateMutability":"nonpayable","type":"function"},{"inputs":[{"internalType":"address","name":"pubkey","type":"address"},{"internalType":"string","name":"FirstName","type":"string"},{"internalType":"string","name":"LastName","type":"string"},{"internalType":"string","name":"password","type":"string"}],"name":"EditProfile","outputs":[],"stateMutability":"nonpayable","type":"function"},{"inputs":[],"name":"GetDataImages","outputs":[{"components":[{"internalType":"uint256","name":"timestamp","type":"uint256"},{"internalType":"string","name":"url","type":"string"},{"internalType":"string","name":"photoDiscription","type":"string"},{"internalType":"address","name":"owner","type":"address"}],"internalType":"struct SocialMeadia.Photosfeed[]","name":"","type":"tuple[]"}],"stateMutability":"view","type":"function"},{"inputs":[],"name":"GetGlobalVideos","outputs":[{"components":[{"internalType":"uint256","name":"timestamp","type":"uint256"},{"internalType":"string","name":"url","type":"string"},{"internalType":"address","name":"owner","type":"address"},{"internalType":"string","name":"VideosDiscription","type":"string"}],"internalType":"struct SocialMeadia.videosfeed[]","name":"","type":"tuple[]"}],"stateMutability":"view","type":"function"},{"inputs":[],"name":"GetTextData","outputs":[{"components":[{"internalType":"uint256","name":"timestamp","type":"uint256"},{"internalType":"string","name":"text","type":"string"},{"internalType":"address","name":"owner","type":"address"}],"internalType":"struct SocialMeadia.textfeed[]","name":"","type":"tuple[]"}],"stateMutability":"view","type":"function"},{"inputs":[],"name":"GettingUserData","outputs":[{"components":[{"internalType":"string","name":"FName","type":"string"},{"internalType":"string","name":"LName","type":"string"},{"internalType":"string","name":"profilePic","type":"string"},{"internalType":"address","name":"owner","type":"address"},{"internalType":"uint256","name":"timestamp","type":"uint256"},{"internalType":"string","name":"password","type":"string"},{"internalType":"string[]","name":"postsUrl","type":"string[]"},{"internalType":"string[]","name":"Text","type":"string[]"},{"internalType":"string[]","name":"VideosUrl","type":"string[]"}],"internalType":"struct SocialMeadia.User[]","name":"","type":"tuple[]"}],"stateMutability":"view","type":"function"},{"inputs":[{"internalType":"address","name":"userKey","type":"address"},{"internalType":"string","name":"password","type":"string"}],"name":"Login","outputs":[{"internalType":"bool","name":"","type":"bool"}],"stateMutability":"view","type":"function"},{"inputs":[{"internalType":"string","name":"url","type":"string"},{"internalType":"address","name":"pubkey","type":"address"},{"internalType":"string","name":"Discription","type":"string"}],"name":"POstImage","outputs":[],"stateMutability":"payable","type":"function"},{"inputs":[{"internalType":"string","name":"Data","type":"string"},{"internalType":"address","name":"pubkey","type":"address"}],"name":"PostText","outputs":[],"stateMutability":"payable","type":"function"},{"inputs":[{"internalType":"string","name":"url","type":"string"},{"internalType":"address","name":"pubkey","type":"address"},{"internalType":"string","name":"Description","type":"string"}],"name":"PostVideos","outputs":[],"stateMutability":"payable","type":"function"},{"inputs":[{"internalType":"string","name":"FirstName","type":"string"},{"internalType":"string","name":"LastName","type":"string"},{"internalType":"string","name":"Profile","type":"string"},{"internalType":"address","name":"userKey","type":"address"},{"internalType":"string","name":"password","type":"string"}],"name":"SignUp","outputs":[],"stateMutability":"payable","type":"function"},{"inputs":[{"internalType":"address","name":"pubkey","type":"address"}],"name":"checksignup","outputs":[{"internalType":"bool","name":"","type":"bool"}],"stateMutability":"view","type":"function"}],"evm":{"bytecode":{"linkReferences":{},"object":"608060405234801561001057600080fd5b50336000806101000a81548173ffffffffffffffffffffffffffffffffffffffff021916908373ffffffffffffffffffffffffffffffffffffffff16021790555061484c806100606000396000f3fe6080604052600436106100e85760003560e01c8063a590e9c11161008a578063ecdef34711610059578063ecdef347146102b2578063f5296302146102ef578063f678a7fd1461030b578063f805964214610334576100e8565b8063a590e9c11461020a578063d0564fb014610233578063dc92b32d1461025c578063e51b6ad314610287576100e8565b8063661c01cb116100c6578063661c01cb1461015d5780637bd3a4ca1461018657806397f52dc1146101b1578063a4b4e42b146101cd576100e8565b80630857c054146100ed5780630f9d76d41461011657806332c7c2ea14610141575b600080fd5b3480156100f957600080fd5b50610114600480360381019061010f919061331f565b610350565b005b34801561012257600080fd5b5061012b61088f565b6040516101389190613539565b60405180910390f35b61015b60048036038101906101569190613690565b610a72565b005b34801561016957600080fd5b50610184600480360381019061017f919061371b565b610cf7565b005b34801561019257600080fd5b5061019b610e33565b6040516101a89190613902565b60405180910390f35b6101cb60048036038101906101c69190613924565b611016565b005b3480156101d957600080fd5b506101f460048036038101906101ef9190613980565b61127e565b60405161020191906139f7565b60405180910390f35b34801561021657600080fd5b50610231600480360381019061022c9190613a12565b6113f5565b005b34801561023f57600080fd5b5061025a60048036038101906102559190613a3f565b611869565b005b34801561026857600080fd5b50610271611dfe565b60405161027e9190613b9a565b60405180910390f35b34801561029357600080fd5b5061029c611f4f565b6040516102a99190613e2f565b60405180910390f35b3480156102be57600080fd5b506102d960048036038101906102d49190613a12565b6124e2565b6040516102e691906139f7565b60405180910390f35b61030960048036038101906103049190613690565b612597565b005b34801561031757600080fd5b50610332600480360381019061032d9190613a3f565b61281c565b005b61034e60048036038101906103499190613e51565b612db1565b005b60008060005b6001805490508110156103f5576001818154811061037757610376613f3c565b5b906000526020600020906009020160030160009054906101000a900473ffffffffffffffffffffffffffffffffffffffff1673ffffffffffffffffffffffffffffffffffffffff168573ffffffffffffffffffffffffffffffffffffffff16036103e2578092508391505b80806103ed90613f9a565b915050610356565b5060008190505b600180848154811061041157610410613f3c565b5b9060005260206000209060090201600701805490506104309190613fe2565b8110156104e5576001838154811061044b5761044a613f3c565b5b90600052602060002090600902016007016001826104699190614016565b8154811061047a57610479613f3c565b5b906000526020600020016001848154811061049857610497613f3c565b5b906000526020600020906009020160070182815481106104bb576104ba613f3c565b5b9060005260206000200190816104d19190614281565b5080806104dd90613f9a565b9150506103fc565b50600182815481106104fa576104f9613f3c565b5b906000526020600020906009020160070160018084815481106105205761051f613f3c565b5b90600052602060002090600902016007018054905061053f9190613fe2565b815481106105505761054f613f3c565b5b906000526020600020016000610566919061311f565b6001828154811061057a57610579613f3c565b5b906000526020600020906009020160070180548061059b5761059a614369565b5b6001900381819060005260206000200160006105b7919061311f565b9055600080600090505b60038054905081101561069c57600381815481106105e2576105e1613f3c565b5b90600052602060002090600302016001016040516020016106039190614426565b604051602081830303815290604052805190602001206001858154811061062d5761062c613f3c565b5b906000526020600020906009020160070184815481106106505761064f613f3c565b5b9060005260206000200160405160200161066a9190614426565b6040516020818303038152906040528051906020012003610689578091505b808061069490613f9a565b9150506105c1565b5060008190505b60016003805490506106b59190613fe2565b8110156107a85760036001826106cb9190614016565b815481106106dc576106db613f3c565b5b9060005260206000209060030201600382815481106106fe576106fd613f3c565b5b9060005260206000209060030201600082015481600001556001820181600101908161072a9190614453565b506002820160009054906101000a900473ffffffffffffffffffffffffffffffffffffffff168160020160006101000a81548173ffffffffffffffffffffffffffffffffffffffff021916908373ffffffffffffffffffffffffffffffffffffffff16021790555090505080806107a090613f9a565b9150506106a3565b50600360016003805490506107bd9190613fe2565b815481106107ce576107cd613f3c565b5b90600052602060002090600302016000808201600090556001820160006107f5919061311f565b6002820160006101000a81549073ffffffffffffffffffffffffffffffffffffffff0219169055505060038054806108305761082f614369565b5b600190038181906000526020600020906003020160008082016000905560018201600061085d919061311f565b6002820160006101000a81549073ffffffffffffffffffffffffffffffffffffffff0219169055505090555050505050565b60606004805480602002602001604051908101604052809291908181526020016000905b82821015610a695783829060005260206000209060040201604051806080016040529081600082015481526020016001820180546108f090614079565b80601f016020809104026020016040519081016040528092919081815260200182805461091c90614079565b80156109695780601f1061093e57610100808354040283529160200191610969565b820191906000526020600020905b81548152906001019060200180831161094c57829003601f168201915b505050505081526020016002820160009054906101000a900473ffffffffffffffffffffffffffffffffffffffff1673ffffffffffffffffffffffffffffffffffffffff1673ffffffffffffffffffffffffffffffffffffffff1681526020016003820180546109d890614079565b80601f0160208091040260200160405190810160405280929190818152602001828054610a0490614079565b8015610a515780601f10610a2657610100808354040283529160200191610a51565b820191906000526020600020905b815481529060010190602001808311610a3457829003601f168201915b505050505081525050815260200190600101906108b3565b50505050905090565b60013411610ab5576040517f08c379a0000000000000000000000000000000000000000000000000000000008152600401610aac90614598565b60405180910390fd5b60008054906101000a900473ffffffffffffffffffffffffffffffffffffffff1673ffffffffffffffffffffffffffffffffffffffff166108fc349081150290604051600060405180830381858888f19350505050158015610b1b573d6000803e3d6000fd5b50600260405180608001604052804281526020018581526020018381526020018473ffffffffffffffffffffffffffffffffffffffff168152509080600181540180825580915050600190039060005260206000209060040201600090919091909150600082015181600001556020820151816001019081610b9d91906145b8565b506040820151816002019081610bb391906145b8565b5060608201518160030160006101000a81548173ffffffffffffffffffffffffffffffffffffffff021916908373ffffffffffffffffffffffffffffffffffffffff160217905550505060005b600180549050811015610cf15760018181548110610c2157610c20613f3c565b5b906000526020600020906009020160030160009054906101000a900473ffffffffffffffffffffffffffffffffffffffff1673ffffffffffffffffffffffffffffffffffffffff168373ffffffffffffffffffffffffffffffffffffffff1603610cde5760018181548110610c9957610c98613f3c565b5b906000526020600020906009020160060182908060018154018082558091505060019003906000526020600020016000909190919091509081610cdc91906145b8565b505b8080610ce990613f9a565b915050610c00565b50505050565b60005b600180549050811015610e2c5760018181548110610d1b57610d1a613f3c565b5b906000526020600020906009020160030160009054906101000a900473ffffffffffffffffffffffffffffffffffffffff1673ffffffffffffffffffffffffffffffffffffffff168573ffffffffffffffffffffffffffffffffffffffff1603610e19578360018281548110610d9457610d93613f3c565b5b90600052602060002090600902016000019081610db191906145b8565b508260018281548110610dc757610dc6613f3c565b5b90600052602060002090600902016001019081610de491906145b8565b508160018281548110610dfa57610df9613f3c565b5b90600052602060002090600902016005019081610e1791906145b8565b505b8080610e2490613f9a565b915050610cfa565b5050505050565b60606002805480602002602001604051908101604052809291908181526020016000905b8282101561100d578382906000526020600020906004020160405180608001604052908160008201548152602001600182018054610e9490614079565b80601f0160208091040260200160405190810160405280929190818152602001828054610ec090614079565b8015610f0d5780601f10610ee257610100808354040283529160200191610f0d565b820191906000526020600020905b815481529060010190602001808311610ef057829003601f168201915b50505050508152602001600282018054610f2690614079565b80601f0160208091040260200160405190810160405280929190818152602001828054610f5290614079565b8015610f9f5780601f10610f7457610100808354040283529160200191610f9f565b820191906000526020600020905b815481529060010190602001808311610f8257829003601f168201915b505050505081526020016003820160009054906101000a900473ffffffffffffffffffffffffffffffffffffffff1673ffffffffffffffffffffffffffffffffffffffff1673ffffffffffffffffffffffffffffffffffffffff168152505081526020019060010190610e57565b50505050905090565b60013411611059576040517f08c379a000000000000000000000000000000000000000000000000000000000815260040161105090614598565b60405180910390fd5b60008054906101000a900473ffffffffffffffffffffffffffffffffffffffff1673ffffffffffffffffffffffffffffffffffffffff166108fc349081150290604051600060405180830381858888f193505050501580156110bf573d6000803e3d6000fd5b50600360405180606001604052804281526020018481526020018373ffffffffffffffffffffffffffffffffffffffff16815250908060018154018082558091505060019003906000526020600020906003020160009091909190915060008201518160000155602082015181600101908161113b91906145b8565b5060408201518160020160006101000a81548173ffffffffffffffffffffffffffffffffffffffff021916908373ffffffffffffffffffffffffffffffffffffffff160217905550505060005b60018054905081101561127957600181815481106111a9576111a8613f3c565b5b906000526020600020906009020160030160009054906101000a900473ffffffffffffffffffffffffffffffffffffffff1673ffffffffffffffffffffffffffffffffffffffff168273ffffffffffffffffffffffffffffffffffffffff1603611266576001818154811061122157611220613f3c565b5b90600052602060002090600902016007018390806001815401808255809150506001900390600052602060002001600090919091909150908161126491906145b8565b505b808061127190613f9a565b915050611188565b505050565b6000611289836124e2565b6112c8576040517f08c379a00000000000000000000000000000000000000000000000000000000081526004016112bf906146d6565b60405180910390fd5b60005b6001805490508110156113e9578373ffffffffffffffffffffffffffffffffffffffff166001828154811061130357611302613f3c565b5b906000526020600020906009020160030160009054906101000a900473ffffffffffffffffffffffffffffffffffffffff1673ffffffffffffffffffffffffffffffffffffffff161480156113c75750826040516020016113649190614727565b604051602081830303815290604052805190602001206001828154811061138e5761138d613f3c565b5b90600052602060002090600902016005016040516020016113af9190614426565b60405160208183030381529060405280519060200120145b156113d65760019150506113ef565b80806113e190613f9a565b9150506112cb565b50600090505b92915050565b60008054906101000a900473ffffffffffffffffffffffffffffffffffffffff1673ffffffffffffffffffffffffffffffffffffffff163373ffffffffffffffffffffffffffffffffffffffff161461144d57600080fd5b611456816124e2565b611495576040517f08c379a000000000000000000000000000000000000000000000000000000000815260040161148c906146d6565b60405180910390fd5b600080600090505b60018054905081101561153957600181815481106114be576114bd613f3c565b5b906000526020600020906009020160030160009054906101000a900473ffffffffffffffffffffffffffffffffffffffff1673ffffffffffffffffffffffffffffffffffffffff168373ffffffffffffffffffffffffffffffffffffffff1603611526578091505b808061153190613f9a565b91505061149d565b5060008190505b600180805490506115519190613fe2565b8110156116c757600180826115669190614016565b8154811061157757611576613f3c565b5b90600052602060002090600902016001828154811061159957611598613f3c565b5b9060005260206000209060090201600082018160000190816115bb9190614453565b50600182018160010190816115d09190614453565b50600282018160020190816115e59190614453565b506003820160009054906101000a900473ffffffffffffffffffffffffffffffffffffffff168160030160006101000a81548173ffffffffffffffffffffffffffffffffffffffff021916908373ffffffffffffffffffffffffffffffffffffffff160217905550600482015481600401556005820181600501908161166b9190614453565b50600682018160060190805461168292919061315f565b50600782018160070190805461169992919061315f565b5060088201816008019080546116b092919061315f565b5090505080806116bf90613f9a565b915050611540565b5060018080805490506116da9190613fe2565b815481106116eb576116ea613f3c565b5b90600052602060002090600902016000808201600061170a919061311f565b60018201600061171a919061311f565b60028201600061172a919061311f565b6003820160006101000a81549073ffffffffffffffffffffffffffffffffffffffff02191690556004820160009055600582016000611769919061311f565b60068201600061177991906131bc565b60078201600061178991906131bc565b60088201600061179991906131bc565b505060018054806117ad576117ac614369565b5b6001900381819060005260206000209060090201600080820160006117d2919061311f565b6001820160006117e2919061311f565b6002820160006117f2919061311f565b6003820160006101000a81549073ffffffffffffffffffffffffffffffffffffffff02191690556004820160009055600582016000611831919061311f565b60068201600061184191906131bc565b60078201600061185191906131bc565b60088201600061186191906131bc565b505090555050565b60008060005b6001805490508110156119705760005b6001828154811061189357611892613f3c565b5b90600052602060002090600902016006018054905081101561195c57600182815481106118c3576118c2613f3c565b5b906000526020600020906009020160060181815481106118e6576118e5613f3c565b5b906000526020600020016040516020016119009190614426565b60405160208183030381529060405280519060200120856040516020016119279190614727565b6040516020818303038152906040528051906020012003611949578193508092505b808061195490613f9a565b91505061187f565b50808061196890613f9a565b91505061186f565b5060008190505b600180848154811061198c5761198b613f3c565b5b9060005260206000209060090201600601805490506119ab9190613fe2565b811015611a6057600183815481106119c6576119c5613f3c565b5b90600052602060002090600902016006016001826119e49190614016565b815481106119f5576119f4613f3c565b5b9060005260206000200160018481548110611a1357611a12613f3c565b5b90600052602060002090600902016006018281548110611a3657611a35613f3c565b5b906000526020600020019081611a4c9190614281565b508080611a5890613f9a565b915050611977565b5060018281548110611a7557611a74613f3c565b5b90600052602060002090600902016006016001808481548110611a9b57611a9a613f3c565b5b906000526020600020906009020160060180549050611aba9190613fe2565b81548110611acb57611aca613f3c565b5b906000526020600020016000611ae1919061311f565b60018281548110611af557611af4613f3c565b5b9060005260206000209060090201600601805480611b1657611b15614369565b5b600190038181906000526020600020016000611b32919061311f565b9055600080600090505b600280549050811015611bd75784604051602001611b5a9190614727565b6040516020818303038152906040528051906020012060028281548110611b8457611b83613f3c565b5b9060005260206000209060040201600101604051602001611ba59190614426565b6040516020818303038152906040528051906020012003611bc4578091505b8080611bcf90613f9a565b915050611b3c565b5060008190505b6001600280549050611bf09190613fe2565b811015611cf8576002600182611c069190614016565b81548110611c1757611c16613f3c565b5b906000526020600020906004020160028281548110611c3957611c38613f3c565b5b90600052602060002090600402016000820154816000015560018201816001019081611c659190614453565b5060028201816002019081611c7a9190614453565b506003820160009054906101000a900473ffffffffffffffffffffffffffffffffffffffff168160030160006101000a81548173ffffffffffffffffffffffffffffffffffffffff021916908373ffffffffffffffffffffffffffffffffffffffff1602179055509050508080611cf090613f9a565b915050611bde565b5060026001600280549050611d0d9190613fe2565b81548110611d1e57611d1d613f3c565b5b9060005260206000209060040201600080820160009055600182016000611d45919061311f565b600282016000611d55919061311f565b6003820160006101000a81549073ffffffffffffffffffffffffffffffffffffffff021916905550506002805480611d9057611d8f614369565b5b6001900381819060005260206000209060040201600080820160009055600182016000611dbd919061311f565b600282016000611dcd919061311f565b6003820160006101000a81549073ffffffffffffffffffffffffffffffffffffffff02191690555050905550505050565b60606003805480602002602001604051908101604052809291908181526020016000905b82821015611f46578382906000526020600020906003020160405180606001604052908160008201548152602001600182018054611e5f90614079565b80601f0160208091040260200160405190810160405280929190818152602001828054611e8b90614079565b8015611ed85780601f10611ead57610100808354040283529160200191611ed8565b820191906000526020600020905b815481529060010190602001808311611ebb57829003601f168201915b505050505081526020016002820160009054906101000a900473ffffffffffffffffffffffffffffffffffffffff1673ffffffffffffffffffffffffffffffffffffffff1673ffffffffffffffffffffffffffffffffffffffff168152505081526020019060010190611e22565b50505050905090565b60606001805480602002602001604051908101604052809291908181526020016000905b828210156124d9578382906000526020600020906009020160405180610120016040529081600082018054611fa790614079565b80601f0160208091040260200160405190810160405280929190818152602001828054611fd390614079565b80156120205780601f10611ff557610100808354040283529160200191612020565b820191906000526020600020905b81548152906001019060200180831161200357829003601f168201915b5050505050815260200160018201805461203990614079565b80601f016020809104026020016040519081016040528092919081815260200182805461206590614079565b80156120b25780601f10612087576101008083540402835291602001916120b2565b820191906000526020600020905b81548152906001019060200180831161209557829003601f168201915b505050505081526020016002820180546120cb90614079565b80601f01602080910402602001604051908101604052809291908181526020018280546120f790614079565b80156121445780601f1061211957610100808354040283529160200191612144565b820191906000526020600020905b81548152906001019060200180831161212757829003601f168201915b505050505081526020016003820160009054906101000a900473ffffffffffffffffffffffffffffffffffffffff1673ffffffffffffffffffffffffffffffffffffffff1673ffffffffffffffffffffffffffffffffffffffff168152602001600482015481526020016005820180546121bd90614079565b80601f01602080910402602001604051908101604052809291908181526020018280546121e990614079565b80156122365780601f1061220b57610100808354040283529160200191612236565b820191906000526020600020905b81548152906001019060200180831161221957829003601f168201915b5050505050815260200160068201805480602002602001604051908101604052809291908181526020016000905b8282101561231057838290600052602060002001805461228390614079565b80601f01602080910402602001604051908101604052809291908181526020018280546122af90614079565b80156122fc5780601f106122d1576101008083540402835291602001916122fc565b820191906000526020600020905b8154815290600101906020018083116122df57829003601f168201915b505050505081526020019060010190612264565b50505050815260200160078201805480602002602001604051908101604052809291908181526020016000905b828210156123e957838290600052602060002001805461235c90614079565b80601f016020809104026020016040519081016040528092919081815260200182805461238890614079565b80156123d55780601f106123aa576101008083540402835291602001916123d5565b820191906000526020600020905b8154815290600101906020018083116123b857829003601f168201915b50505050508152602001906001019061233d565b50505050815260200160088201805480602002602001604051908101604052809291908181526020016000905b828210156124c257838290600052602060002001805461243590614079565b80601f016020809104026020016040519081016040528092919081815260200182805461246190614079565b80156124ae5780601f10612483576101008083540402835291602001916124ae565b820191906000526020600020905b81548152906001019060200180831161249157829003601f168201915b505050505081526020019060010190612416565b505050508152505081526020019060010190611f73565b50505050905090565b600080600090505b60018054905081101561258c578273ffffffffffffffffffffffffffffffffffffffff166001828154811061252257612521613f3c565b5b906000526020600020906009020160030160009054906101000a900473ffffffffffffffffffffffffffffffffffffffff1673ffffffffffffffffffffffffffffffffffffffff1603612579576001915050612592565b808061258490613f9a565b9150506124ea565b50600090505b919050565b600134116125da576040517f08c379a00000000000000000000000000000000000000000000000000000000081526004016125d190614598565b60405180910390fd5b60008054906101000a900473ffffffffffffffffffffffffffffffffffffffff1673ffffffffffffffffffffffffffffffffffffffff166108fc349081150290604051600060405180830381858888f19350505050158015612640573d6000803e3d6000fd5b50600460405180608001604052804281526020018581526020018473ffffffffffffffffffffffffffffffffffffffff1681526020018381525090806001815401808255809150506001900390600052602060002090600402016000909190919091506000820151816000015560208201518160010190816126c291906145b8565b5060408201518160020160006101000a81548173ffffffffffffffffffffffffffffffffffffffff021916908373ffffffffffffffffffffffffffffffffffffffff160217905550606082015181600301908161271f91906145b8565b50505060005b600180549050811015612816576001818154811061274657612745613f3c565b5b906000526020600020906009020160030160009054906101000a900473ffffffffffffffffffffffffffffffffffffffff1673ffffffffffffffffffffffffffffffffffffffff168373ffffffffffffffffffffffffffffffffffffffff160361280357600181815481106127be576127bd613f3c565b5b90600052602060002090600902016008018290806001815401808255809150506001900390600052602060002001600090919091909150908161280191906145b8565b505b808061280e90613f9a565b915050612725565b50505050565b60008060005b6001805490508110156129235760005b6001828154811061284657612845613f3c565b5b90600052602060002090600902016008018054905081101561290f576001828154811061287657612875613f3c565b5b9060005260206000209060090201600801818154811061289957612898613f3c565b5b906000526020600020016040516020016128b39190614426565b60405160208183030381529060405280519060200120856040516020016128da9190614727565b60405160208183030381529060405280519060200120036128fc578193508092505b808061290790613f9a565b915050612832565b50808061291b90613f9a565b915050612822565b5060008190505b600180848154811061293f5761293e613f3c565b5b90600052602060002090600902016008018054905061295e9190613fe2565b811015612a13576001838154811061297957612978613f3c565b5b90600052602060002090600902016008016001826129979190614016565b815481106129a8576129a7613f3c565b5b90600052602060002001600184815481106129c6576129c5613f3c565b5b906000526020600020906009020160080182815481106129e9576129e8613f3c565b5b9060005260206000200190816129ff9190614281565b508080612a0b90613f9a565b91505061292a565b5060018281548110612a2857612a27613f3c565b5b90600052602060002090600902016008016001808481548110612a4e57612a4d613f3c565b5b906000526020600020906009020160080180549050612a6d9190613fe2565b81548110612a7e57612a7d613f3c565b5b906000526020600020016000612a94919061311f565b60018281548110612aa857612aa7613f3c565b5b9060005260206000209060090201600801805480612ac957612ac8614369565b5b600190038181906000526020600020016000612ae5919061311f565b9055600080600090505b600480549050811015612b8a5784604051602001612b0d9190614727565b6040516020818303038152906040528051906020012060048281548110612b3757612b36613f3c565b5b9060005260206000209060040201600101604051602001612b589190614426565b6040516020818303038152906040528051906020012003612b77578091505b8080612b8290613f9a565b915050612aef565b5060008190505b6001600480549050612ba39190613fe2565b811015612cab576004600182612bb99190614016565b81548110612bca57612bc9613f3c565b5b906000526020600020906004020160048281548110612bec57612beb613f3c565b5b90600052602060002090600402016000820154816000015560018201816001019081612c189190614453565b506002820160009054906101000a900473ffffffffffffffffffffffffffffffffffffffff168160020160006101000a81548173ffffffffffffffffffffffffffffffffffffffff021916908373ffffffffffffffffffffffffffffffffffffffff16021790555060038201816003019081612c949190614453565b509050508080612ca390613f9a565b915050612b91565b5060046001600480549050612cc09190613fe2565b81548110612cd157612cd0613f3c565b5b9060005260206000209060040201600080820160009055600182016000612cf8919061311f565b6002820160006101000a81549073ffffffffffffffffffffffffffffffffffffffff0219169055600382016000612d2f919061311f565b50506004805480612d4357612d42614369565b5b6001900381819060005260206000209060040201600080820160009055600182016000612d70919061311f565b6002820160006101000a81549073ffffffffffffffffffffffffffffffffffffffff0219169055600382016000612da7919061311f565b5050905550505050565b60001515612dbe836124e2565b151514612e00576040517f08c379a0000000000000000000000000000000000000000000000000000000008152600401612df79061478a565b60405180910390fd5b60003411612e43576040517f08c379a0000000000000000000000000000000000000000000000000000000008152600401612e3a906147f6565b60405180910390fd5b60008054906101000a900473ffffffffffffffffffffffffffffffffffffffff1673ffffffffffffffffffffffffffffffffffffffff166108fc349081150290604051600060405180830381858888f19350505050158015612ea9573d6000803e3d6000fd5b5060016040518061012001604052808781526020018681526020018581526020018473ffffffffffffffffffffffffffffffffffffffff168152602001428152602001838152602001600067ffffffffffffffff811115612f0d57612f0c613565565b5b604051908082528060200260200182016040528015612f4057816020015b6060815260200190600190039081612f2b5790505b508152602001600067ffffffffffffffff811115612f6157612f60613565565b5b604051908082528060200260200182016040528015612f9457816020015b6060815260200190600190039081612f7f5790505b508152602001600067ffffffffffffffff811115612fb557612fb4613565565b5b604051908082528060200260200182016040528015612fe857816020015b6060815260200190600190039081612fd35790505b508152509080600181540180825580915050600190039060005260206000209060090201600090919091909150600082015181600001908161302a91906145b8565b50602082015181600101908161304091906145b8565b50604082015181600201908161305691906145b8565b5060608201518160030160006101000a81548173ffffffffffffffffffffffffffffffffffffffff021916908373ffffffffffffffffffffffffffffffffffffffff1602179055506080820151816004015560a08201518160050190816130bd91906145b8565b5060c08201518160060190805190602001906130da9291906131dd565b5060e08201518160070190805190602001906130f79291906131dd565b506101008201518160080190805190602001906131159291906131dd565b5050505050505050565b50805461312b90614079565b6000825580601f1061313d575061315c565b601f01602090049060005260206000209081019061315b9190613236565b5b50565b8280548282559060005260206000209081019282156131ab5760005260206000209182015b828111156131aa578282908161319a9190614453565b5091600101919060010190613184565b5b5090506131b89190613253565b5090565b50805460008255906000526020600020908101906131da9190613253565b50565b828054828255906000526020600020908101928215613225579160200282015b8281111561322457825182908161321491906145b8565b50916020019190600101906131fd565b5b5090506132329190613253565b5090565b5b8082111561324f576000816000905550600101613237565b5090565b5b80821115613273576000818161326a919061311f565b50600101613254565b5090565b6000604051905090565b600080fd5b600080fd5b600073ffffffffffffffffffffffffffffffffffffffff82169050919050565b60006132b68261328b565b9050919050565b6132c6816132ab565b81146132d157600080fd5b50565b6000813590506132e3816132bd565b92915050565b6000819050919050565b6132fc816132e9565b811461330757600080fd5b50565b600081359050613319816132f3565b92915050565b6000806040838503121561333657613335613281565b5b6000613344858286016132d4565b92505060206133558582860161330a565b9150509250929050565b600081519050919050565b600082825260208201905092915050565b6000819050602082019050919050565b613394816132e9565b82525050565b600081519050919050565b600082825260208201905092915050565b60005b838110156133d45780820151818401526020810190506133b9565b60008484015250505050565b6000601f19601f8301169050919050565b60006133fc8261339a565b61340681856133a5565b93506134168185602086016133b6565b61341f816133e0565b840191505092915050565b613433816132ab565b82525050565b6000608083016000830151613451600086018261338b565b506020830151848203602086015261346982826133f1565b915050604083015161347e604086018261342a565b506060830151848203606086015261349682826133f1565b9150508091505092915050565b60006134af8383613439565b905092915050565b6000602082019050919050565b60006134cf8261335f565b6134d9818561336a565b9350836020820285016134eb8561337b565b8060005b85811015613527578484038952815161350885826134a3565b9450613513836134b7565b925060208a019950506001810190506134ef565b50829750879550505050505092915050565b6000602082019050818103600083015261355381846134c4565b905092915050565b600080fd5b600080fd5b7f4e487b7100000000000000000000000000000000000000000000000000000000600052604160045260246000fd5b61359d826133e0565b810181811067ffffffffffffffff821117156135bc576135bb613565565b5b80604052505050565b60006135cf613277565b90506135db8282613594565b919050565b600067ffffffffffffffff8211156135fb576135fa613565565b5b613604826133e0565b9050602081019050919050565b82818337600083830152505050565b600061363361362e846135e0565b6135c5565b90508281526020810184848401111561364f5761364e613560565b5b61365a848285613611565b509392505050565b600082601f8301126136775761367661355b565b5b8135613687848260208601613620565b91505092915050565b6000806000606084860312156136a9576136a8613281565b5b600084013567ffffffffffffffff8111156136c7576136c6613286565b5b6136d386828701613662565b93505060206136e4868287016132d4565b925050604084013567ffffffffffffffff81111561370557613704613286565b5b61371186828701613662565b9150509250925092565b6000806000806080858703121561373557613734613281565b5b6000613743878288016132d4565b945050602085013567ffffffffffffffff81111561376457613763613286565b5b61377087828801613662565b935050604085013567ffffffffffffffff81111561379157613790613286565b5b61379d87828801613662565b925050606085013567ffffffffffffffff8111156137be576137bd613286565b5b6137ca87828801613662565b91505092959194509250565b600081519050919050565b600082825260208201905092915050565b6000819050602082019050919050565b600060808301600083015161381a600086018261338b565b506020830151848203602086015261383282826133f1565b9150506040830151848203604086015261384c82826133f1565b9150506060830151613861606086018261342a565b508091505092915050565b60006138788383613802565b905092915050565b6000602082019050919050565b6000613898826137d6565b6138a281856137e1565b9350836020820285016138b4856137f2565b8060005b858110156138f057848403895281516138d1858261386c565b94506138dc83613880565b925060208a019950506001810190506138b8565b50829750879550505050505092915050565b6000602082019050818103600083015261391c818461388d565b905092915050565b6000806040838503121561393b5761393a613281565b5b600083013567ffffffffffffffff81111561395957613958613286565b5b61396585828601613662565b9250506020613976858286016132d4565b9150509250929050565b6000806040838503121561399757613996613281565b5b60006139a5858286016132d4565b925050602083013567ffffffffffffffff8111156139c6576139c5613286565b5b6139d285828601613662565b9150509250929050565b60008115159050919050565b6139f1816139dc565b82525050565b6000602082019050613a0c60008301846139e8565b92915050565b600060208284031215613a2857613a27613281565b5b6000613a36848285016132d4565b91505092915050565b600060208284031215613a5557613a54613281565b5b600082013567ffffffffffffffff811115613a7357613a72613286565b5b613a7f84828501613662565b91505092915050565b600081519050919050565b600082825260208201905092915050565b6000819050602082019050919050565b6000606083016000830151613acc600086018261338b565b5060208301518482036020860152613ae482826133f1565b9150506040830151613af9604086018261342a565b508091505092915050565b6000613b108383613ab4565b905092915050565b6000602082019050919050565b6000613b3082613a88565b613b3a8185613a93565b935083602082028501613b4c85613aa4565b8060005b85811015613b885784840389528151613b698582613b04565b9450613b7483613b18565b925060208a01995050600181019050613b50565b50829750879550505050505092915050565b60006020820190508181036000830152613bb48184613b25565b905092915050565b600081519050919050565b600082825260208201905092915050565b6000819050602082019050919050565b600081519050919050565b600082825260208201905092915050565b6000819050602082019050919050565b6000613c2083836133f1565b905092915050565b6000602082019050919050565b6000613c4082613be8565b613c4a8185613bf3565b935083602082028501613c5c85613c04565b8060005b85811015613c985784840389528151613c798582613c14565b9450613c8483613c28565b925060208a01995050600181019050613c60565b50829750879550505050505092915050565b6000610120830160008301518482036000860152613cc882826133f1565b91505060208301518482036020860152613ce282826133f1565b91505060408301518482036040860152613cfc82826133f1565b9150506060830151613d11606086018261342a565b506080830151613d24608086018261338b565b5060a083015184820360a0860152613d3c82826133f1565b91505060c083015184820360c0860152613d568282613c35565b91505060e083015184820360e0860152613d708282613c35565b915050610100830151848203610100860152613d8c8282613c35565b9150508091505092915050565b6000613da58383613caa565b905092915050565b6000602082019050919050565b6000613dc582613bbc565b613dcf8185613bc7565b935083602082028501613de185613bd8565b8060005b85811015613e1d5784840389528151613dfe8582613d99565b9450613e0983613dad565b925060208a01995050600181019050613de5565b50829750879550505050505092915050565b60006020820190508181036000830152613e498184613dba565b905092915050565b600080600080600060a08688031215613e6d57613e6c613281565b5b600086013567ffffffffffffffff811115613e8b57613e8a613286565b5b613e9788828901613662565b955050602086013567ffffffffffffffff811115613eb857613eb7613286565b5b613ec488828901613662565b945050604086013567ffffffffffffffff811115613ee557613ee4613286565b5b613ef188828901613662565b9350506060613f02888289016132d4565b925050608086013567ffffffffffffffff811115613f2357613f22613286565b5b613f2f88828901613662565b9150509295509295909350565b7f4e487b7100000000000000000000000000000000000000000000000000000000600052603260045260246000fd5b7f4e487b7100000000000000000000000000000000000000000000000000000000600052601160045260246000fd5b6000613fa5826132e9565b91507fffffffffffffffffffffffffffffffffffffffffffffffffffffffffffffffff8203613fd757613fd6613f6b565b5b600182019050919050565b6000613fed826132e9565b9150613ff8836132e9565b92508282039050818111156140105761400f613f6b565b5b92915050565b6000614021826132e9565b915061402c836132e9565b925082820190508082111561404457614043613f6b565b5b92915050565b7f4e487b7100000000000000000000000000000000000000000000000000000000600052602260045260246000fd5b6000600282049050600182168061409157607f821691505b6020821081036140a4576140a361404a565b5b50919050565b6000815490506140b981614079565b9050919050565b60008190508160005260206000209050919050565b60008190508160005260206000209050919050565b60006020601f8301049050919050565b600082821b905092915050565b6000600883026141377fffffffffffffffffffffffffffffffffffffffffffffffffffffffffffffffff826140fa565b61414186836140fa565b95508019841693508086168417925050509392505050565b6000819050919050565b600061417e614179614174846132e9565b614159565b6132e9565b9050919050565b6000819050919050565b61419883614163565b6141ac6141a482614185565b848454614107565b825550505050565b600090565b6141c16141b4565b6141cc81848461418f565b505050565b5b818110156141f0576141e56000826141b9565b6001810190506141d2565b5050565b601f82111561423557614206816140c0565b61420f846140ea565b8101602085101561421e578190505b61423261422a856140ea565b8301826141d1565b50505b505050565b600082821c905092915050565b60006142586000198460080261423a565b1980831691505092915050565b60006142718383614247565b9150826002028217905092915050565b81810361428f575050614367565b614298826140aa565b67ffffffffffffffff8111156142b1576142b0613565565b5b6142bb8254614079565b6142c68282856141f4565b6000601f8311600181146142f557600084156142e3578287015490505b6142ed8582614265565b865550614360565b601f198416614303876140d5565b965061430e866140c0565b60005b8281101561433657848901548255600182019150600185019450602081019050614311565b86831015614353578489015461434f601f891682614247565b8355505b6001600288020188555050505b5050505050505b565b7f4e487b7100000000000000000000000000000000000000000000000000000000600052603160045260246000fd5b600081905092915050565b600081546143b081614079565b6143ba8186614398565b945060018216600081146143d557600181146143ea5761441d565b60ff198316865281151582028601935061441d565b6143f3856140c0565b60005b83811015614415578154818901526001820191506020810190506143f6565b838801955050505b50505092915050565b600061443282846143a3565b915081905092915050565b60008154905061444c81614079565b9050919050565b818103614461575050614539565b61446a8261443d565b67ffffffffffffffff81111561448357614482613565565b5b61448d8254614079565b6144988282856141f4565b6000601f8311600181146144c757600084156144b5578287015490505b6144bf8582614265565b865550614532565b601f1984166144d5876140c0565b96506144e0866140c0565b60005b82811015614508578489015482556001820191506001850194506020810190506144e3565b868310156145255784890154614521601f891682614247565b8355505b6001600288020188555050505b5050505050505b565b600082825260208201905092915050565b7f706c656173652070617920312047776900000000000000000000000000000000600082015250565b600061458260108361453b565b915061458d8261454c565b602082019050919050565b600060208201905081810360008301526145b181614575565b9050919050565b6145c18261339a565b67ffffffffffffffff8111156145da576145d9613565565b5b6145e48254614079565b6145ef8282856141f4565b600060209050601f8311600181146146225760008415614610578287015190505b61461a8582614265565b865550614682565b601f198416614630866140c0565b60005b8281101561465857848901518255600182019150602085019450602081019050614633565b868310156146755784890151614671601f891682614247565b8355505b6001600288020188555050505b505050505050565b7f55736572204e6f7420466f756e64000000000000000000000000000000000000600082015250565b60006146c0600e8361453b565b91506146cb8261468a565b602082019050919050565b600060208201905081810360008301526146ef816146b3565b9050919050565b60006147018261339a565b61470b8185614398565b935061471b8185602086016133b6565b80840191505092915050565b600061473382846146f6565b915081905092915050565b7f596f75206861766520616c7265616479205369676e5570000000000000000000600082015250565b600061477460178361453b565b915061477f8261473e565b602082019050919050565b600060208201905081810360008301526147a381614767565b9050919050565b7f706c656173652070617920302047776900000000000000000000000000000000600082015250565b60006147e060108361453b565b91506147eb826147aa565b602082019050919050565b6000602082019050818103600083015261480f816147d3565b905091905056fea26469706673582212203459775520f6e298ea97b2d32600198b8f270e19620eb27a59f564049404f03f64736f6c63430008110033","opcodes":"PUSH1 0x80 PUSH1 0x40 MSTORE CALLVALUE DUP1 ISZERO PUSH2 0x10 JUMPI PUSH1 0x0 DUP1 REVERT JUMPDEST POP CALLER PUSH1 0x0 DUP1 PUSH2 0x100 EXP DUP2 SLOAD DUP2 PUSH20 0xFFFFFFFFFFFFFFFFFFFFFFFFFFFFFFFFFFFFFFFF MUL NOT AND SWAP1 DUP4 PUSH20 0xFFFFFFFFFFFFFFFFFFFFFFFFFFFFFFFFFFFFFFFF AND MUL OR SWAP1 SSTORE POP PUSH2 0x484C DUP1 PUSH2 0x60 PUSH1 0x0 CODECOPY PUSH1 0x0 RETURN INVALID PUSH1 0x80 PUSH1 0x40 MSTORE PUSH1 0x4 CALLDATASIZE LT PUSH2 0xE8 JUMPI PUSH1 0x0 CALLDATALOAD PUSH1 0xE0 SHR DUP1 PUSH4 0xA590E9C1 GT PUSH2 0x8A JUMPI DUP1 PUSH4 0xECDEF347 GT PUSH2 0x59 JUMPI DUP1 PUSH4 0xECDEF347 EQ PUSH2 0x2B2 JUMPI DUP1 PUSH4 0xF5296302 EQ PUSH2 0x2EF JUMPI DUP1 PUSH4 0xF678A7FD EQ PUSH2 0x30B JUMPI DUP1 PUSH4 0xF8059642 EQ PUSH2 0x334 JUMPI PUSH2 0xE8 JUMP JUMPDEST DUP1 PUSH4 0xA590E9C1 EQ PUSH2 0x20A JUMPI DUP1 PUSH4 0xD0564FB0 EQ PUSH2 0x233 JUMPI DUP1 PUSH4 0xDC92B32D EQ PUSH2 0x25C JUMPI DUP1 PUSH4 0xE51B6AD3 EQ PUSH2 0x287 JUMPI PUSH2 0xE8 JUMP JUMPDEST DUP1 PUSH4 0x661C01CB GT PUSH2 0xC6 JUMPI DUP1 PUSH4 0x661C01CB EQ PUSH2 0x15D JUMPI DUP1 PUSH4 0x7BD3A4CA EQ PUSH2 0x186 JUMPI DUP1 PUSH4 0x97F52DC1 EQ PUSH2 0x1B1 JUMPI DUP1 PUSH4 0xA4B4E42B EQ PUSH2 0x1CD JUMPI PUSH2 0xE8 JUMP JUMPDEST DUP1 PUSH4 0x857C054 EQ PUSH2 0xED JUMPI DUP1 PUSH4 0xF9D76D4 EQ PUSH2 0x116 JUMPI DUP1 PUSH4 0x32C7C2EA EQ PUSH2 0x141 JUMPI JUMPDEST PUSH1 0x0 DUP1 REVERT JUMPDEST CALLVALUE DUP1 ISZERO PUSH2 0xF9 JUMPI PUSH1 0x0 DUP1 REVERT JUMPDEST POP PUSH2 0x114 PUSH1 0x4 DUP1 CALLDATASIZE SUB DUP2 ADD SWAP1 PUSH2 0x10F SWAP2 SWAP1 PUSH2 0x331F JUMP JUMPDEST PUSH2 0x350 JUMP JUMPDEST STOP JUMPDEST CALLVALUE DUP1 ISZERO PUSH2 0x122 JUMPI PUSH1 0x0 DUP1 REVERT JUMPDEST POP PUSH2 0x12B PUSH2 0x88F JUMP JUMPDEST PUSH1 0x40 MLOAD PUSH2 0x138 SWAP2 SWAP1 PUSH2 0x3539 JUMP JUMPDEST PUSH1 0x40 MLOAD DUP1 SWAP2 SUB SWAP1 RETURN JUMPDEST PUSH2 0x15B PUSH1 0x4 DUP1 CALLDATASIZE SUB DUP2 ADD SWAP1 PUSH2 0x156 SWAP2 SWAP1 PUSH2 0x3690 JUMP JUMPDEST PUSH2 0xA72 JUMP JUMPDEST STOP JUMPDEST CALLVALUE DUP1 ISZERO PUSH2 0x169 JUMPI PUSH1 0x0 DUP1 REVERT JUMPDEST POP PUSH2 0x184 PUSH1 0x4 DUP1 CALLDATASIZE SUB DUP2 ADD SWAP1 PUSH2 0x17F SWAP2 SWAP1 PUSH2 0x371B JUMP JUMPDEST PUSH2 0xCF7 JUMP JUMPDEST STOP JUMPDEST CALLVALUE DUP1 ISZERO PUSH2 0x192 JUMPI PUSH1 0x0 DUP1 REVERT JUMPDEST POP PUSH2 0x19B PUSH2 0xE33 JUMP JUMPDEST PUSH1 0x40 MLOAD PUSH2 0x1A8 SWAP2 SWAP1 PUSH2 0x3902 JUMP JUMPDEST PUSH1 0x40 MLOAD DUP1 SWAP2 SUB SWAP1 RETURN JUMPDEST PUSH2 0x1CB PUSH1 0x4 DUP1 CALLDATASIZE SUB DUP2 ADD SWAP1 PUSH2 0x1C6 SWAP2 SWAP1 PUSH2 0x3924 JUMP JUMPDEST PUSH2 0x1016 JUMP JUMPDEST STOP JUMPDEST CALLVALUE DUP1 ISZERO PUSH2 0x1D9 JUMPI PUSH1 0x0 DUP1 REVERT JUMPDEST POP PUSH2 0x1F4 PUSH1 0x4 DUP1 CALLDATASIZE SUB DUP2 ADD SWAP1 PUSH2 0x1EF SWAP2 SWAP1 PUSH2 0x3980 JUMP JUMPDEST PUSH2 0x127E JUMP JUMPDEST PUSH1 0x40 MLOAD PUSH2 0x201 SWAP2 SWAP1 PUSH2 0x39F7 JUMP JUMPDEST PUSH1 0x40 MLOAD DUP1 SWAP2 SUB SWAP1 RETURN JUMPDEST CALLVALUE DUP1 ISZERO PUSH2 0x216 JUMPI PUSH1 0x0 DUP1 REVERT JUMPDEST POP PUSH2 0x231 PUSH1 0x4 DUP1 CALLDATASIZE SUB DUP2 ADD SWAP1 PUSH2 0x22C SWAP2 SWAP1 PUSH2 0x3A12 JUMP JUMPDEST PUSH2 0x13F5 JUMP JUMPDEST STOP JUMPDEST CALLVALUE DUP1 ISZERO PUSH2 0x23F JUMPI PUSH1 0x0 DUP1 REVERT JUMPDEST POP PUSH2 0x25A PUSH1 0x4 DUP1 CALLDATASIZE SUB DUP2 ADD SWAP1 PUSH2 0x255 SWAP2 SWAP1 PUSH2 0x3A3F JUMP JUMPDEST PUSH2 0x1869 JUMP JUMPDEST STOP JUMPDEST CALLVALUE DUP1 ISZERO PUSH2 0x268 JUMPI PUSH1 0x0 DUP1 REVERT JUMPDEST POP PUSH2 0x271 PUSH2 0x1DFE JUMP JUMPDEST PUSH1 0x40 MLOAD PUSH2 0x27E SWAP2 SWAP1 PUSH2 0x3B9A JUMP JUMPDEST PUSH1 0x40 MLOAD DUP1 SWAP2 SUB SWAP1 RETURN JUMPDEST CALLVALUE DUP1 ISZERO PUSH2 0x293 JUMPI PUSH1 0x0 DUP1 REVERT JUMPDEST POP PUSH2 0x29C PUSH2 0x1F4F JUMP JUMPDEST PUSH1 0x40 MLOAD PUSH2 0x2A9 SWAP2 SWAP1 PUSH2 0x3E2F JUMP JUMPDEST PUSH1 0x40 MLOAD DUP1 SWAP2 SUB SWAP1 RETURN JUMPDEST CALLVALUE DUP1 ISZERO PUSH2 0x2BE JUMPI PUSH1 0x0 DUP1 REVERT JUMPDEST POP PUSH2 0x2D9 PUSH1 0x4 DUP1 CALLDATASIZE SUB DUP2 ADD SWAP1 PUSH2 0x2D4 SWAP2 SWAP1 PUSH2 0x3A12 JUMP JUMPDEST PUSH2 0x24E2 JUMP JUMPDEST PUSH1 0x40 MLOAD PUSH2 0x2E6 SWAP2 SWAP1 PUSH2 0x39F7 JUMP JUMPDEST PUSH1 0x40 MLOAD DUP1 SWAP2 SUB SWAP1 RETURN JUMPDEST PUSH2 0x309 PUSH1 0x4 DUP1 CALLDATASIZE SUB DUP2 ADD SWAP1 PUSH2 0x304 SWAP2 SWAP1 PUSH2 0x3690 JUMP JUMPDEST PUSH2 0x2597 JUMP JUMPDEST STOP JUMPDEST CALLVALUE DUP1 ISZERO PUSH2 0x317 JUMPI PUSH1 0x0 DUP1 REVERT JUMPDEST POP PUSH2 0x332 PUSH1 0x4 DUP1 CALLDATASIZE SUB DUP2 ADD SWAP1 PUSH2 0x32D SWAP2 SWAP1 PUSH2 0x3A3F JUMP JUMPDEST PUSH2 0x281C JUMP JUMPDEST STOP JUMPDEST PUSH2 0x34E PUSH1 0x4 DUP1 CALLDATASIZE SUB DUP2 ADD SWAP1 PUSH2 0x349 SWAP2 SWAP1 PUSH2 0x3E51 JUMP JUMPDEST PUSH2 0x2DB1 JUMP JUMPDEST STOP JUMPDEST PUSH1 0x0 DUP1 PUSH1 0x0 JUMPDEST PUSH1 0x1 DUP1 SLOAD SWAP1 POP DUP2 LT ISZERO PUSH2 0x3F5 JUMPI PUSH1 0x1 DUP2 DUP2 SLOAD DUP2 LT PUSH2 0x377 JUMPI PUSH2 0x376 PUSH2 0x3F3C JUMP JUMPDEST JUMPDEST SWAP1 PUSH1 0x0 MSTORE PUSH1 0x20 PUSH1 0x0 KECCAK256 SWAP1 PUSH1 0x9 MUL ADD PUSH1 0x3 ADD PUSH1 0x0 SWAP1 SLOAD SWAP1 PUSH2 0x100 EXP SWAP1 DIV PUSH20 0xFFFFFFFFFFFFFFFFFFFFFFFFFFFFFFFFFFFFFFFF AND PUSH20 0xFFFFFFFFFFFFFFFFFFFFFFFFFFFFFFFFFFFFFFFF AND DUP6 PUSH20 0xFFFFFFFFFFFFFFFFFFFFFFFFFFFFFFFFFFFFFFFF AND SUB PUSH2 0x3E2 JUMPI DUP1 SWAP3 POP DUP4 SWAP2 POP JUMPDEST DUP1 DUP1 PUSH2 0x3ED SWAP1 PUSH2 0x3F9A JUMP JUMPDEST SWAP2 POP POP PUSH2 0x356 JUMP JUMPDEST POP PUSH1 0x0 DUP2 SWAP1 POP JUMPDEST PUSH1 0x1 DUP1 DUP5 DUP2 SLOAD DUP2 LT PUSH2 0x411 JUMPI PUSH2 0x410 PUSH2 0x3F3C JUMP JUMPDEST JUMPDEST SWAP1 PUSH1 0x0 MSTORE PUSH1 0x20 PUSH1 0x0 KECCAK256 SWAP1 PUSH1 0x9 MUL ADD PUSH1 0x7 ADD DUP1 SLOAD SWAP1 POP PUSH2 0x430 SWAP2 SWAP1 PUSH2 0x3FE2 JUMP JUMPDEST DUP2 LT ISZERO PUSH2 0x4E5 JUMPI PUSH1 0x1 DUP4 DUP2 SLOAD DUP2 LT PUSH2 0x44B JUMPI PUSH2 0x44A PUSH2 0x3F3C JUMP JUMPDEST JUMPDEST SWAP1 PUSH1 0x0 MSTORE PUSH1 0x20 PUSH1 0x0 KECCAK256 SWAP1 PUSH1 0x9 MUL ADD PUSH1 0x7 ADD PUSH1 0x1 DUP3 PUSH2 0x469 SWAP2 SWAP1 PUSH2 0x4016 JUMP JUMPDEST DUP2 SLOAD DUP2 LT PUSH2 0x47A JUMPI PUSH2 0x479 PUSH2 0x3F3C JUMP JUMPDEST JUMPDEST SWAP1 PUSH1 0x0 MSTORE PUSH1 0x20 PUSH1 0x0 KECCAK256 ADD PUSH1 0x1 DUP5 DUP2 SLOAD DUP2 LT PUSH2 0x498 JUMPI PUSH2 0x497 PUSH2 0x3F3C JUMP JUMPDEST JUMPDEST SWAP1 PUSH1 0x0 MSTORE PUSH1 0x20 PUSH1 0x0 KECCAK256 SWAP1 PUSH1 0x9 MUL ADD PUSH1 0x7 ADD DUP3 DUP2 SLOAD DUP2 LT PUSH2 0x4BB JUMPI PUSH2 0x4BA PUSH2 0x3F3C JUMP JUMPDEST JUMPDEST SWAP1 PUSH1 0x0 MSTORE PUSH1 0x20 PUSH1 0x0 KECCAK256 ADD SWAP1 DUP2 PUSH2 0x4D1 SWAP2 SWAP1 PUSH2 0x4281 JUMP JUMPDEST POP DUP1 DUP1 PUSH2 0x4DD SWAP1 PUSH2 0x3F9A JUMP JUMPDEST SWAP2 POP POP PUSH2 0x3FC JUMP JUMPDEST POP PUSH1 0x1 DUP3 DUP2 SLOAD DUP2 LT PUSH2 0x4FA JUMPI PUSH2 0x4F9 PUSH2 0x3F3C JUMP JUMPDEST JUMPDEST SWAP1 PUSH1 0x0 MSTORE PUSH1 0x20 PUSH1 0x0 KECCAK256 SWAP1 PUSH1 0x9 MUL ADD PUSH1 0x7 ADD PUSH1 0x1 DUP1 DUP5 DUP2 SLOAD DUP2 LT PUSH2 0x520 JUMPI PUSH2 0x51F PUSH2 0x3F3C JUMP JUMPDEST JUMPDEST SWAP1 PUSH1 0x0 MSTORE PUSH1 0x20 PUSH1 0x0 KECCAK256 SWAP1 PUSH1 0x9 MUL ADD PUSH1 0x7 ADD DUP1 SLOAD SWAP1 POP PUSH2 0x53F SWAP2 SWAP1 PUSH2 0x3FE2 JUMP JUMPDEST DUP2 SLOAD DUP2 LT PUSH2 0x550 JUMPI PUSH2 0x54F PUSH2 0x3F3C JUMP JUMPDEST JUMPDEST SWAP1 PUSH1 0x0 MSTORE PUSH1 0x20 PUSH1 0x0 KECCAK256 ADD PUSH1 0x0 PUSH2 0x566 SWAP2 SWAP1 PUSH2 0x311F JUMP JUMPDEST PUSH1 0x1 DUP3 DUP2 SLOAD DUP2 LT PUSH2 0x57A JUMPI PUSH2 0x579 PUSH2 0x3F3C JUMP JUMPDEST JUMPDEST SWAP1 PUSH1 0x0 MSTORE PUSH1 0x20 PUSH1 0x0 KECCAK256 SWAP1 PUSH1 0x9 MUL ADD PUSH1 0x7 ADD DUP1 SLOAD DUP1 PUSH2 0x59B JUMPI PUSH2 0x59A PUSH2 0x4369 JUMP JUMPDEST JUMPDEST PUSH1 0x1 SWAP1 SUB DUP2 DUP2 SWAP1 PUSH1 0x0 MSTORE PUSH1 0x20 PUSH1 0x0 KECCAK256 ADD PUSH1 0x0 PUSH2 0x5B7 SWAP2 SWAP1 PUSH2 0x311F JUMP JUMPDEST SWAP1 SSTORE PUSH1 0x0 DUP1 PUSH1 0x0 SWAP1 POP JUMPDEST PUSH1 0x3 DUP1 SLOAD SWAP1 POP DUP2 LT ISZERO PUSH2 0x69C JUMPI PUSH1 0x3 DUP2 DUP2 SLOAD DUP2 LT PUSH2 0x5E2 JUMPI PUSH2 0x5E1 PUSH2 0x3F3C JUMP JUMPDEST JUMPDEST SWAP1 PUSH1 0x0 MSTORE PUSH1 0x20 PUSH1 0x0 KECCAK256 SWAP1 PUSH1 0x3 MUL ADD PUSH1 0x1 ADD PUSH1 0x40 MLOAD PUSH1 0x20 ADD PUSH2 0x603 SWAP2 SWAP1 PUSH2 0x4426 JUMP JUMPDEST PUSH1 0x40 MLOAD PUSH1 0x20 DUP2 DUP4 SUB SUB DUP2 MSTORE SWAP1 PUSH1 0x40 MSTORE DUP1 MLOAD SWAP1 PUSH1 0x20 ADD KECCAK256 PUSH1 0x1 DUP6 DUP2 SLOAD DUP2 LT PUSH2 0x62D JUMPI PUSH2 0x62C PUSH2 0x3F3C JUMP JUMPDEST JUMPDEST SWAP1 PUSH1 0x0 MSTORE PUSH1 0x20 PUSH1 0x0 KECCAK256 SWAP1 PUSH1 0x9 MUL ADD PUSH1 0x7 ADD DUP5 DUP2 SLOAD DUP2 LT PUSH2 0x650 JUMPI PUSH2 0x64F PUSH2 0x3F3C JUMP JUMPDEST JUMPDEST SWAP1 PUSH1 0x0 MSTORE PUSH1 0x20 PUSH1 0x0 KECCAK256 ADD PUSH1 0x40 MLOAD PUSH1 0x20 ADD PUSH2 0x66A SWAP2 SWAP1 PUSH2 0x4426 JUMP JUMPDEST PUSH1 0x40 MLOAD PUSH1 0x20 DUP2 DUP4 SUB SUB DUP2 MSTORE SWAP1 PUSH1 0x40 MSTORE DUP1 MLOAD SWAP1 PUSH1 0x20 ADD KECCAK256 SUB PUSH2 0x689 JUMPI DUP1 SWAP2 POP JUMPDEST DUP1 DUP1 PUSH2 0x694 SWAP1 PUSH2 0x3F9A JUMP JUMPDEST SWAP2 POP POP PUSH2 0x5C1 JUMP JUMPDEST POP PUSH1 0x0 DUP2 SWAP1 POP JUMPDEST PUSH1 0x1 PUSH1 0x3 DUP1 SLOAD SWAP1 POP PUSH2 0x6B5 SWAP2 SWAP1 PUSH2 0x3FE2 JUMP JUMPDEST DUP2 LT ISZERO PUSH2 0x7A8 JUMPI PUSH1 0x3 PUSH1 0x1 DUP3 PUSH2 0x6CB SWAP2 SWAP1 PUSH2 0x4016 JUMP JUMPDEST DUP2 SLOAD DUP2 LT PUSH2 0x6DC JUMPI PUSH2 0x6DB PUSH2 0x3F3C JUMP JUMPDEST JUMPDEST SWAP1 PUSH1 0x0 MSTORE PUSH1 0x20 PUSH1 0x0 KECCAK256 SWAP1 PUSH1 0x3 MUL ADD PUSH1 0x3 DUP3 DUP2 SLOAD DUP2 LT PUSH2 0x6FE JUMPI PUSH2 0x6FD PUSH2 0x3F3C JUMP JUMPDEST JUMPDEST SWAP1 PUSH1 0x0 MSTORE PUSH1 0x20 PUSH1 0x0 KECCAK256 SWAP1 PUSH1 0x3 MUL ADD PUSH1 0x0 DUP3 ADD SLOAD DUP2 PUSH1 0x0 ADD SSTORE PUSH1 0x1 DUP3 ADD DUP2 PUSH1 0x1 ADD SWAP1 DUP2 PUSH2 0x72A SWAP2 SWAP1 PUSH2 0x4453 JUMP JUMPDEST POP PUSH1 0x2 DUP3 ADD PUSH1 0x0 SWAP1 SLOAD SWAP1 PUSH2 0x100 EXP SWAP1 DIV PUSH20 0xFFFFFFFFFFFFFFFFFFFFFFFFFFFFFFFFFFFFFFFF AND DUP2 PUSH1 0x2 ADD PUSH1 0x0 PUSH2 0x100 EXP DUP2 SLOAD DUP2 PUSH20 0xFFFFFFFFFFFFFFFFFFFFFFFFFFFFFFFFFFFFFFFF MUL NOT AND SWAP1 DUP4 PUSH20 0xFFFFFFFFFFFFFFFFFFFFFFFFFFFFFFFFFFFFFFFF AND MUL OR SWAP1 SSTORE POP SWAP1 POP POP DUP1 DUP1 PUSH2 0x7A0 SWAP1 PUSH2 0x3F9A JUMP JUMPDEST SWAP2 POP POP PUSH2 0x6A3 JUMP JUMPDEST POP PUSH1 0x3 PUSH1 0x1 PUSH1 0x3 DUP1 SLOAD SWAP1 POP PUSH2 0x7BD SWAP2 SWAP1 PUSH2 0x3FE2 JUMP JUMPDEST DUP2 SLOAD DUP2 LT PUSH2 0x7CE JUMPI PUSH2 0x7CD PUSH2 0x3F3C JUMP JUMPDEST JUMPDEST SWAP1 PUSH1 0x0 MSTORE PUSH1 0x20 PUSH1 0x0 KECCAK256 SWAP1 PUSH1 0x3 MUL ADD PUSH1 0x0 DUP1 DUP3 ADD PUSH1 0x0 SWAP1 SSTORE PUSH1 0x1 DUP3 ADD PUSH1 0x0 PUSH2 0x7F5 SWAP2 SWAP1 PUSH2 0x311F JUMP JUMPDEST PUSH1 0x2 DUP3 ADD PUSH1 0x0 PUSH2 0x100 EXP DUP2 SLOAD SWAP1 PUSH20 0xFFFFFFFFFFFFFFFFFFFFFFFFFFFFFFFFFFFFFFFF MUL NOT AND SWAP1 SSTORE POP POP PUSH1 0x3 DUP1 SLOAD DUP1 PUSH2 0x830 JUMPI PUSH2 0x82F PUSH2 0x4369 JUMP JUMPDEST JUMPDEST PUSH1 0x1 SWAP1 SUB DUP2 DUP2 SWAP1 PUSH1 0x0 MSTORE PUSH1 0x20 PUSH1 0x0 KECCAK256 SWAP1 PUSH1 0x3 MUL ADD PUSH1 0x0 DUP1 DUP3 ADD PUSH1 0x0 SWAP1 SSTORE PUSH1 0x1 DUP3 ADD PUSH1 0x0 PUSH2 0x85D SWAP2 SWAP1 PUSH2 0x311F JUMP JUMPDEST PUSH1 0x2 DUP3 ADD PUSH1 0x0 PUSH2 0x100 EXP DUP2 SLOAD SWAP1 PUSH20 0xFFFFFFFFFFFFFFFFFFFFFFFFFFFFFFFFFFFFFFFF MUL NOT AND SWAP1 SSTORE POP POP SWAP1 SSTORE POP POP POP POP POP JUMP JUMPDEST PUSH1 0x60 PUSH1 0x4 DUP1 SLOAD DUP1 PUSH1 0x20 MUL PUSH1 0x20 ADD PUSH1 0x40 MLOAD SWAP1 DUP2 ADD PUSH1 0x40 MSTORE DUP1 SWAP3 SWAP2 SWAP1 DUP2 DUP2 MSTORE PUSH1 0x20 ADD PUSH1 0x0 SWAP1 JUMPDEST DUP3 DUP3 LT ISZERO PUSH2 0xA69 JUMPI DUP4 DUP3 SWAP1 PUSH1 0x0 MSTORE PUSH1 0x20 PUSH1 0x0 KECCAK256 SWAP1 PUSH1 0x4 MUL ADD PUSH1 0x40 MLOAD DUP1 PUSH1 0x80 ADD PUSH1 0x40 MSTORE SWAP1 DUP2 PUSH1 0x0 DUP3 ADD SLOAD DUP2 MSTORE PUSH1 0x20 ADD PUSH1 0x1 DUP3 ADD DUP1 SLOAD PUSH2 0x8F0 SWAP1 PUSH2 0x4079 JUMP JUMPDEST DUP1 PUSH1 0x1F ADD PUSH1 0x20 DUP1 SWAP2 DIV MUL PUSH1 0x20 ADD PUSH1 0x40 MLOAD SWAP1 DUP2 ADD PUSH1 0x40 MSTORE DUP1 SWAP3 SWAP2 SWAP1 DUP2 DUP2 MSTORE PUSH1 0x20 ADD DUP3 DUP1 SLOAD PUSH2 0x91C SWAP1 PUSH2 0x4079 JUMP JUMPDEST DUP1 ISZERO PUSH2 0x969 JUMPI DUP1 PUSH1 0x1F LT PUSH2 0x93E JUMPI PUSH2 0x100 DUP1 DUP4 SLOAD DIV MUL DUP4 MSTORE SWAP2 PUSH1 0x20 ADD SWAP2 PUSH2 0x969 JUMP JUMPDEST DUP3 ADD SWAP2 SWAP1 PUSH1 0x0 MSTORE PUSH1 0x20 PUSH1 0x0 KECCAK256 SWAP1 JUMPDEST DUP2 SLOAD DUP2 MSTORE SWAP1 PUSH1 0x1 ADD SWAP1 PUSH1 0x20 ADD DUP1 DUP4 GT PUSH2 0x94C JUMPI DUP3 SWAP1 SUB PUSH1 0x1F AND DUP3 ADD SWAP2 JUMPDEST POP POP POP POP POP DUP2 MSTORE PUSH1 0x20 ADD PUSH1 0x2 DUP3 ADD PUSH1 0x0 SWAP1 SLOAD SWAP1 PUSH2 0x100 EXP SWAP1 DIV PUSH20 0xFFFFFFFFFFFFFFFFFFFFFFFFFFFFFFFFFFFFFFFF AND PUSH20 0xFFFFFFFFFFFFFFFFFFFFFFFFFFFFFFFFFFFFFFFF AND PUSH20 0xFFFFFFFFFFFFFFFFFFFFFFFFFFFFFFFFFFFFFFFF AND DUP2 MSTORE PUSH1 0x20 ADD PUSH1 0x3 DUP3 ADD DUP1 SLOAD PUSH2 0x9D8 SWAP1 PUSH2 0x4079 JUMP JUMPDEST DUP1 PUSH1 0x1F ADD PUSH1 0x20 DUP1 SWAP2 DIV MUL PUSH1 0x20 ADD PUSH1 0x40 MLOAD SWAP1 DUP2 ADD PUSH1 0x40 MSTORE DUP1 SWAP3 SWAP2 SWAP1 DUP2 DUP2 MSTORE PUSH1 0x20 ADD DUP3 DUP1 SLOAD PUSH2 0xA04 SWAP1 PUSH2 0x4079 JUMP JUMPDEST DUP1 ISZERO PUSH2 0xA51 JUMPI DUP1 PUSH1 0x1F LT PUSH2 0xA26 JUMPI PUSH2 0x100 DUP1 DUP4 SLOAD DIV MUL DUP4 MSTORE SWAP2 PUSH1 0x20 ADD SWAP2 PUSH2 0xA51 JUMP JUMPDEST DUP3 ADD SWAP2 SWAP1 PUSH1 0x0 MSTORE PUSH1 0x20 PUSH1 0x0 KECCAK256 SWAP1 JUMPDEST DUP2 SLOAD DUP2 MSTORE SWAP1 PUSH1 0x1 ADD SWAP1 PUSH1 0x20 ADD DUP1 DUP4 GT PUSH2 0xA34 JUMPI DUP3 SWAP1 SUB PUSH1 0x1F AND DUP3 ADD SWAP2 JUMPDEST POP POP POP POP POP DUP2 MSTORE POP POP DUP2 MSTORE PUSH1 0x20 ADD SWAP1 PUSH1 0x1 ADD SWAP1 PUSH2 0x8B3 JUMP JUMPDEST POP POP POP POP SWAP1 POP SWAP1 JUMP JUMPDEST PUSH1 0x1 CALLVALUE GT PUSH2 0xAB5 JUMPI PUSH1 0x40 MLOAD PUSH32 0x8C379A000000000000000000000000000000000000000000000000000000000 DUP2 MSTORE PUSH1 0x4 ADD PUSH2 0xAAC SWAP1 PUSH2 0x4598 JUMP JUMPDEST PUSH1 0x40 MLOAD DUP1 SWAP2 SUB SWAP1 REVERT JUMPDEST PUSH1 0x0 DUP1 SLOAD SWAP1 PUSH2 0x100 EXP SWAP1 DIV PUSH20 0xFFFFFFFFFFFFFFFFFFFFFFFFFFFFFFFFFFFFFFFF AND PUSH20 0xFFFFFFFFFFFFFFFFFFFFFFFFFFFFFFFFFFFFFFFF AND PUSH2 0x8FC CALLVALUE SWAP1 DUP2 ISZERO MUL SWAP1 PUSH1 0x40 MLOAD PUSH1 0x0 PUSH1 0x40 MLOAD DUP1 DUP4 SUB DUP2 DUP6 DUP9 DUP9 CALL SWAP4 POP POP POP POP ISZERO DUP1 ISZERO PUSH2 0xB1B JUMPI RETURNDATASIZE PUSH1 0x0 DUP1 RETURNDATACOPY RETURNDATASIZE PUSH1 0x0 REVERT JUMPDEST POP PUSH1 0x2 PUSH1 0x40 MLOAD DUP1 PUSH1 0x80 ADD PUSH1 0x40 MSTORE DUP1 TIMESTAMP DUP2 MSTORE PUSH1 0x20 ADD DUP6 DUP2 MSTORE PUSH1 0x20 ADD DUP4 DUP2 MSTORE PUSH1 0x20 ADD DUP5 PUSH20 0xFFFFFFFFFFFFFFFFFFFFFFFFFFFFFFFFFFFFFFFF AND DUP2 MSTORE POP SWAP1 DUP1 PUSH1 0x1 DUP2 SLOAD ADD DUP1 DUP3 SSTORE DUP1 SWAP2 POP POP PUSH1 0x1 SWAP1 SUB SWAP1 PUSH1 0x0 MSTORE PUSH1 0x20 PUSH1 0x0 KECCAK256 SWAP1 PUSH1 0x4 MUL ADD PUSH1 0x0 SWAP1 SWAP2 SWAP1 SWAP2 SWAP1 SWAP2 POP PUSH1 0x0 DUP3 ADD MLOAD DUP2 PUSH1 0x0 ADD SSTORE PUSH1 0x20 DUP3 ADD MLOAD DUP2 PUSH1 0x1 ADD SWAP1 DUP2 PUSH2 0xB9D SWAP2 SWAP1 PUSH2 0x45B8 JUMP JUMPDEST POP PUSH1 0x40 DUP3 ADD MLOAD DUP2 PUSH1 0x2 ADD SWAP1 DUP2 PUSH2 0xBB3 SWAP2 SWAP1 PUSH2 0x45B8 JUMP JUMPDEST POP PUSH1 0x60 DUP3 ADD MLOAD DUP2 PUSH1 0x3 ADD PUSH1 0x0 PUSH2 0x100 EXP DUP2 SLOAD DUP2 PUSH20 0xFFFFFFFFFFFFFFFFFFFFFFFFFFFFFFFFFFFFFFFF MUL NOT AND SWAP1 DUP4 PUSH20 0xFFFFFFFFFFFFFFFFFFFFFFFFFFFFFFFFFFFFFFFF AND MUL OR SWAP1 SSTORE POP POP POP PUSH1 0x0 JUMPDEST PUSH1 0x1 DUP1 SLOAD SWAP1 POP DUP2 LT ISZERO PUSH2 0xCF1 JUMPI PUSH1 0x1 DUP2 DUP2 SLOAD DUP2 LT PUSH2 0xC21 JUMPI PUSH2 0xC20 PUSH2 0x3F3C JUMP JUMPDEST JUMPDEST SWAP1 PUSH1 0x0 MSTORE PUSH1 0x20 PUSH1 0x0 KECCAK256 SWAP1 PUSH1 0x9 MUL ADD PUSH1 0x3 ADD PUSH1 0x0 SWAP1 SLOAD SWAP1 PUSH2 0x100 EXP SWAP1 DIV PUSH20 0xFFFFFFFFFFFFFFFFFFFFFFFFFFFFFFFFFFFFFFFF AND PUSH20 0xFFFFFFFFFFFFFFFFFFFFFFFFFFFFFFFFFFFFFFFF AND DUP4 PUSH20 0xFFFFFFFFFFFFFFFFFFFFFFFFFFFFFFFFFFFFFFFF AND SUB PUSH2 0xCDE JUMPI PUSH1 0x1 DUP2 DUP2 SLOAD DUP2 LT PUSH2 0xC99 JUMPI PUSH2 0xC98 PUSH2 0x3F3C JUMP JUMPDEST JUMPDEST SWAP1 PUSH1 0x0 MSTORE PUSH1 0x20 PUSH1 0x0 KECCAK256 SWAP1 PUSH1 0x9 MUL ADD PUSH1 0x6 ADD DUP3 SWAP1 DUP1 PUSH1 0x1 DUP2 SLOAD ADD DUP1 DUP3 SSTORE DUP1 SWAP2 POP POP PUSH1 0x1 SWAP1 SUB SWAP1 PUSH1 0x0 MSTORE PUSH1 0x20 PUSH1 0x0 KECCAK256 ADD PUSH1 0x0 SWAP1 SWAP2 SWAP1 SWAP2 SWAP1 SWAP2 POP SWAP1 DUP2 PUSH2 0xCDC SWAP2 SWAP1 PUSH2 0x45B8 JUMP JUMPDEST POP JUMPDEST DUP1 DUP1 PUSH2 0xCE9 SWAP1 PUSH2 0x3F9A JUMP JUMPDEST SWAP2 POP POP PUSH2 0xC00 JUMP JUMPDEST POP POP POP POP JUMP JUMPDEST PUSH1 0x0 JUMPDEST PUSH1 0x1 DUP1 SLOAD SWAP1 POP DUP2 LT ISZERO PUSH2 0xE2C JUMPI PUSH1 0x1 DUP2 DUP2 SLOAD DUP2 LT PUSH2 0xD1B JUMPI PUSH2 0xD1A PUSH2 0x3F3C JUMP JUMPDEST JUMPDEST SWAP1 PUSH1 0x0 MSTORE PUSH1 0x20 PUSH1 0x0 KECCAK256 SWAP1 PUSH1 0x9 MUL ADD PUSH1 0x3 ADD PUSH1 0x0 SWAP1 SLOAD SWAP1 PUSH2 0x100 EXP SWAP1 DIV PUSH20 0xFFFFFFFFFFFFFFFFFFFFFFFFFFFFFFFFFFFFFFFF AND PUSH20 0xFFFFFFFFFFFFFFFFFFFFFFFFFFFFFFFFFFFFFFFF AND DUP6 PUSH20 0xFFFFFFFFFFFFFFFFFFFFFFFFFFFFFFFFFFFFFFFF AND SUB PUSH2 0xE19 JUMPI DUP4 PUSH1 0x1 DUP3 DUP2 SLOAD DUP2 LT PUSH2 0xD94 JUMPI PUSH2 0xD93 PUSH2 0x3F3C JUMP JUMPDEST JUMPDEST SWAP1 PUSH1 0x0 MSTORE PUSH1 0x20 PUSH1 0x0 KECCAK256 SWAP1 PUSH1 0x9 MUL ADD PUSH1 0x0 ADD SWAP1 DUP2 PUSH2 0xDB1 SWAP2 SWAP1 PUSH2 0x45B8 JUMP JUMPDEST POP DUP3 PUSH1 0x1 DUP3 DUP2 SLOAD DUP2 LT PUSH2 0xDC7 JUMPI PUSH2 0xDC6 PUSH2 0x3F3C JUMP JUMPDEST JUMPDEST SWAP1 PUSH1 0x0 MSTORE PUSH1 0x20 PUSH1 0x0 KECCAK256 SWAP1 PUSH1 0x9 MUL ADD PUSH1 0x1 ADD SWAP1 DUP2 PUSH2 0xDE4 SWAP2 SWAP1 PUSH2 0x45B8 JUMP JUMPDEST POP DUP2 PUSH1 0x1 DUP3 DUP2 SLOAD DUP2 LT PUSH2 0xDFA JUMPI PUSH2 0xDF9 PUSH2 0x3F3C JUMP JUMPDEST JUMPDEST SWAP1 PUSH1 0x0 MSTORE PUSH1 0x20 PUSH1 0x0 KECCAK256 SWAP1 PUSH1 0x9 MUL ADD PUSH1 0x5 ADD SWAP1 DUP2 PUSH2 0xE17 SWAP2 SWAP1 PUSH2 0x45B8 JUMP JUMPDEST POP JUMPDEST DUP1 DUP1 PUSH2 0xE24 SWAP1 PUSH2 0x3F9A JUMP JUMPDEST SWAP2 POP POP PUSH2 0xCFA JUMP JUMPDEST POP POP POP POP POP JUMP JUMPDEST PUSH1 0x60 PUSH1 0x2 DUP1 SLOAD DUP1 PUSH1 0x20 MUL PUSH1 0x20 ADD PUSH1 0x40 MLOAD SWAP1 DUP2 ADD PUSH1 0x40 MSTORE DUP1 SWAP3 SWAP2 SWAP1 DUP2 DUP2 MSTORE PUSH1 0x20 ADD PUSH1 0x0 SWAP1 JUMPDEST DUP3 DUP3 LT ISZERO PUSH2 0x100D JUMPI DUP4 DUP3 SWAP1 PUSH1 0x0 MSTORE PUSH1 0x20 PUSH1 0x0 KECCAK256 SWAP1 PUSH1 0x4 MUL ADD PUSH1 0x40 MLOAD DUP1 PUSH1 0x80 ADD PUSH1 0x40 MSTORE SWAP1 DUP2 PUSH1 0x0 DUP3 ADD SLOAD DUP2 MSTORE PUSH1 0x20 ADD PUSH1 0x1 DUP3 ADD DUP1 SLOAD PUSH2 0xE94 SWAP1 PUSH2 0x4079 JUMP JUMPDEST DUP1 PUSH1 0x1F ADD PUSH1 0x20 DUP1 SWAP2 DIV MUL PUSH1 0x20 ADD PUSH1 0x40 MLOAD SWAP1 DUP2 ADD PUSH1 0x40 MSTORE DUP1 SWAP3 SWAP2 SWAP1 DUP2 DUP2 MSTORE PUSH1 0x20 ADD DUP3 DUP1 SLOAD PUSH2 0xEC0 SWAP1 PUSH2 0x4079 JUMP JUMPDEST DUP1 ISZERO PUSH2 0xF0D JUMPI DUP1 PUSH1 0x1F LT PUSH2 0xEE2 JUMPI PUSH2 0x100 DUP1 DUP4 SLOAD DIV MUL DUP4 MSTORE SWAP2 PUSH1 0x20 ADD SWAP2 PUSH2 0xF0D JUMP JUMPDEST DUP3 ADD SWAP2 SWAP1 PUSH1 0x0 MSTORE PUSH1 0x20 PUSH1 0x0 KECCAK256 SWAP1 JUMPDEST DUP2 SLOAD DUP2 MSTORE SWAP1 PUSH1 0x1 ADD SWAP1 PUSH1 0x20 ADD DUP1 DUP4 GT PUSH2 0xEF0 JUMPI DUP3 SWAP1 SUB PUSH1 0x1F AND DUP3 ADD SWAP2 JUMPDEST POP POP POP POP POP DUP2 MSTORE PUSH1 0x20 ADD PUSH1 0x2 DUP3 ADD DUP1 SLOAD PUSH2 0xF26 SWAP1 PUSH2 0x4079 JUMP JUMPDEST DUP1 PUSH1 0x1F ADD PUSH1 0x20 DUP1 SWAP2 DIV MUL PUSH1 0x20 ADD PUSH1 0x40 MLOAD SWAP1 DUP2 ADD PUSH1 0x40 MSTORE DUP1 SWAP3 SWAP2 SWAP1 DUP2 DUP2 MSTORE PUSH1 0x20 ADD DUP3 DUP1 SLOAD PUSH2 0xF52 SWAP1 PUSH2 0x4079 JUMP JUMPDEST DUP1 ISZERO PUSH2 0xF9F JUMPI DUP1 PUSH1 0x1F LT PUSH2 0xF74 JUMPI PUSH2 0x100 DUP1 DUP4 SLOAD DIV MUL DUP4 MSTORE SWAP2 PUSH1 0x20 ADD SWAP2 PUSH2 0xF9F JUMP JUMPDEST DUP3 ADD SWAP2 SWAP1 PUSH1 0x0 MSTORE PUSH1 0x20 PUSH1 0x0 KECCAK256 SWAP1 JUMPDEST DUP2 SLOAD DUP2 MSTORE SWAP1 PUSH1 0x1 ADD SWAP1 PUSH1 0x20 ADD DUP1 DUP4 GT PUSH2 0xF82 JUMPI DUP3 SWAP1 SUB PUSH1 0x1F AND DUP3 ADD SWAP2 JUMPDEST POP POP POP POP POP DUP2 MSTORE PUSH1 0x20 ADD PUSH1 0x3 DUP3 ADD PUSH1 0x0 SWAP1 SLOAD SWAP1 PUSH2 0x100 EXP SWAP1 DIV PUSH20 0xFFFFFFFFFFFFFFFFFFFFFFFFFFFFFFFFFFFFFFFF AND PUSH20 0xFFFFFFFFFFFFFFFFFFFFFFFFFFFFFFFFFFFFFFFF AND PUSH20 0xFFFFFFFFFFFFFFFFFFFFFFFFFFFFFFFFFFFFFFFF AND DUP2 MSTORE POP POP DUP2 MSTORE PUSH1 0x20 ADD SWAP1 PUSH1 0x1 ADD SWAP1 PUSH2 0xE57 JUMP JUMPDEST POP POP POP POP SWAP1 POP SWAP1 JUMP JUMPDEST PUSH1 0x1 CALLVALUE GT PUSH2 0x1059 JUMPI PUSH1 0x40 MLOAD PUSH32 0x8C379A000000000000000000000000000000000000000000000000000000000 DUP2 MSTORE PUSH1 0x4 ADD PUSH2 0x1050 SWAP1 PUSH2 0x4598 JUMP JUMPDEST PUSH1 0x40 MLOAD DUP1 SWAP2 SUB SWAP1 REVERT JUMPDEST PUSH1 0x0 DUP1 SLOAD SWAP1 PUSH2 0x100 EXP SWAP1 DIV PUSH20 0xFFFFFFFFFFFFFFFFFFFFFFFFFFFFFFFFFFFFFFFF AND PUSH20 0xFFFFFFFFFFFFFFFFFFFFFFFFFFFFFFFFFFFFFFFF AND PUSH2 0x8FC CALLVALUE SWAP1 DUP2 ISZERO MUL SWAP1 PUSH1 0x40 MLOAD PUSH1 0x0 PUSH1 0x40 MLOAD DUP1 DUP4 SUB DUP2 DUP6 DUP9 DUP9 CALL SWAP4 POP POP POP POP ISZERO DUP1 ISZERO PUSH2 0x10BF JUMPI RETURNDATASIZE PUSH1 0x0 DUP1 RETURNDATACOPY RETURNDATASIZE PUSH1 0x0 REVERT JUMPDEST POP PUSH1 0x3 PUSH1 0x40 MLOAD DUP1 PUSH1 0x60 ADD PUSH1 0x40 MSTORE DUP1 TIMESTAMP DUP2 MSTORE PUSH1 0x20 ADD DUP5 DUP2 MSTORE PUSH1 0x20 ADD DUP4 PUSH20 0xFFFFFFFFFFFFFFFFFFFFFFFFFFFFFFFFFFFFFFFF AND DUP2 MSTORE POP SWAP1 DUP1 PUSH1 0x1 DUP2 SLOAD ADD DUP1 DUP3 SSTORE DUP1 SWAP2 POP POP PUSH1 0x1 SWAP1 SUB SWAP1 PUSH1 0x0 MSTORE PUSH1 0x20 PUSH1 0x0 KECCAK256 SWAP1 PUSH1 0x3 MUL ADD PUSH1 0x0 SWAP1 SWAP2 SWAP1 SWAP2 SWAP1 SWAP2 POP PUSH1 0x0 DUP3 ADD MLOAD DUP2 PUSH1 0x0 ADD SSTORE PUSH1 0x20 DUP3 ADD MLOAD DUP2 PUSH1 0x1 ADD SWAP1 DUP2 PUSH2 0x113B SWAP2 SWAP1 PUSH2 0x45B8 JUMP JUMPDEST POP PUSH1 0x40 DUP3 ADD MLOAD DUP2 PUSH1 0x2 ADD PUSH1 0x0 PUSH2 0x100 EXP DUP2 SLOAD DUP2 PUSH20 0xFFFFFFFFFFFFFFFFFFFFFFFFFFFFFFFFFFFFFFFF MUL NOT AND SWAP1 DUP4 PUSH20 0xFFFFFFFFFFFFFFFFFFFFFFFFFFFFFFFFFFFFFFFF AND MUL OR SWAP1 SSTORE POP POP POP PUSH1 0x0 JUMPDEST PUSH1 0x1 DUP1 SLOAD SWAP1 POP DUP2 LT ISZERO PUSH2 0x1279 JUMPI PUSH1 0x1 DUP2 DUP2 SLOAD DUP2 LT PUSH2 0x11A9 JUMPI PUSH2 0x11A8 PUSH2 0x3F3C JUMP JUMPDEST JUMPDEST SWAP1 PUSH1 0x0 MSTORE PUSH1 0x20 PUSH1 0x0 KECCAK256 SWAP1 PUSH1 0x9 MUL ADD PUSH1 0x3 ADD PUSH1 0x0 SWAP1 SLOAD SWAP1 PUSH2 0x100 EXP SWAP1 DIV PUSH20 0xFFFFFFFFFFFFFFFFFFFFFFFFFFFFFFFFFFFFFFFF AND PUSH20 0xFFFFFFFFFFFFFFFFFFFFFFFFFFFFFFFFFFFFFFFF AND DUP3 PUSH20 0xFFFFFFFFFFFFFFFFFFFFFFFFFFFFFFFFFFFFFFFF AND SUB PUSH2 0x1266 JUMPI PUSH1 0x1 DUP2 DUP2 SLOAD DUP2 LT PUSH2 0x1221 JUMPI PUSH2 0x1220 PUSH2 0x3F3C JUMP JUMPDEST JUMPDEST SWAP1 PUSH1 0x0 MSTORE PUSH1 0x20 PUSH1 0x0 KECCAK256 SWAP1 PUSH1 0x9 MUL ADD PUSH1 0x7 ADD DUP4 SWAP1 DUP1 PUSH1 0x1 DUP2 SLOAD ADD DUP1 DUP3 SSTORE DUP1 SWAP2 POP POP PUSH1 0x1 SWAP1 SUB SWAP1 PUSH1 0x0 MSTORE PUSH1 0x20 PUSH1 0x0 KECCAK256 ADD PUSH1 0x0 SWAP1 SWAP2 SWAP1 SWAP2 SWAP1 SWAP2 POP SWAP1 DUP2 PUSH2 0x1264 SWAP2 SWAP1 PUSH2 0x45B8 JUMP JUMPDEST POP JUMPDEST DUP1 DUP1 PUSH2 0x1271 SWAP1 PUSH2 0x3F9A JUMP JUMPDEST SWAP2 POP POP PUSH2 0x1188 JUMP JUMPDEST POP POP POP JUMP JUMPDEST PUSH1 0x0 PUSH2 0x1289 DUP4 PUSH2 0x24E2 JUMP JUMPDEST PUSH2 0x12C8 JUMPI PUSH1 0x40 MLOAD PUSH32 0x8C379A000000000000000000000000000000000000000000000000000000000 DUP2 MSTORE PUSH1 0x4 ADD PUSH2 0x12BF SWAP1 PUSH2 0x46D6 JUMP JUMPDEST PUSH1 0x40 MLOAD DUP1 SWAP2 SUB SWAP1 REVERT JUMPDEST PUSH1 0x0 JUMPDEST PUSH1 0x1 DUP1 SLOAD SWAP1 POP DUP2 LT ISZERO PUSH2 0x13E9 JUMPI DUP4 PUSH20 0xFFFFFFFFFFFFFFFFFFFFFFFFFFFFFFFFFFFFFFFF AND PUSH1 0x1 DUP3 DUP2 SLOAD DUP2 LT PUSH2 0x1303 JUMPI PUSH2 0x1302 PUSH2 0x3F3C JUMP JUMPDEST JUMPDEST SWAP1 PUSH1 0x0 MSTORE PUSH1 0x20 PUSH1 0x0 KECCAK256 SWAP1 PUSH1 0x9 MUL ADD PUSH1 0x3 ADD PUSH1 0x0 SWAP1 SLOAD SWAP1 PUSH2 0x100 EXP SWAP1 DIV PUSH20 0xFFFFFFFFFFFFFFFFFFFFFFFFFFFFFFFFFFFFFFFF AND PUSH20 0xFFFFFFFFFFFFFFFFFFFFFFFFFFFFFFFFFFFFFFFF AND EQ DUP1 ISZERO PUSH2 0x13C7 JUMPI POP DUP3 PUSH1 0x40 MLOAD PUSH1 0x20 ADD PUSH2 0x1364 SWAP2 SWAP1 PUSH2 0x4727 JUMP JUMPDEST PUSH1 0x40 MLOAD PUSH1 0x20 DUP2 DUP4 SUB SUB DUP2 MSTORE SWAP1 PUSH1 0x40 MSTORE DUP1 MLOAD SWAP1 PUSH1 0x20 ADD KECCAK256 PUSH1 0x1 DUP3 DUP2 SLOAD DUP2 LT PUSH2 0x138E JUMPI PUSH2 0x138D PUSH2 0x3F3C JUMP JUMPDEST JUMPDEST SWAP1 PUSH1 0x0 MSTORE PUSH1 0x20 PUSH1 0x0 KECCAK256 SWAP1 PUSH1 0x9 MUL ADD PUSH1 0x5 ADD PUSH1 0x40 MLOAD PUSH1 0x20 ADD PUSH2 0x13AF SWAP2 SWAP1 PUSH2 0x4426 JUMP JUMPDEST PUSH1 0x40 MLOAD PUSH1 0x20 DUP2 DUP4 SUB SUB DUP2 MSTORE SWAP1 PUSH1 0x40 MSTORE DUP1 MLOAD SWAP1 PUSH1 0x20 ADD KECCAK256 EQ JUMPDEST ISZERO PUSH2 0x13D6 JUMPI PUSH1 0x1 SWAP2 POP POP PUSH2 0x13EF JUMP JUMPDEST DUP1 DUP1 PUSH2 0x13E1 SWAP1 PUSH2 0x3F9A JUMP JUMPDEST SWAP2 POP POP PUSH2 0x12CB JUMP JUMPDEST POP PUSH1 0x0 SWAP1 POP JUMPDEST SWAP3 SWAP2 POP POP JUMP JUMPDEST PUSH1 0x0 DUP1 SLOAD SWAP1 PUSH2 0x100 EXP SWAP1 DIV PUSH20 0xFFFFFFFFFFFFFFFFFFFFFFFFFFFFFFFFFFFFFFFF AND PUSH20 0xFFFFFFFFFFFFFFFFFFFFFFFFFFFFFFFFFFFFFFFF AND CALLER PUSH20 0xFFFFFFFFFFFFFFFFFFFFFFFFFFFFFFFFFFFFFFFF AND EQ PUSH2 0x144D JUMPI PUSH1 0x0 DUP1 REVERT JUMPDEST PUSH2 0x1456 DUP2 PUSH2 0x24E2 JUMP JUMPDEST PUSH2 0x1495 JUMPI PUSH1 0x40 MLOAD PUSH32 0x8C379A000000000000000000000000000000000000000000000000000000000 DUP2 MSTORE PUSH1 0x4 ADD PUSH2 0x148C SWAP1 PUSH2 0x46D6 JUMP JUMPDEST PUSH1 0x40 MLOAD DUP1 SWAP2 SUB SWAP1 REVERT JUMPDEST PUSH1 0x0 DUP1 PUSH1 0x0 SWAP1 POP JUMPDEST PUSH1 0x1 DUP1 SLOAD SWAP1 POP DUP2 LT ISZERO PUSH2 0x1539 JUMPI PUSH1 0x1 DUP2 DUP2 SLOAD DUP2 LT PUSH2 0x14BE JUMPI PUSH2 0x14BD PUSH2 0x3F3C JUMP JUMPDEST JUMPDEST SWAP1 PUSH1 0x0 MSTORE PUSH1 0x20 PUSH1 0x0 KECCAK256 SWAP1 PUSH1 0x9 MUL ADD PUSH1 0x3 ADD PUSH1 0x0 SWAP1 SLOAD SWAP1 PUSH2 0x100 EXP SWAP1 DIV PUSH20 0xFFFFFFFFFFFFFFFFFFFFFFFFFFFFFFFFFFFFFFFF AND PUSH20 0xFFFFFFFFFFFFFFFFFFFFFFFFFFFFFFFFFFFFFFFF AND DUP4 PUSH20 0xFFFFFFFFFFFFFFFFFFFFFFFFFFFFFFFFFFFFFFFF AND SUB PUSH2 0x1526 JUMPI DUP1 SWAP2 POP JUMPDEST DUP1 DUP1 PUSH2 0x1531 SWAP1 PUSH2 0x3F9A JUMP JUMPDEST SWAP2 POP POP PUSH2 0x149D JUMP JUMPDEST POP PUSH1 0x0 DUP2 SWAP1 POP JUMPDEST PUSH1 0x1 DUP1 DUP1 SLOAD SWAP1 POP PUSH2 0x1551 SWAP2 SWAP1 PUSH2 0x3FE2 JUMP JUMPDEST DUP2 LT ISZERO PUSH2 0x16C7 JUMPI PUSH1 0x1 DUP1 DUP3 PUSH2 0x1566 SWAP2 SWAP1 PUSH2 0x4016 JUMP JUMPDEST DUP2 SLOAD DUP2 LT PUSH2 0x1577 JUMPI PUSH2 0x1576 PUSH2 0x3F3C JUMP JUMPDEST JUMPDEST SWAP1 PUSH1 0x0 MSTORE PUSH1 0x20 PUSH1 0x0 KECCAK256 SWAP1 PUSH1 0x9 MUL ADD PUSH1 0x1 DUP3 DUP2 SLOAD DUP2 LT PUSH2 0x1599 JUMPI PUSH2 0x1598 PUSH2 0x3F3C JUMP JUMPDEST JUMPDEST SWAP1 PUSH1 0x0 MSTORE PUSH1 0x20 PUSH1 0x0 KECCAK256 SWAP1 PUSH1 0x9 MUL ADD PUSH1 0x0 DUP3 ADD DUP2 PUSH1 0x0 ADD SWAP1 DUP2 PUSH2 0x15BB SWAP2 SWAP1 PUSH2 0x4453 JUMP JUMPDEST POP PUSH1 0x1 DUP3 ADD DUP2 PUSH1 0x1 ADD SWAP1 DUP2 PUSH2 0x15D0 SWAP2 SWAP1 PUSH2 0x4453 JUMP JUMPDEST POP PUSH1 0x2 DUP3 ADD DUP2 PUSH1 0x2 ADD SWAP1 DUP2 PUSH2 0x15E5 SWAP2 SWAP1 PUSH2 0x4453 JUMP JUMPDEST POP PUSH1 0x3 DUP3 ADD PUSH1 0x0 SWAP1 SLOAD SWAP1 PUSH2 0x100 EXP SWAP1 DIV PUSH20 0xFFFFFFFFFFFFFFFFFFFFFFFFFFFFFFFFFFFFFFFF AND DUP2 PUSH1 0x3 ADD PUSH1 0x0 PUSH2 0x100 EXP DUP2 SLOAD DUP2 PUSH20 0xFFFFFFFFFFFFFFFFFFFFFFFFFFFFFFFFFFFFFFFF MUL NOT AND SWAP1 DUP4 PUSH20 0xFFFFFFFFFFFFFFFFFFFFFFFFFFFFFFFFFFFFFFFF AND MUL OR SWAP1 SSTORE POP PUSH1 0x4 DUP3 ADD SLOAD DUP2 PUSH1 0x4 ADD SSTORE PUSH1 0x5 DUP3 ADD DUP2 PUSH1 0x5 ADD SWAP1 DUP2 PUSH2 0x166B SWAP2 SWAP1 PUSH2 0x4453 JUMP JUMPDEST POP PUSH1 0x6 DUP3 ADD DUP2 PUSH1 0x6 ADD SWAP1 DUP1 SLOAD PUSH2 0x1682 SWAP3 SWAP2 SWAP1 PUSH2 0x315F JUMP JUMPDEST POP PUSH1 0x7 DUP3 ADD DUP2 PUSH1 0x7 ADD SWAP1 DUP1 SLOAD PUSH2 0x1699 SWAP3 SWAP2 SWAP1 PUSH2 0x315F JUMP JUMPDEST POP PUSH1 0x8 DUP3 ADD DUP2 PUSH1 0x8 ADD SWAP1 DUP1 SLOAD PUSH2 0x16B0 SWAP3 SWAP2 SWAP1 PUSH2 0x315F JUMP JUMPDEST POP SWAP1 POP POP DUP1 DUP1 PUSH2 0x16BF SWAP1 PUSH2 0x3F9A JUMP JUMPDEST SWAP2 POP POP PUSH2 0x1540 JUMP JUMPDEST POP PUSH1 0x1 DUP1 DUP1 DUP1 SLOAD SWAP1 POP PUSH2 0x16DA SWAP2 SWAP1 PUSH2 0x3FE2 JUMP JUMPDEST DUP2 SLOAD DUP2 LT PUSH2 0x16EB JUMPI PUSH2 0x16EA PUSH2 0x3F3C JUMP JUMPDEST JUMPDEST SWAP1 PUSH1 0x0 MSTORE PUSH1 0x20 PUSH1 0x0 KECCAK256 SWAP1 PUSH1 0x9 MUL ADD PUSH1 0x0 DUP1 DUP3 ADD PUSH1 0x0 PUSH2 0x170A SWAP2 SWAP1 PUSH2 0x311F JUMP JUMPDEST PUSH1 0x1 DUP3 ADD PUSH1 0x0 PUSH2 0x171A SWAP2 SWAP1 PUSH2 0x311F JUMP JUMPDEST PUSH1 0x2 DUP3 ADD PUSH1 0x0 PUSH2 0x172A SWAP2 SWAP1 PUSH2 0x311F JUMP JUMPDEST PUSH1 0x3 DUP3 ADD PUSH1 0x0 PUSH2 0x100 EXP DUP2 SLOAD SWAP1 PUSH20 0xFFFFFFFFFFFFFFFFFFFFFFFFFFFFFFFFFFFFFFFF MUL NOT AND SWAP1 SSTORE PUSH1 0x4 DUP3 ADD PUSH1 0x0 SWAP1 SSTORE PUSH1 0x5 DUP3 ADD PUSH1 0x0 PUSH2 0x1769 SWAP2 SWAP1 PUSH2 0x311F JUMP JUMPDEST PUSH1 0x6 DUP3 ADD PUSH1 0x0 PUSH2 0x1779 SWAP2 SWAP1 PUSH2 0x31BC JUMP JUMPDEST PUSH1 0x7 DUP3 ADD PUSH1 0x0 PUSH2 0x1789 SWAP2 SWAP1 PUSH2 0x31BC JUMP JUMPDEST PUSH1 0x8 DUP3 ADD PUSH1 0x0 PUSH2 0x1799 SWAP2 SWAP1 PUSH2 0x31BC JUMP JUMPDEST POP POP PUSH1 0x1 DUP1 SLOAD DUP1 PUSH2 0x17AD JUMPI PUSH2 0x17AC PUSH2 0x4369 JUMP JUMPDEST JUMPDEST PUSH1 0x1 SWAP1 SUB DUP2 DUP2 SWAP1 PUSH1 0x0 MSTORE PUSH1 0x20 PUSH1 0x0 KECCAK256 SWAP1 PUSH1 0x9 MUL ADD PUSH1 0x0 DUP1 DUP3 ADD PUSH1 0x0 PUSH2 0x17D2 SWAP2 SWAP1 PUSH2 0x311F JUMP JUMPDEST PUSH1 0x1 DUP3 ADD PUSH1 0x0 PUSH2 0x17E2 SWAP2 SWAP1 PUSH2 0x311F JUMP JUMPDEST PUSH1 0x2 DUP3 ADD PUSH1 0x0 PUSH2 0x17F2 SWAP2 SWAP1 PUSH2 0x311F JUMP JUMPDEST PUSH1 0x3 DUP3 ADD PUSH1 0x0 PUSH2 0x100 EXP DUP2 SLOAD SWAP1 PUSH20 0xFFFFFFFFFFFFFFFFFFFFFFFFFFFFFFFFFFFFFFFF MUL NOT AND SWAP1 SSTORE PUSH1 0x4 DUP3 ADD PUSH1 0x0 SWAP1 SSTORE PUSH1 0x5 DUP3 ADD PUSH1 0x0 PUSH2 0x1831 SWAP2 SWAP1 PUSH2 0x311F JUMP JUMPDEST PUSH1 0x6 DUP3 ADD PUSH1 0x0 PUSH2 0x1841 SWAP2 SWAP1 PUSH2 0x31BC JUMP JUMPDEST PUSH1 0x7 DUP3 ADD PUSH1 0x0 PUSH2 0x1851 SWAP2 SWAP1 PUSH2 0x31BC JUMP JUMPDEST PUSH1 0x8 DUP3 ADD PUSH1 0x0 PUSH2 0x1861 SWAP2 SWAP1 PUSH2 0x31BC JUMP JUMPDEST POP POP SWAP1 SSTORE POP POP JUMP JUMPDEST PUSH1 0x0 DUP1 PUSH1 0x0 JUMPDEST PUSH1 0x1 DUP1 SLOAD SWAP1 POP DUP2 LT ISZERO PUSH2 0x1970 JUMPI PUSH1 0x0 JUMPDEST PUSH1 0x1 DUP3 DUP2 SLOAD DUP2 LT PUSH2 0x1893 JUMPI PUSH2 0x1892 PUSH2 0x3F3C JUMP JUMPDEST JUMPDEST SWAP1 PUSH1 0x0 MSTORE PUSH1 0x20 PUSH1 0x0 KECCAK256 SWAP1 PUSH1 0x9 MUL ADD PUSH1 0x6 ADD DUP1 SLOAD SWAP1 POP DUP2 LT ISZERO PUSH2 0x195C JUMPI PUSH1 0x1 DUP3 DUP2 SLOAD DUP2 LT PUSH2 0x18C3 JUMPI PUSH2 0x18C2 PUSH2 0x3F3C JUMP JUMPDEST JUMPDEST SWAP1 PUSH1 0x0 MSTORE PUSH1 0x20 PUSH1 0x0 KECCAK256 SWAP1 PUSH1 0x9 MUL ADD PUSH1 0x6 ADD DUP2 DUP2 SLOAD DUP2 LT PUSH2 0x18E6 JUMPI PUSH2 0x18E5 PUSH2 0x3F3C JUMP JUMPDEST JUMPDEST SWAP1 PUSH1 0x0 MSTORE PUSH1 0x20 PUSH1 0x0 KECCAK256 ADD PUSH1 0x40 MLOAD PUSH1 0x20 ADD PUSH2 0x1900 SWAP2 SWAP1 PUSH2 0x4426 JUMP JUMPDEST PUSH1 0x40 MLOAD PUSH1 0x20 DUP2 DUP4 SUB SUB DUP2 MSTORE SWAP1 PUSH1 0x40 MSTORE DUP1 MLOAD SWAP1 PUSH1 0x20 ADD KECCAK256 DUP6 PUSH1 0x40 MLOAD PUSH1 0x20 ADD PUSH2 0x1927 SWAP2 SWAP1 PUSH2 0x4727 JUMP JUMPDEST PUSH1 0x40 MLOAD PUSH1 0x20 DUP2 DUP4 SUB SUB DUP2 MSTORE SWAP1 PUSH1 0x40 MSTORE DUP1 MLOAD SWAP1 PUSH1 0x20 ADD KECCAK256 SUB PUSH2 0x1949 JUMPI DUP2 SWAP4 POP DUP1 SWAP3 POP JUMPDEST DUP1 DUP1 PUSH2 0x1954 SWAP1 PUSH2 0x3F9A JUMP JUMPDEST SWAP2 POP POP PUSH2 0x187F JUMP JUMPDEST POP DUP1 DUP1 PUSH2 0x1968 SWAP1 PUSH2 0x3F9A JUMP JUMPDEST SWAP2 POP POP PUSH2 0x186F JUMP JUMPDEST POP PUSH1 0x0 DUP2 SWAP1 POP JUMPDEST PUSH1 0x1 DUP1 DUP5 DUP2 SLOAD DUP2 LT PUSH2 0x198C JUMPI PUSH2 0x198B PUSH2 0x3F3C JUMP JUMPDEST JUMPDEST SWAP1 PUSH1 0x0 MSTORE PUSH1 0x20 PUSH1 0x0 KECCAK256 SWAP1 PUSH1 0x9 MUL ADD PUSH1 0x6 ADD DUP1 SLOAD SWAP1 POP PUSH2 0x19AB SWAP2 SWAP1 PUSH2 0x3FE2 JUMP JUMPDEST DUP2 LT ISZERO PUSH2 0x1A60 JUMPI PUSH1 0x1 DUP4 DUP2 SLOAD DUP2 LT PUSH2 0x19C6 JUMPI PUSH2 0x19C5 PUSH2 0x3F3C JUMP JUMPDEST JUMPDEST SWAP1 PUSH1 0x0 MSTORE PUSH1 0x20 PUSH1 0x0 KECCAK256 SWAP1 PUSH1 0x9 MUL ADD PUSH1 0x6 ADD PUSH1 0x1 DUP3 PUSH2 0x19E4 SWAP2 SWAP1 PUSH2 0x4016 JUMP JUMPDEST DUP2 SLOAD DUP2 LT PUSH2 0x19F5 JUMPI PUSH2 0x19F4 PUSH2 0x3F3C JUMP JUMPDEST JUMPDEST SWAP1 PUSH1 0x0 MSTORE PUSH1 0x20 PUSH1 0x0 KECCAK256 ADD PUSH1 0x1 DUP5 DUP2 SLOAD DUP2 LT PUSH2 0x1A13 JUMPI PUSH2 0x1A12 PUSH2 0x3F3C JUMP JUMPDEST JUMPDEST SWAP1 PUSH1 0x0 MSTORE PUSH1 0x20 PUSH1 0x0 KECCAK256 SWAP1 PUSH1 0x9 MUL ADD PUSH1 0x6 ADD DUP3 DUP2 SLOAD DUP2 LT PUSH2 0x1A36 JUMPI PUSH2 0x1A35 PUSH2 0x3F3C JUMP JUMPDEST JUMPDEST SWAP1 PUSH1 0x0 MSTORE PUSH1 0x20 PUSH1 0x0 KECCAK256 ADD SWAP1 DUP2 PUSH2 0x1A4C SWAP2 SWAP1 PUSH2 0x4281 JUMP JUMPDEST POP DUP1 DUP1 PUSH2 0x1A58 SWAP1 PUSH2 0x3F9A JUMP JUMPDEST SWAP2 POP POP PUSH2 0x1977 JUMP JUMPDEST POP PUSH1 0x1 DUP3 DUP2 SLOAD DUP2 LT PUSH2 0x1A75 JUMPI PUSH2 0x1A74 PUSH2 0x3F3C JUMP JUMPDEST JUMPDEST SWAP1 PUSH1 0x0 MSTORE PUSH1 0x20 PUSH1 0x0 KECCAK256 SWAP1 PUSH1 0x9 MUL ADD PUSH1 0x6 ADD PUSH1 0x1 DUP1 DUP5 DUP2 SLOAD DUP2 LT PUSH2 0x1A9B JUMPI PUSH2 0x1A9A PUSH2 0x3F3C JUMP JUMPDEST JUMPDEST SWAP1 PUSH1 0x0 MSTORE PUSH1 0x20 PUSH1 0x0 KECCAK256 SWAP1 PUSH1 0x9 MUL ADD PUSH1 0x6 ADD DUP1 SLOAD SWAP1 POP PUSH2 0x1ABA SWAP2 SWAP1 PUSH2 0x3FE2 JUMP JUMPDEST DUP2 SLOAD DUP2 LT PUSH2 0x1ACB JUMPI PUSH2 0x1ACA PUSH2 0x3F3C JUMP JUMPDEST JUMPDEST SWAP1 PUSH1 0x0 MSTORE PUSH1 0x20 PUSH1 0x0 KECCAK256 ADD PUSH1 0x0 PUSH2 0x1AE1 SWAP2 SWAP1 PUSH2 0x311F JUMP JUMPDEST PUSH1 0x1 DUP3 DUP2 SLOAD DUP2 LT PUSH2 0x1AF5 JUMPI PUSH2 0x1AF4 PUSH2 0x3F3C JUMP JUMPDEST JUMPDEST SWAP1 PUSH1 0x0 MSTORE PUSH1 0x20 PUSH1 0x0 KECCAK256 SWAP1 PUSH1 0x9 MUL ADD PUSH1 0x6 ADD DUP1 SLOAD DUP1 PUSH2 0x1B16 JUMPI PUSH2 0x1B15 PUSH2 0x4369 JUMP JUMPDEST JUMPDEST PUSH1 0x1 SWAP1 SUB DUP2 DUP2 SWAP1 PUSH1 0x0 MSTORE PUSH1 0x20 PUSH1 0x0 KECCAK256 ADD PUSH1 0x0 PUSH2 0x1B32 SWAP2 SWAP1 PUSH2 0x311F JUMP JUMPDEST SWAP1 SSTORE PUSH1 0x0 DUP1 PUSH1 0x0 SWAP1 POP JUMPDEST PUSH1 0x2 DUP1 SLOAD SWAP1 POP DUP2 LT ISZERO PUSH2 0x1BD7 JUMPI DUP5 PUSH1 0x40 MLOAD PUSH1 0x20 ADD PUSH2 0x1B5A SWAP2 SWAP1 PUSH2 0x4727 JUMP JUMPDEST PUSH1 0x40 MLOAD PUSH1 0x20 DUP2 DUP4 SUB SUB DUP2 MSTORE SWAP1 PUSH1 0x40 MSTORE DUP1 MLOAD SWAP1 PUSH1 0x20 ADD KECCAK256 PUSH1 0x2 DUP3 DUP2 SLOAD DUP2 LT PUSH2 0x1B84 JUMPI PUSH2 0x1B83 PUSH2 0x3F3C JUMP JUMPDEST JUMPDEST SWAP1 PUSH1 0x0 MSTORE PUSH1 0x20 PUSH1 0x0 KECCAK256 SWAP1 PUSH1 0x4 MUL ADD PUSH1 0x1 ADD PUSH1 0x40 MLOAD PUSH1 0x20 ADD PUSH2 0x1BA5 SWAP2 SWAP1 PUSH2 0x4426 JUMP JUMPDEST PUSH1 0x40 MLOAD PUSH1 0x20 DUP2 DUP4 SUB SUB DUP2 MSTORE SWAP1 PUSH1 0x40 MSTORE DUP1 MLOAD SWAP1 PUSH1 0x20 ADD KECCAK256 SUB PUSH2 0x1BC4 JUMPI DUP1 SWAP2 POP JUMPDEST DUP1 DUP1 PUSH2 0x1BCF SWAP1 PUSH2 0x3F9A JUMP JUMPDEST SWAP2 POP POP PUSH2 0x1B3C JUMP JUMPDEST POP PUSH1 0x0 DUP2 SWAP1 POP JUMPDEST PUSH1 0x1 PUSH1 0x2 DUP1 SLOAD SWAP1 POP PUSH2 0x1BF0 SWAP2 SWAP1 PUSH2 0x3FE2 JUMP JUMPDEST DUP2 LT ISZERO PUSH2 0x1CF8 JUMPI PUSH1 0x2 PUSH1 0x1 DUP3 PUSH2 0x1C06 SWAP2 SWAP1 PUSH2 0x4016 JUMP JUMPDEST DUP2 SLOAD DUP2 LT PUSH2 0x1C17 JUMPI PUSH2 0x1C16 PUSH2 0x3F3C JUMP JUMPDEST JUMPDEST SWAP1 PUSH1 0x0 MSTORE PUSH1 0x20 PUSH1 0x0 KECCAK256 SWAP1 PUSH1 0x4 MUL ADD PUSH1 0x2 DUP3 DUP2 SLOAD DUP2 LT PUSH2 0x1C39 JUMPI PUSH2 0x1C38 PUSH2 0x3F3C JUMP JUMPDEST JUMPDEST SWAP1 PUSH1 0x0 MSTORE PUSH1 0x20 PUSH1 0x0 KECCAK256 SWAP1 PUSH1 0x4 MUL ADD PUSH1 0x0 DUP3 ADD SLOAD DUP2 PUSH1 0x0 ADD SSTORE PUSH1 0x1 DUP3 ADD DUP2 PUSH1 0x1 ADD SWAP1 DUP2 PUSH2 0x1C65 SWAP2 SWAP1 PUSH2 0x4453 JUMP JUMPDEST POP PUSH1 0x2 DUP3 ADD DUP2 PUSH1 0x2 ADD SWAP1 DUP2 PUSH2 0x1C7A SWAP2 SWAP1 PUSH2 0x4453 JUMP JUMPDEST POP PUSH1 0x3 DUP3 ADD PUSH1 0x0 SWAP1 SLOAD SWAP1 PUSH2 0x100 EXP SWAP1 DIV PUSH20 0xFFFFFFFFFFFFFFFFFFFFFFFFFFFFFFFFFFFFFFFF AND DUP2 PUSH1 0x3 ADD PUSH1 0x0 PUSH2 0x100 EXP DUP2 SLOAD DUP2 PUSH20 0xFFFFFFFFFFFFFFFFFFFFFFFFFFFFFFFFFFFFFFFF MUL NOT AND SWAP1 DUP4 PUSH20 0xFFFFFFFFFFFFFFFFFFFFFFFFFFFFFFFFFFFFFFFF AND MUL OR SWAP1 SSTORE POP SWAP1 POP POP DUP1 DUP1 PUSH2 0x1CF0 SWAP1 PUSH2 0x3F9A JUMP JUMPDEST SWAP2 POP POP PUSH2 0x1BDE JUMP JUMPDEST POP PUSH1 0x2 PUSH1 0x1 PUSH1 0x2 DUP1 SLOAD SWAP1 POP PUSH2 0x1D0D SWAP2 SWAP1 PUSH2 0x3FE2 JUMP JUMPDEST DUP2 SLOAD DUP2 LT PUSH2 0x1D1E JUMPI PUSH2 0x1D1D PUSH2 0x3F3C JUMP JUMPDEST JUMPDEST SWAP1 PUSH1 0x0 MSTORE PUSH1 0x20 PUSH1 0x0 KECCAK256 SWAP1 PUSH1 0x4 MUL ADD PUSH1 0x0 DUP1 DUP3 ADD PUSH1 0x0 SWAP1 SSTORE PUSH1 0x1 DUP3 ADD PUSH1 0x0 PUSH2 0x1D45 SWAP2 SWAP1 PUSH2 0x311F JUMP JUMPDEST PUSH1 0x2 DUP3 ADD PUSH1 0x0 PUSH2 0x1D55 SWAP2 SWAP1 PUSH2 0x311F JUMP JUMPDEST PUSH1 0x3 DUP3 ADD PUSH1 0x0 PUSH2 0x100 EXP DUP2 SLOAD SWAP1 PUSH20 0xFFFFFFFFFFFFFFFFFFFFFFFFFFFFFFFFFFFFFFFF MUL NOT AND SWAP1 SSTORE POP POP PUSH1 0x2 DUP1 SLOAD DUP1 PUSH2 0x1D90 JUMPI PUSH2 0x1D8F PUSH2 0x4369 JUMP JUMPDEST JUMPDEST PUSH1 0x1 SWAP1 SUB DUP2 DUP2 SWAP1 PUSH1 0x0 MSTORE PUSH1 0x20 PUSH1 0x0 KECCAK256 SWAP1 PUSH1 0x4 MUL ADD PUSH1 0x0 DUP1 DUP3 ADD PUSH1 0x0 SWAP1 SSTORE PUSH1 0x1 DUP3 ADD PUSH1 0x0 PUSH2 0x1DBD SWAP2 SWAP1 PUSH2 0x311F JUMP JUMPDEST PUSH1 0x2 DUP3 ADD PUSH1 0x0 PUSH2 0x1DCD SWAP2 SWAP1 PUSH2 0x311F JUMP JUMPDEST PUSH1 0x3 DUP3 ADD PUSH1 0x0 PUSH2 0x100 EXP DUP2 SLOAD SWAP1 PUSH20 0xFFFFFFFFFFFFFFFFFFFFFFFFFFFFFFFFFFFFFFFF MUL NOT AND SWAP1 SSTORE POP POP SWAP1 SSTORE POP POP POP POP JUMP JUMPDEST PUSH1 0x60 PUSH1 0x3 DUP1 SLOAD DUP1 PUSH1 0x20 MUL PUSH1 0x20 ADD PUSH1 0x40 MLOAD SWAP1 DUP2 ADD PUSH1 0x40 MSTORE DUP1 SWAP3 SWAP2 SWAP1 DUP2 DUP2 MSTORE PUSH1 0x20 ADD PUSH1 0x0 SWAP1 JUMPDEST DUP3 DUP3 LT ISZERO PUSH2 0x1F46 JUMPI DUP4 DUP3 SWAP1 PUSH1 0x0 MSTORE PUSH1 0x20 PUSH1 0x0 KECCAK256 SWAP1 PUSH1 0x3 MUL ADD PUSH1 0x40 MLOAD DUP1 PUSH1 0x60 ADD PUSH1 0x40 MSTORE SWAP1 DUP2 PUSH1 0x0 DUP3 ADD SLOAD DUP2 MSTORE PUSH1 0x20 ADD PUSH1 0x1 DUP3 ADD DUP1 SLOAD PUSH2 0x1E5F SWAP1 PUSH2 0x4079 JUMP JUMPDEST DUP1 PUSH1 0x1F ADD PUSH1 0x20 DUP1 SWAP2 DIV MUL PUSH1 0x20 ADD PUSH1 0x40 MLOAD SWAP1 DUP2 ADD PUSH1 0x40 MSTORE DUP1 SWAP3 SWAP2 SWAP1 DUP2 DUP2 MSTORE PUSH1 0x20 ADD DUP3 DUP1 SLOAD PUSH2 0x1E8B SWAP1 PUSH2 0x4079 JUMP JUMPDEST DUP1 ISZERO PUSH2 0x1ED8 JUMPI DUP1 PUSH1 0x1F LT PUSH2 0x1EAD JUMPI PUSH2 0x100 DUP1 DUP4 SLOAD DIV MUL DUP4 MSTORE SWAP2 PUSH1 0x20 ADD SWAP2 PUSH2 0x1ED8 JUMP JUMPDEST DUP3 ADD SWAP2 SWAP1 PUSH1 0x0 MSTORE PUSH1 0x20 PUSH1 0x0 KECCAK256 SWAP1 JUMPDEST DUP2 SLOAD DUP2 MSTORE SWAP1 PUSH1 0x1 ADD SWAP1 PUSH1 0x20 ADD DUP1 DUP4 GT PUSH2 0x1EBB JUMPI DUP3 SWAP1 SUB PUSH1 0x1F AND DUP3 ADD SWAP2 JUMPDEST POP POP POP POP POP DUP2 MSTORE PUSH1 0x20 ADD PUSH1 0x2 DUP3 ADD PUSH1 0x0 SWAP1 SLOAD SWAP1 PUSH2 0x100 EXP SWAP1 DIV PUSH20 0xFFFFFFFFFFFFFFFFFFFFFFFFFFFFFFFFFFFFFFFF AND PUSH20 0xFFFFFFFFFFFFFFFFFFFFFFFFFFFFFFFFFFFFFFFF AND PUSH20 0xFFFFFFFFFFFFFFFFFFFFFFFFFFFFFFFFFFFFFFFF AND DUP2 MSTORE POP POP DUP2 MSTORE PUSH1 0x20 ADD SWAP1 PUSH1 0x1 ADD SWAP1 PUSH2 0x1E22 JUMP JUMPDEST POP POP POP POP SWAP1 POP SWAP1 JUMP JUMPDEST PUSH1 0x60 PUSH1 0x1 DUP1 SLOAD DUP1 PUSH1 0x20 MUL PUSH1 0x20 ADD PUSH1 0x40 MLOAD SWAP1 DUP2 ADD PUSH1 0x40 MSTORE DUP1 SWAP3 SWAP2 SWAP1 DUP2 DUP2 MSTORE PUSH1 0x20 ADD PUSH1 0x0 SWAP1 JUMPDEST DUP3 DUP3 LT ISZERO PUSH2 0x24D9 JUMPI DUP4 DUP3 SWAP1 PUSH1 0x0 MSTORE PUSH1 0x20 PUSH1 0x0 KECCAK256 SWAP1 PUSH1 0x9 MUL ADD PUSH1 0x40 MLOAD DUP1 PUSH2 0x120 ADD PUSH1 0x40 MSTORE SWAP1 DUP2 PUSH1 0x0 DUP3 ADD DUP1 SLOAD PUSH2 0x1FA7 SWAP1 PUSH2 0x4079 JUMP JUMPDEST DUP1 PUSH1 0x1F ADD PUSH1 0x20 DUP1 SWAP2 DIV MUL PUSH1 0x20 ADD PUSH1 0x40 MLOAD SWAP1 DUP2 ADD PUSH1 0x40 MSTORE DUP1 SWAP3 SWAP2 SWAP1 DUP2 DUP2 MSTORE PUSH1 0x20 ADD DUP3 DUP1 SLOAD PUSH2 0x1FD3 SWAP1 PUSH2 0x4079 JUMP JUMPDEST DUP1 ISZERO PUSH2 0x2020 JUMPI DUP1 PUSH1 0x1F LT PUSH2 0x1FF5 JUMPI PUSH2 0x100 DUP1 DUP4 SLOAD DIV MUL DUP4 MSTORE SWAP2 PUSH1 0x20 ADD SWAP2 PUSH2 0x2020 JUMP JUMPDEST DUP3 ADD SWAP2 SWAP1 PUSH1 0x0 MSTORE PUSH1 0x20 PUSH1 0x0 KECCAK256 SWAP1 JUMPDEST DUP2 SLOAD DUP2 MSTORE SWAP1 PUSH1 0x1 ADD SWAP1 PUSH1 0x20 ADD DUP1 DUP4 GT PUSH2 0x2003 JUMPI DUP3 SWAP1 SUB PUSH1 0x1F AND DUP3 ADD SWAP2 JUMPDEST POP POP POP POP POP DUP2 MSTORE PUSH1 0x20 ADD PUSH1 0x1 DUP3 ADD DUP1 SLOAD PUSH2 0x2039 SWAP1 PUSH2 0x4079 JUMP JUMPDEST DUP1 PUSH1 0x1F ADD PUSH1 0x20 DUP1 SWAP2 DIV MUL PUSH1 0x20 ADD PUSH1 0x40 MLOAD SWAP1 DUP2 ADD PUSH1 0x40 MSTORE DUP1 SWAP3 SWAP2 SWAP1 DUP2 DUP2 MSTORE PUSH1 0x20 ADD DUP3 DUP1 SLOAD PUSH2 0x2065 SWAP1 PUSH2 0x4079 JUMP JUMPDEST DUP1 ISZERO PUSH2 0x20B2 JUMPI DUP1 PUSH1 0x1F LT PUSH2 0x2087 JUMPI PUSH2 0x100 DUP1 DUP4 SLOAD DIV MUL DUP4 MSTORE SWAP2 PUSH1 0x20 ADD SWAP2 PUSH2 0x20B2 JUMP JUMPDEST DUP3 ADD SWAP2 SWAP1 PUSH1 0x0 MSTORE PUSH1 0x20 PUSH1 0x0 KECCAK256 SWAP1 JUMPDEST DUP2 SLOAD DUP2 MSTORE SWAP1 PUSH1 0x1 ADD SWAP1 PUSH1 0x20 ADD DUP1 DUP4 GT PUSH2 0x2095 JUMPI DUP3 SWAP1 SUB PUSH1 0x1F AND DUP3 ADD SWAP2 JUMPDEST POP POP POP POP POP DUP2 MSTORE PUSH1 0x20 ADD PUSH1 0x2 DUP3 ADD DUP1 SLOAD PUSH2 0x20CB SWAP1 PUSH2 0x4079 JUMP JUMPDEST DUP1 PUSH1 0x1F ADD PUSH1 0x20 DUP1 SWAP2 DIV MUL PUSH1 0x20 ADD PUSH1 0x40 MLOAD SWAP1 DUP2 ADD PUSH1 0x40 MSTORE DUP1 SWAP3 SWAP2 SWAP1 DUP2 DUP2 MSTORE PUSH1 0x20 ADD DUP3 DUP1 SLOAD PUSH2 0x20F7 SWAP1 PUSH2 0x4079 JUMP JUMPDEST DUP1 ISZERO PUSH2 0x2144 JUMPI DUP1 PUSH1 0x1F LT PUSH2 0x2119 JUMPI PUSH2 0x100 DUP1 DUP4 SLOAD DIV MUL DUP4 MSTORE SWAP2 PUSH1 0x20 ADD SWAP2 PUSH2 0x2144 JUMP JUMPDEST DUP3 ADD SWAP2 SWAP1 PUSH1 0x0 MSTORE PUSH1 0x20 PUSH1 0x0 KECCAK256 SWAP1 JUMPDEST DUP2 SLOAD DUP2 MSTORE SWAP1 PUSH1 0x1 ADD SWAP1 PUSH1 0x20 ADD DUP1 DUP4 GT PUSH2 0x2127 JUMPI DUP3 SWAP1 SUB PUSH1 0x1F AND DUP3 ADD SWAP2 JUMPDEST POP POP POP POP POP DUP2 MSTORE PUSH1 0x20 ADD PUSH1 0x3 DUP3 ADD PUSH1 0x0 SWAP1 SLOAD SWAP1 PUSH2 0x100 EXP SWAP1 DIV PUSH20 0xFFFFFFFFFFFFFFFFFFFFFFFFFFFFFFFFFFFFFFFF AND PUSH20 0xFFFFFFFFFFFFFFFFFFFFFFFFFFFFFFFFFFFFFFFF AND PUSH20 0xFFFFFFFFFFFFFFFFFFFFFFFFFFFFFFFFFFFFFFFF AND DUP2 MSTORE PUSH1 0x20 ADD PUSH1 0x4 DUP3 ADD SLOAD DUP2 MSTORE PUSH1 0x20 ADD PUSH1 0x5 DUP3 ADD DUP1 SLOAD PUSH2 0x21BD SWAP1 PUSH2 0x4079 JUMP JUMPDEST DUP1 PUSH1 0x1F ADD PUSH1 0x20 DUP1 SWAP2 DIV MUL PUSH1 0x20 ADD PUSH1 0x40 MLOAD SWAP1 DUP2 ADD PUSH1 0x40 MSTORE DUP1 SWAP3 SWAP2 SWAP1 DUP2 DUP2 MSTORE PUSH1 0x20 ADD DUP3 DUP1 SLOAD PUSH2 0x21E9 SWAP1 PUSH2 0x4079 JUMP JUMPDEST DUP1 ISZERO PUSH2 0x2236 JUMPI DUP1 PUSH1 0x1F LT PUSH2 0x220B JUMPI PUSH2 0x100 DUP1 DUP4 SLOAD DIV MUL DUP4 MSTORE SWAP2 PUSH1 0x20 ADD SWAP2 PUSH2 0x2236 JUMP JUMPDEST DUP3 ADD SWAP2 SWAP1 PUSH1 0x0 MSTORE PUSH1 0x20 PUSH1 0x0 KECCAK256 SWAP1 JUMPDEST DUP2 SLOAD DUP2 MSTORE SWAP1 PUSH1 0x1 ADD SWAP1 PUSH1 0x20 ADD DUP1 DUP4 GT PUSH2 0x2219 JUMPI DUP3 SWAP1 SUB PUSH1 0x1F AND DUP3 ADD SWAP2 JUMPDEST POP POP POP POP POP DUP2 MSTORE PUSH1 0x20 ADD PUSH1 0x6 DUP3 ADD DUP1 SLOAD DUP1 PUSH1 0x20 MUL PUSH1 0x20 ADD PUSH1 0x40 MLOAD SWAP1 DUP2 ADD PUSH1 0x40 MSTORE DUP1 SWAP3 SWAP2 SWAP1 DUP2 DUP2 MSTORE PUSH1 0x20 ADD PUSH1 0x0 SWAP1 JUMPDEST DUP3 DUP3 LT ISZERO PUSH2 0x2310 JUMPI DUP4 DUP3 SWAP1 PUSH1 0x0 MSTORE PUSH1 0x20 PUSH1 0x0 KECCAK256 ADD DUP1 SLOAD PUSH2 0x2283 SWAP1 PUSH2 0x4079 JUMP JUMPDEST DUP1 PUSH1 0x1F ADD PUSH1 0x20 DUP1 SWAP2 DIV MUL PUSH1 0x20 ADD PUSH1 0x40 MLOAD SWAP1 DUP2 ADD PUSH1 0x40 MSTORE DUP1 SWAP3 SWAP2 SWAP1 DUP2 DUP2 MSTORE PUSH1 0x20 ADD DUP3 DUP1 SLOAD PUSH2 0x22AF SWAP1 PUSH2 0x4079 JUMP JUMPDEST DUP1 ISZERO PUSH2 0x22FC JUMPI DUP1 PUSH1 0x1F LT PUSH2 0x22D1 JUMPI PUSH2 0x100 DUP1 DUP4 SLOAD DIV MUL DUP4 MSTORE SWAP2 PUSH1 0x20 ADD SWAP2 PUSH2 0x22FC JUMP JUMPDEST DUP3 ADD SWAP2 SWAP1 PUSH1 0x0 MSTORE PUSH1 0x20 PUSH1 0x0 KECCAK256 SWAP1 JUMPDEST DUP2 SLOAD DUP2 MSTORE SWAP1 PUSH1 0x1 ADD SWAP1 PUSH1 0x20 ADD DUP1 DUP4 GT PUSH2 0x22DF JUMPI DUP3 SWAP1 SUB PUSH1 0x1F AND DUP3 ADD SWAP2 JUMPDEST POP POP POP POP POP DUP2 MSTORE PUSH1 0x20 ADD SWAP1 PUSH1 0x1 ADD SWAP1 PUSH2 0x2264 JUMP JUMPDEST POP POP POP POP DUP2 MSTORE PUSH1 0x20 ADD PUSH1 0x7 DUP3 ADD DUP1 SLOAD DUP1 PUSH1 0x20 MUL PUSH1 0x20 ADD PUSH1 0x40 MLOAD SWAP1 DUP2 ADD PUSH1 0x40 MSTORE DUP1 SWAP3 SWAP2 SWAP1 DUP2 DUP2 MSTORE PUSH1 0x20 ADD PUSH1 0x0 SWAP1 JUMPDEST DUP3 DUP3 LT ISZERO PUSH2 0x23E9 JUMPI DUP4 DUP3 SWAP1 PUSH1 0x0 MSTORE PUSH1 0x20 PUSH1 0x0 KECCAK256 ADD DUP1 SLOAD PUSH2 0x235C SWAP1 PUSH2 0x4079 JUMP JUMPDEST DUP1 PUSH1 0x1F ADD PUSH1 0x20 DUP1 SWAP2 DIV MUL PUSH1 0x20 ADD PUSH1 0x40 MLOAD SWAP1 DUP2 ADD PUSH1 0x40 MSTORE DUP1 SWAP3 SWAP2 SWAP1 DUP2 DUP2 MSTORE PUSH1 0x20 ADD DUP3 DUP1 SLOAD PUSH2 0x2388 SWAP1 PUSH2 0x4079 JUMP JUMPDEST DUP1 ISZERO PUSH2 0x23D5 JUMPI DUP1 PUSH1 0x1F LT PUSH2 0x23AA JUMPI PUSH2 0x100 DUP1 DUP4 SLOAD DIV MUL DUP4 MSTORE SWAP2 PUSH1 0x20 ADD SWAP2 PUSH2 0x23D5 JUMP JUMPDEST DUP3 ADD SWAP2 SWAP1 PUSH1 0x0 MSTORE PUSH1 0x20 PUSH1 0x0 KECCAK256 SWAP1 JUMPDEST DUP2 SLOAD DUP2 MSTORE SWAP1 PUSH1 0x1 ADD SWAP1 PUSH1 0x20 ADD DUP1 DUP4 GT PUSH2 0x23B8 JUMPI DUP3 SWAP1 SUB PUSH1 0x1F AND DUP3 ADD SWAP2 JUMPDEST POP POP POP POP POP DUP2 MSTORE PUSH1 0x20 ADD SWAP1 PUSH1 0x1 ADD SWAP1 PUSH2 0x233D JUMP JUMPDEST POP POP POP POP DUP2 MSTORE PUSH1 0x20 ADD PUSH1 0x8 DUP3 ADD DUP1 SLOAD DUP1 PUSH1 0x20 MUL PUSH1 0x20 ADD PUSH1 0x40 MLOAD SWAP1 DUP2 ADD PUSH1 0x40 MSTORE DUP1 SWAP3 SWAP2 SWAP1 DUP2 DUP2 MSTORE PUSH1 0x20 ADD PUSH1 0x0 SWAP1 JUMPDEST DUP3 DUP3 LT ISZERO PUSH2 0x24C2 JUMPI DUP4 DUP3 SWAP1 PUSH1 0x0 MSTORE PUSH1 0x20 PUSH1 0x0 KECCAK256 ADD DUP1 SLOAD PUSH2 0x2435 SWAP1 PUSH2 0x4079 JUMP JUMPDEST DUP1 PUSH1 0x1F ADD PUSH1 0x20 DUP1 SWAP2 DIV MUL PUSH1 0x20 ADD PUSH1 0x40 MLOAD SWAP1 DUP2 ADD PUSH1 0x40 MSTORE DUP1 SWAP3 SWAP2 SWAP1 DUP2 DUP2 MSTORE PUSH1 0x20 ADD DUP3 DUP1 SLOAD PUSH2 0x2461 SWAP1 PUSH2 0x4079 JUMP JUMPDEST DUP1 ISZERO PUSH2 0x24AE JUMPI DUP1 PUSH1 0x1F LT PUSH2 0x2483 JUMPI PUSH2 0x100 DUP1 DUP4 SLOAD DIV MUL DUP4 MSTORE SWAP2 PUSH1 0x20 ADD SWAP2 PUSH2 0x24AE JUMP JUMPDEST DUP3 ADD SWAP2 SWAP1 PUSH1 0x0 MSTORE PUSH1 0x20 PUSH1 0x0 KECCAK256 SWAP1 JUMPDEST DUP2 SLOAD DUP2 MSTORE SWAP1 PUSH1 0x1 ADD SWAP1 PUSH1 0x20 ADD DUP1 DUP4 GT PUSH2 0x2491 JUMPI DUP3 SWAP1 SUB PUSH1 0x1F AND DUP3 ADD SWAP2 JUMPDEST POP POP POP POP POP DUP2 MSTORE PUSH1 0x20 ADD SWAP1 PUSH1 0x1 ADD SWAP1 PUSH2 0x2416 JUMP JUMPDEST POP POP POP POP DUP2 MSTORE POP POP DUP2 MSTORE PUSH1 0x20 ADD SWAP1 PUSH1 0x1 ADD SWAP1 PUSH2 0x1F73 JUMP JUMPDEST POP POP POP POP SWAP1 POP SWAP1 JUMP JUMPDEST PUSH1 0x0 DUP1 PUSH1 0x0 SWAP1 POP JUMPDEST PUSH1 0x1 DUP1 SLOAD SWAP1 POP DUP2 LT ISZERO PUSH2 0x258C JUMPI DUP3 PUSH20 0xFFFFFFFFFFFFFFFFFFFFFFFFFFFFFFFFFFFFFFFF AND PUSH1 0x1 DUP3 DUP2 SLOAD DUP2 LT PUSH2 0x2522 JUMPI PUSH2 0x2521 PUSH2 0x3F3C JUMP JUMPDEST JUMPDEST SWAP1 PUSH1 0x0 MSTORE PUSH1 0x20 PUSH1 0x0 KECCAK256 SWAP1 PUSH1 0x9 MUL ADD PUSH1 0x3 ADD PUSH1 0x0 SWAP1 SLOAD SWAP1 PUSH2 0x100 EXP SWAP1 DIV PUSH20 0xFFFFFFFFFFFFFFFFFFFFFFFFFFFFFFFFFFFFFFFF AND PUSH20 0xFFFFFFFFFFFFFFFFFFFFFFFFFFFFFFFFFFFFFFFF AND SUB PUSH2 0x2579 JUMPI PUSH1 0x1 SWAP2 POP POP PUSH2 0x2592 JUMP JUMPDEST DUP1 DUP1 PUSH2 0x2584 SWAP1 PUSH2 0x3F9A JUMP JUMPDEST SWAP2 POP POP PUSH2 0x24EA JUMP JUMPDEST POP PUSH1 0x0 SWAP1 POP JUMPDEST SWAP2 SWAP1 POP JUMP JUMPDEST PUSH1 0x1 CALLVALUE GT PUSH2 0x25DA JUMPI PUSH1 0x40 MLOAD PUSH32 0x8C379A000000000000000000000000000000000000000000000000000000000 DUP2 MSTORE PUSH1 0x4 ADD PUSH2 0x25D1 SWAP1 PUSH2 0x4598 JUMP JUMPDEST PUSH1 0x40 MLOAD DUP1 SWAP2 SUB SWAP1 REVERT JUMPDEST PUSH1 0x0 DUP1 SLOAD SWAP1 PUSH2 0x100 EXP SWAP1 DIV PUSH20 0xFFFFFFFFFFFFFFFFFFFFFFFFFFFFFFFFFFFFFFFF AND PUSH20 0xFFFFFFFFFFFFFFFFFFFFFFFFFFFFFFFFFFFFFFFF AND PUSH2 0x8FC CALLVALUE SWAP1 DUP2 ISZERO MUL SWAP1 PUSH1 0x40 MLOAD PUSH1 0x0 PUSH1 0x40 MLOAD DUP1 DUP4 SUB DUP2 DUP6 DUP9 DUP9 CALL SWAP4 POP POP POP POP ISZERO DUP1 ISZERO PUSH2 0x2640 JUMPI RETURNDATASIZE PUSH1 0x0 DUP1 RETURNDATACOPY RETURNDATASIZE PUSH1 0x0 REVERT JUMPDEST POP PUSH1 0x4 PUSH1 0x40 MLOAD DUP1 PUSH1 0x80 ADD PUSH1 0x40 MSTORE DUP1 TIMESTAMP DUP2 MSTORE PUSH1 0x20 ADD DUP6 DUP2 MSTORE PUSH1 0x20 ADD DUP5 PUSH20 0xFFFFFFFFFFFFFFFFFFFFFFFFFFFFFFFFFFFFFFFF AND DUP2 MSTORE PUSH1 0x20 ADD DUP4 DUP2 MSTORE POP SWAP1 DUP1 PUSH1 0x1 DUP2 SLOAD ADD DUP1 DUP3 SSTORE DUP1 SWAP2 POP POP PUSH1 0x1 SWAP1 SUB SWAP1 PUSH1 0x0 MSTORE PUSH1 0x20 PUSH1 0x0 KECCAK256 SWAP1 PUSH1 0x4 MUL ADD PUSH1 0x0 SWAP1 SWAP2 SWAP1 SWAP2 SWAP1 SWAP2 POP PUSH1 0x0 DUP3 ADD MLOAD DUP2 PUSH1 0x0 ADD SSTORE PUSH1 0x20 DUP3 ADD MLOAD DUP2 PUSH1 0x1 ADD SWAP1 DUP2 PUSH2 0x26C2 SWAP2 SWAP1 PUSH2 0x45B8 JUMP JUMPDEST POP PUSH1 0x40 DUP3 ADD MLOAD DUP2 PUSH1 0x2 ADD PUSH1 0x0 PUSH2 0x100 EXP DUP2 SLOAD DUP2 PUSH20 0xFFFFFFFFFFFFFFFFFFFFFFFFFFFFFFFFFFFFFFFF MUL NOT AND SWAP1 DUP4 PUSH20 0xFFFFFFFFFFFFFFFFFFFFFFFFFFFFFFFFFFFFFFFF AND MUL OR SWAP1 SSTORE POP PUSH1 0x60 DUP3 ADD MLOAD DUP2 PUSH1 0x3 ADD SWAP1 DUP2 PUSH2 0x271F SWAP2 SWAP1 PUSH2 0x45B8 JUMP JUMPDEST POP POP POP PUSH1 0x0 JUMPDEST PUSH1 0x1 DUP1 SLOAD SWAP1 POP DUP2 LT ISZERO PUSH2 0x2816 JUMPI PUSH1 0x1 DUP2 DUP2 SLOAD DUP2 LT PUSH2 0x2746 JUMPI PUSH2 0x2745 PUSH2 0x3F3C JUMP JUMPDEST JUMPDEST SWAP1 PUSH1 0x0 MSTORE PUSH1 0x20 PUSH1 0x0 KECCAK256 SWAP1 PUSH1 0x9 MUL ADD PUSH1 0x3 ADD PUSH1 0x0 SWAP1 SLOAD SWAP1 PUSH2 0x100 EXP SWAP1 DIV PUSH20 0xFFFFFFFFFFFFFFFFFFFFFFFFFFFFFFFFFFFFFFFF AND PUSH20 0xFFFFFFFFFFFFFFFFFFFFFFFFFFFFFFFFFFFFFFFF AND DUP4 PUSH20 0xFFFFFFFFFFFFFFFFFFFFFFFFFFFFFFFFFFFFFFFF AND SUB PUSH2 0x2803 JUMPI PUSH1 0x1 DUP2 DUP2 SLOAD DUP2 LT PUSH2 0x27BE JUMPI PUSH2 0x27BD PUSH2 0x3F3C JUMP JUMPDEST JUMPDEST SWAP1 PUSH1 0x0 MSTORE PUSH1 0x20 PUSH1 0x0 KECCAK256 SWAP1 PUSH1 0x9 MUL ADD PUSH1 0x8 ADD DUP3 SWAP1 DUP1 PUSH1 0x1 DUP2 SLOAD ADD DUP1 DUP3 SSTORE DUP1 SWAP2 POP POP PUSH1 0x1 SWAP1 SUB SWAP1 PUSH1 0x0 MSTORE PUSH1 0x20 PUSH1 0x0 KECCAK256 ADD PUSH1 0x0 SWAP1 SWAP2 SWAP1 SWAP2 SWAP1 SWAP2 POP SWAP1 DUP2 PUSH2 0x2801 SWAP2 SWAP1 PUSH2 0x45B8 JUMP JUMPDEST POP JUMPDEST DUP1 DUP1 PUSH2 0x280E SWAP1 PUSH2 0x3F9A JUMP JUMPDEST SWAP2 POP POP PUSH2 0x2725 JUMP JUMPDEST POP POP POP POP JUMP JUMPDEST PUSH1 0x0 DUP1 PUSH1 0x0 JUMPDEST PUSH1 0x1 DUP1 SLOAD SWAP1 POP DUP2 LT ISZERO PUSH2 0x2923 JUMPI PUSH1 0x0 JUMPDEST PUSH1 0x1 DUP3 DUP2 SLOAD DUP2 LT PUSH2 0x2846 JUMPI PUSH2 0x2845 PUSH2 0x3F3C JUMP JUMPDEST JUMPDEST SWAP1 PUSH1 0x0 MSTORE PUSH1 0x20 PUSH1 0x0 KECCAK256 SWAP1 PUSH1 0x9 MUL ADD PUSH1 0x8 ADD DUP1 SLOAD SWAP1 POP DUP2 LT ISZERO PUSH2 0x290F JUMPI PUSH1 0x1 DUP3 DUP2 SLOAD DUP2 LT PUSH2 0x2876 JUMPI PUSH2 0x2875 PUSH2 0x3F3C JUMP JUMPDEST JUMPDEST SWAP1 PUSH1 0x0 MSTORE PUSH1 0x20 PUSH1 0x0 KECCAK256 SWAP1 PUSH1 0x9 MUL ADD PUSH1 0x8 ADD DUP2 DUP2 SLOAD DUP2 LT PUSH2 0x2899 JUMPI PUSH2 0x2898 PUSH2 0x3F3C JUMP JUMPDEST JUMPDEST SWAP1 PUSH1 0x0 MSTORE PUSH1 0x20 PUSH1 0x0 KECCAK256 ADD PUSH1 0x40 MLOAD PUSH1 0x20 ADD PUSH2 0x28B3 SWAP2 SWAP1 PUSH2 0x4426 JUMP JUMPDEST PUSH1 0x40 MLOAD PUSH1 0x20 DUP2 DUP4 SUB SUB DUP2 MSTORE SWAP1 PUSH1 0x40 MSTORE DUP1 MLOAD SWAP1 PUSH1 0x20 ADD KECCAK256 DUP6 PUSH1 0x40 MLOAD PUSH1 0x20 ADD PUSH2 0x28DA SWAP2 SWAP1 PUSH2 0x4727 JUMP JUMPDEST PUSH1 0x40 MLOAD PUSH1 0x20 DUP2 DUP4 SUB SUB DUP2 MSTORE SWAP1 PUSH1 0x40 MSTORE DUP1 MLOAD SWAP1 PUSH1 0x20 ADD KECCAK256 SUB PUSH2 0x28FC JUMPI DUP2 SWAP4 POP DUP1 SWAP3 POP JUMPDEST DUP1 DUP1 PUSH2 0x2907 SWAP1 PUSH2 0x3F9A JUMP JUMPDEST SWAP2 POP POP PUSH2 0x2832 JUMP JUMPDEST POP DUP1 DUP1 PUSH2 0x291B SWAP1 PUSH2 0x3F9A JUMP JUMPDEST SWAP2 POP POP PUSH2 0x2822 JUMP JUMPDEST POP PUSH1 0x0 DUP2 SWAP1 POP JUMPDEST PUSH1 0x1 DUP1 DUP5 DUP2 SLOAD DUP2 LT PUSH2 0x293F JUMPI PUSH2 0x293E PUSH2 0x3F3C JUMP JUMPDEST JUMPDEST SWAP1 PUSH1 0x0 MSTORE PUSH1 0x20 PUSH1 0x0 KECCAK256 SWAP1 PUSH1 0x9 MUL ADD PUSH1 0x8 ADD DUP1 SLOAD SWAP1 POP PUSH2 0x295E SWAP2 SWAP1 PUSH2 0x3FE2 JUMP JUMPDEST DUP2 LT ISZERO PUSH2 0x2A13 JUMPI PUSH1 0x1 DUP4 DUP2 SLOAD DUP2 LT PUSH2 0x2979 JUMPI PUSH2 0x2978 PUSH2 0x3F3C JUMP JUMPDEST JUMPDEST SWAP1 PUSH1 0x0 MSTORE PUSH1 0x20 PUSH1 0x0 KECCAK256 SWAP1 PUSH1 0x9 MUL ADD PUSH1 0x8 ADD PUSH1 0x1 DUP3 PUSH2 0x2997 SWAP2 SWAP1 PUSH2 0x4016 JUMP JUMPDEST DUP2 SLOAD DUP2 LT PUSH2 0x29A8 JUMPI PUSH2 0x29A7 PUSH2 0x3F3C JUMP JUMPDEST JUMPDEST SWAP1 PUSH1 0x0 MSTORE PUSH1 0x20 PUSH1 0x0 KECCAK256 ADD PUSH1 0x1 DUP5 DUP2 SLOAD DUP2 LT PUSH2 0x29C6 JUMPI PUSH2 0x29C5 PUSH2 0x3F3C JUMP JUMPDEST JUMPDEST SWAP1 PUSH1 0x0 MSTORE PUSH1 0x20 PUSH1 0x0 KECCAK256 SWAP1 PUSH1 0x9 MUL ADD PUSH1 0x8 ADD DUP3 DUP2 SLOAD DUP2 LT PUSH2 0x29E9 JUMPI PUSH2 0x29E8 PUSH2 0x3F3C JUMP JUMPDEST JUMPDEST SWAP1 PUSH1 0x0 MSTORE PUSH1 0x20 PUSH1 0x0 KECCAK256 ADD SWAP1 DUP2 PUSH2 0x29FF SWAP2 SWAP1 PUSH2 0x4281 JUMP JUMPDEST POP DUP1 DUP1 PUSH2 0x2A0B SWAP1 PUSH2 0x3F9A JUMP JUMPDEST SWAP2 POP POP PUSH2 0x292A JUMP JUMPDEST POP PUSH1 0x1 DUP3 DUP2 SLOAD DUP2 LT PUSH2 0x2A28 JUMPI PUSH2 0x2A27 PUSH2 0x3F3C JUMP JUMPDEST JUMPDEST SWAP1 PUSH1 0x0 MSTORE PUSH1 0x20 PUSH1 0x0 KECCAK256 SWAP1 PUSH1 0x9 MUL ADD PUSH1 0x8 ADD PUSH1 0x1 DUP1 DUP5 DUP2 SLOAD DUP2 LT PUSH2 0x2A4E JUMPI PUSH2 0x2A4D PUSH2 0x3F3C JUMP JUMPDEST JUMPDEST SWAP1 PUSH1 0x0 MSTORE PUSH1 0x20 PUSH1 0x0 KECCAK256 SWAP1 PUSH1 0x9 MUL ADD PUSH1 0x8 ADD DUP1 SLOAD SWAP1 POP PUSH2 0x2A6D SWAP2 SWAP1 PUSH2 0x3FE2 JUMP JUMPDEST DUP2 SLOAD DUP2 LT PUSH2 0x2A7E JUMPI PUSH2 0x2A7D PUSH2 0x3F3C JUMP JUMPDEST JUMPDEST SWAP1 PUSH1 0x0 MSTORE PUSH1 0x20 PUSH1 0x0 KECCAK256 ADD PUSH1 0x0 PUSH2 0x2A94 SWAP2 SWAP1 PUSH2 0x311F JUMP JUMPDEST PUSH1 0x1 DUP3 DUP2 SLOAD DUP2 LT PUSH2 0x2AA8 JUMPI PUSH2 0x2AA7 PUSH2 0x3F3C JUMP JUMPDEST JUMPDEST SWAP1 PUSH1 0x0 MSTORE PUSH1 0x20 PUSH1 0x0 KECCAK256 SWAP1 PUSH1 0x9 MUL ADD PUSH1 0x8 ADD DUP1 SLOAD DUP1 PUSH2 0x2AC9 JUMPI PUSH2 0x2AC8 PUSH2 0x4369 JUMP JUMPDEST JUMPDEST PUSH1 0x1 SWAP1 SUB DUP2 DUP2 SWAP1 PUSH1 0x0 MSTORE PUSH1 0x20 PUSH1 0x0 KECCAK256 ADD PUSH1 0x0 PUSH2 0x2AE5 SWAP2 SWAP1 PUSH2 0x311F JUMP JUMPDEST SWAP1 SSTORE PUSH1 0x0 DUP1 PUSH1 0x0 SWAP1 POP JUMPDEST PUSH1 0x4 DUP1 SLOAD SWAP1 POP DUP2 LT ISZERO PUSH2 0x2B8A JUMPI DUP5 PUSH1 0x40 MLOAD PUSH1 0x20 ADD PUSH2 0x2B0D SWAP2 SWAP1 PUSH2 0x4727 JUMP JUMPDEST PUSH1 0x40 MLOAD PUSH1 0x20 DUP2 DUP4 SUB SUB DUP2 MSTORE SWAP1 PUSH1 0x40 MSTORE DUP1 MLOAD SWAP1 PUSH1 0x20 ADD KECCAK256 PUSH1 0x4 DUP3 DUP2 SLOAD DUP2 LT PUSH2 0x2B37 JUMPI PUSH2 0x2B36 PUSH2 0x3F3C JUMP JUMPDEST JUMPDEST SWAP1 PUSH1 0x0 MSTORE PUSH1 0x20 PUSH1 0x0 KECCAK256 SWAP1 PUSH1 0x4 MUL ADD PUSH1 0x1 ADD PUSH1 0x40 MLOAD PUSH1 0x20 ADD PUSH2 0x2B58 SWAP2 SWAP1 PUSH2 0x4426 JUMP JUMPDEST PUSH1 0x40 MLOAD PUSH1 0x20 DUP2 DUP4 SUB SUB DUP2 MSTORE SWAP1 PUSH1 0x40 MSTORE DUP1 MLOAD SWAP1 PUSH1 0x20 ADD KECCAK256 SUB PUSH2 0x2B77 JUMPI DUP1 SWAP2 POP JUMPDEST DUP1 DUP1 PUSH2 0x2B82 SWAP1 PUSH2 0x3F9A JUMP JUMPDEST SWAP2 POP POP PUSH2 0x2AEF JUMP JUMPDEST POP PUSH1 0x0 DUP2 SWAP1 POP JUMPDEST PUSH1 0x1 PUSH1 0x4 DUP1 SLOAD SWAP1 POP PUSH2 0x2BA3 SWAP2 SWAP1 PUSH2 0x3FE2 JUMP JUMPDEST DUP2 LT ISZERO PUSH2 0x2CAB JUMPI PUSH1 0x4 PUSH1 0x1 DUP3 PUSH2 0x2BB9 SWAP2 SWAP1 PUSH2 0x4016 JUMP JUMPDEST DUP2 SLOAD DUP2 LT PUSH2 0x2BCA JUMPI PUSH2 0x2BC9 PUSH2 0x3F3C JUMP JUMPDEST JUMPDEST SWAP1 PUSH1 0x0 MSTORE PUSH1 0x20 PUSH1 0x0 KECCAK256 SWAP1 PUSH1 0x4 MUL ADD PUSH1 0x4 DUP3 DUP2 SLOAD DUP2 LT PUSH2 0x2BEC JUMPI PUSH2 0x2BEB PUSH2 0x3F3C JUMP JUMPDEST JUMPDEST SWAP1 PUSH1 0x0 MSTORE PUSH1 0x20 PUSH1 0x0 KECCAK256 SWAP1 PUSH1 0x4 MUL ADD PUSH1 0x0 DUP3 ADD SLOAD DUP2 PUSH1 0x0 ADD SSTORE PUSH1 0x1 DUP3 ADD DUP2 PUSH1 0x1 ADD SWAP1 DUP2 PUSH2 0x2C18 SWAP2 SWAP1 PUSH2 0x4453 JUMP JUMPDEST POP PUSH1 0x2 DUP3 ADD PUSH1 0x0 SWAP1 SLOAD SWAP1 PUSH2 0x100 EXP SWAP1 DIV PUSH20 0xFFFFFFFFFFFFFFFFFFFFFFFFFFFFFFFFFFFFFFFF AND DUP2 PUSH1 0x2 ADD PUSH1 0x0 PUSH2 0x100 EXP DUP2 SLOAD DUP2 PUSH20 0xFFFFFFFFFFFFFFFFFFFFFFFFFFFFFFFFFFFFFFFF MUL NOT AND SWAP1 DUP4 PUSH20 0xFFFFFFFFFFFFFFFFFFFFFFFFFFFFFFFFFFFFFFFF AND MUL OR SWAP1 SSTORE POP PUSH1 0x3 DUP3 ADD DUP2 PUSH1 0x3 ADD SWAP1 DUP2 PUSH2 0x2C94 SWAP2 SWAP1 PUSH2 0x4453 JUMP JUMPDEST POP SWAP1 POP POP DUP1 DUP1 PUSH2 0x2CA3 SWAP1 PUSH2 0x3F9A JUMP JUMPDEST SWAP2 POP POP PUSH2 0x2B91 JUMP JUMPDEST POP PUSH1 0x4 PUSH1 0x1 PUSH1 0x4 DUP1 SLOAD SWAP1 POP PUSH2 0x2CC0 SWAP2 SWAP1 PUSH2 0x3FE2 JUMP JUMPDEST DUP2 SLOAD DUP2 LT PUSH2 0x2CD1 JUMPI PUSH2 0x2CD0 PUSH2 0x3F3C JUMP JUMPDEST JUMPDEST SWAP1 PUSH1 0x0 MSTORE PUSH1 0x20 PUSH1 0x0 KECCAK256 SWAP1 PUSH1 0x4 MUL ADD PUSH1 0x0 DUP1 DUP3 ADD PUSH1 0x0 SWAP1 SSTORE PUSH1 0x1 DUP3 ADD PUSH1 0x0 PUSH2 0x2CF8 SWAP2 SWAP1 PUSH2 0x311F JUMP JUMPDEST PUSH1 0x2 DUP3 ADD PUSH1 0x0 PUSH2 0x100 EXP DUP2 SLOAD SWAP1 PUSH20 0xFFFFFFFFFFFFFFFFFFFFFFFFFFFFFFFFFFFFFFFF MUL NOT AND SWAP1 SSTORE PUSH1 0x3 DUP3 ADD PUSH1 0x0 PUSH2 0x2D2F SWAP2 SWAP1 PUSH2 0x311F JUMP JUMPDEST POP POP PUSH1 0x4 DUP1 SLOAD DUP1 PUSH2 0x2D43 JUMPI PUSH2 0x2D42 PUSH2 0x4369 JUMP JUMPDEST JUMPDEST PUSH1 0x1 SWAP1 SUB DUP2 DUP2 SWAP1 PUSH1 0x0 MSTORE PUSH1 0x20 PUSH1 0x0 KECCAK256 SWAP1 PUSH1 0x4 MUL ADD PUSH1 0x0 DUP1 DUP3 ADD PUSH1 0x0 SWAP1 SSTORE PUSH1 0x1 DUP3 ADD PUSH1 0x0 PUSH2 0x2D70 SWAP2 SWAP1 PUSH2 0x311F JUMP JUMPDEST PUSH1 0x2 DUP3 ADD PUSH1 0x0 PUSH2 0x100 EXP DUP2 SLOAD SWAP1 PUSH20 0xFFFFFFFFFFFFFFFFFFFFFFFFFFFFFFFFFFFFFFFF MUL NOT AND SWAP1 SSTORE PUSH1 0x3 DUP3 ADD PUSH1 0x0 PUSH2 0x2DA7 SWAP2 SWAP1 PUSH2 0x311F JUMP JUMPDEST POP POP SWAP1 SSTORE POP POP POP POP JUMP JUMPDEST PUSH1 0x0 ISZERO ISZERO PUSH2 0x2DBE DUP4 PUSH2 0x24E2 JUMP JUMPDEST ISZERO ISZERO EQ PUSH2 0x2E00 JUMPI PUSH1 0x40 MLOAD PUSH32 0x8C379A000000000000000000000000000000000000000000000000000000000 DUP2 MSTORE PUSH1 0x4 ADD PUSH2 0x2DF7 SWAP1 PUSH2 0x478A JUMP JUMPDEST PUSH1 0x40 MLOAD DUP1 SWAP2 SUB SWAP1 REVERT JUMPDEST PUSH1 0x0 CALLVALUE GT PUSH2 0x2E43 JUMPI PUSH1 0x40 MLOAD PUSH32 0x8C379A000000000000000000000000000000000000000000000000000000000 DUP2 MSTORE PUSH1 0x4 ADD PUSH2 0x2E3A SWAP1 PUSH2 0x47F6 JUMP JUMPDEST PUSH1 0x40 MLOAD DUP1 SWAP2 SUB SWAP1 REVERT JUMPDEST PUSH1 0x0 DUP1 SLOAD SWAP1 PUSH2 0x100 EXP SWAP1 DIV PUSH20 0xFFFFFFFFFFFFFFFFFFFFFFFFFFFFFFFFFFFFFFFF AND PUSH20 0xFFFFFFFFFFFFFFFFFFFFFFFFFFFFFFFFFFFFFFFF AND PUSH2 0x8FC CALLVALUE SWAP1 DUP2 ISZERO MUL SWAP1 PUSH1 0x40 MLOAD PUSH1 0x0 PUSH1 0x40 MLOAD DUP1 DUP4 SUB DUP2 DUP6 DUP9 DUP9 CALL SWAP4 POP POP POP POP ISZERO DUP1 ISZERO PUSH2 0x2EA9 JUMPI RETURNDATASIZE PUSH1 0x0 DUP1 RETURNDATACOPY RETURNDATASIZE PUSH1 0x0 REVERT JUMPDEST POP PUSH1 0x1 PUSH1 0x40 MLOAD DUP1 PUSH2 0x120 ADD PUSH1 0x40 MSTORE DUP1 DUP8 DUP2 MSTORE PUSH1 0x20 ADD DUP7 DUP2 MSTORE PUSH1 0x20 ADD DUP6 DUP2 MSTORE PUSH1 0x20 ADD DUP5 PUSH20 0xFFFFFFFFFFFFFFFFFFFFFFFFFFFFFFFFFFFFFFFF AND DUP2 MSTORE PUSH1 0x20 ADD TIMESTAMP DUP2 MSTORE PUSH1 0x20 ADD DUP4 DUP2 MSTORE PUSH1 0x20 ADD PUSH1 0x0 PUSH8 0xFFFFFFFFFFFFFFFF DUP2 GT ISZERO PUSH2 0x2F0D JUMPI PUSH2 0x2F0C PUSH2 0x3565 JUMP JUMPDEST JUMPDEST PUSH1 0x40 MLOAD SWAP1 DUP1 DUP3 MSTORE DUP1 PUSH1 0x20 MUL PUSH1 0x20 ADD DUP3 ADD PUSH1 0x40 MSTORE DUP1 ISZERO PUSH2 0x2F40 JUMPI DUP2 PUSH1 0x20 ADD JUMPDEST PUSH1 0x60 DUP2 MSTORE PUSH1 0x20 ADD SWAP1 PUSH1 0x1 SWAP1 SUB SWAP1 DUP2 PUSH2 0x2F2B JUMPI SWAP1 POP JUMPDEST POP DUP2 MSTORE PUSH1 0x20 ADD PUSH1 0x0 PUSH8 0xFFFFFFFFFFFFFFFF DUP2 GT ISZERO PUSH2 0x2F61 JUMPI PUSH2 0x2F60 PUSH2 0x3565 JUMP JUMPDEST JUMPDEST PUSH1 0x40 MLOAD SWAP1 DUP1 DUP3 MSTORE DUP1 PUSH1 0x20 MUL PUSH1 0x20 ADD DUP3 ADD PUSH1 0x40 MSTORE DUP1 ISZERO PUSH2 0x2F94 JUMPI DUP2 PUSH1 0x20 ADD JUMPDEST PUSH1 0x60 DUP2 MSTORE PUSH1 0x20 ADD SWAP1 PUSH1 0x1 SWAP1 SUB SWAP1 DUP2 PUSH2 0x2F7F JUMPI SWAP1 POP JUMPDEST POP DUP2 MSTORE PUSH1 0x20 ADD PUSH1 0x0 PUSH8 0xFFFFFFFFFFFFFFFF DUP2 GT ISZERO PUSH2 0x2FB5 JUMPI PUSH2 0x2FB4 PUSH2 0x3565 JUMP JUMPDEST JUMPDEST PUSH1 0x40 MLOAD SWAP1 DUP1 DUP3 MSTORE DUP1 PUSH1 0x20 MUL PUSH1 0x20 ADD DUP3 ADD PUSH1 0x40 MSTORE DUP1 ISZERO PUSH2 0x2FE8 JUMPI DUP2 PUSH1 0x20 ADD JUMPDEST PUSH1 0x60 DUP2 MSTORE PUSH1 0x20 ADD SWAP1 PUSH1 0x1 SWAP1 SUB SWAP1 DUP2 PUSH2 0x2FD3 JUMPI SWAP1 POP JUMPDEST POP DUP2 MSTORE POP SWAP1 DUP1 PUSH1 0x1 DUP2 SLOAD ADD DUP1 DUP3 SSTORE DUP1 SWAP2 POP POP PUSH1 0x1 SWAP1 SUB SWAP1 PUSH1 0x0 MSTORE PUSH1 0x20 PUSH1 0x0 KECCAK256 SWAP1 PUSH1 0x9 MUL ADD PUSH1 0x0 SWAP1 SWAP2 SWAP1 SWAP2 SWAP1 SWAP2 POP PUSH1 0x0 DUP3 ADD MLOAD DUP2 PUSH1 0x0 ADD SWAP1 DUP2 PUSH2 0x302A SWAP2 SWAP1 PUSH2 0x45B8 JUMP JUMPDEST POP PUSH1 0x20 DUP3 ADD MLOAD DUP2 PUSH1 0x1 ADD SWAP1 DUP2 PUSH2 0x3040 SWAP2 SWAP1 PUSH2 0x45B8 JUMP JUMPDEST POP PUSH1 0x40 DUP3 ADD MLOAD DUP2 PUSH1 0x2 ADD SWAP1 DUP2 PUSH2 0x3056 SWAP2 SWAP1 PUSH2 0x45B8 JUMP JUMPDEST POP PUSH1 0x60 DUP3 ADD MLOAD DUP2 PUSH1 0x3 ADD PUSH1 0x0 PUSH2 0x100 EXP DUP2 SLOAD DUP2 PUSH20 0xFFFFFFFFFFFFFFFFFFFFFFFFFFFFFFFFFFFFFFFF MUL NOT AND SWAP1 DUP4 PUSH20 0xFFFFFFFFFFFFFFFFFFFFFFFFFFFFFFFFFFFFFFFF AND MUL OR SWAP1 SSTORE POP PUSH1 0x80 DUP3 ADD MLOAD DUP2 PUSH1 0x4 ADD SSTORE PUSH1 0xA0 DUP3 ADD MLOAD DUP2 PUSH1 0x5 ADD SWAP1 DUP2 PUSH2 0x30BD SWAP2 SWAP1 PUSH2 0x45B8 JUMP JUMPDEST POP PUSH1 0xC0 DUP3 ADD MLOAD DUP2 PUSH1 0x6 ADD SWAP1 DUP1 MLOAD SWAP1 PUSH1 0x20 ADD SWAP1 PUSH2 0x30DA SWAP3 SWAP2 SWAP1 PUSH2 0x31DD JUMP JUMPDEST POP PUSH1 0xE0 DUP3 ADD MLOAD DUP2 PUSH1 0x7 ADD SWAP1 DUP1 MLOAD SWAP1 PUSH1 0x20 ADD SWAP1 PUSH2 0x30F7 SWAP3 SWAP2 SWAP1 PUSH2 0x31DD JUMP JUMPDEST POP PUSH2 0x100 DUP3 ADD MLOAD DUP2 PUSH1 0x8 ADD SWAP1 DUP1 MLOAD SWAP1 PUSH1 0x20 ADD SWAP1 PUSH2 0x3115 SWAP3 SWAP2 SWAP1 PUSH2 0x31DD JUMP JUMPDEST POP POP POP POP POP POP POP POP JUMP JUMPDEST POP DUP1 SLOAD PUSH2 0x312B SWAP1 PUSH2 0x4079 JUMP JUMPDEST PUSH1 0x0 DUP3 SSTORE DUP1 PUSH1 0x1F LT PUSH2 0x313D JUMPI POP PUSH2 0x315C JUMP JUMPDEST PUSH1 0x1F ADD PUSH1 0x20 SWAP1 DIV SWAP1 PUSH1 0x0 MSTORE PUSH1 0x20 PUSH1 0x0 KECCAK256 SWAP1 DUP2 ADD SWAP1 PUSH2 0x315B SWAP2 SWAP1 PUSH2 0x3236 JUMP JUMPDEST JUMPDEST POP JUMP JUMPDEST DUP3 DUP1 SLOAD DUP3 DUP3 SSTORE SWAP1 PUSH1 0x0 MSTORE PUSH1 0x20 PUSH1 0x0 KECCAK256 SWAP1 DUP2 ADD SWAP3 DUP3 ISZERO PUSH2 0x31AB JUMPI PUSH1 0x0 MSTORE PUSH1 0x20 PUSH1 0x0 KECCAK256 SWAP2 DUP3 ADD JUMPDEST DUP3 DUP2 GT ISZERO PUSH2 0x31AA JUMPI DUP3 DUP3 SWAP1 DUP2 PUSH2 0x319A SWAP2 SWAP1 PUSH2 0x4453 JUMP JUMPDEST POP SWAP2 PUSH1 0x1 ADD SWAP2 SWAP1 PUSH1 0x1 ADD SWAP1 PUSH2 0x3184 JUMP JUMPDEST JUMPDEST POP SWAP1 POP PUSH2 0x31B8 SWAP2 SWAP1 PUSH2 0x3253 JUMP JUMPDEST POP SWAP1 JUMP JUMPDEST POP DUP1 SLOAD PUSH1 0x0 DUP3 SSTORE SWAP1 PUSH1 0x0 MSTORE PUSH1 0x20 PUSH1 0x0 KECCAK256 SWAP1 DUP2 ADD SWAP1 PUSH2 0x31DA SWAP2 SWAP1 PUSH2 0x3253 JUMP JUMPDEST POP JUMP JUMPDEST DUP3 DUP1 SLOAD DUP3 DUP3 SSTORE SWAP1 PUSH1 0x0 MSTORE PUSH1 0x20 PUSH1 0x0 KECCAK256 SWAP1 DUP2 ADD SWAP3 DUP3 ISZERO PUSH2 0x3225 JUMPI SWAP2 PUSH1 0x20 MUL DUP3 ADD JUMPDEST DUP3 DUP2 GT ISZERO PUSH2 0x3224 JUMPI DUP3 MLOAD DUP3 SWAP1 DUP2 PUSH2 0x3214 SWAP2 SWAP1 PUSH2 0x45B8 JUMP JUMPDEST POP SWAP2 PUSH1 0x20 ADD SWAP2 SWAP1 PUSH1 0x1 ADD SWAP1 PUSH2 0x31FD JUMP JUMPDEST JUMPDEST POP SWAP1 POP PUSH2 0x3232 SWAP2 SWAP1 PUSH2 0x3253 JUMP JUMPDEST POP SWAP1 JUMP JUMPDEST JUMPDEST DUP1 DUP3 GT ISZERO PUSH2 0x324F JUMPI PUSH1 0x0 DUP2 PUSH1 0x0 SWAP1 SSTORE POP PUSH1 0x1 ADD PUSH2 0x3237 JUMP JUMPDEST POP SWAP1 JUMP JUMPDEST JUMPDEST DUP1 DUP3 GT ISZERO PUSH2 0x3273 JUMPI PUSH1 0x0 DUP2 DUP2 PUSH2 0x326A SWAP2 SWAP1 PUSH2 0x311F JUMP JUMPDEST POP PUSH1 0x1 ADD PUSH2 0x3254 JUMP JUMPDEST POP SWAP1 JUMP JUMPDEST PUSH1 0x0 PUSH1 0x40 MLOAD SWAP1 POP SWAP1 JUMP JUMPDEST PUSH1 0x0 DUP1 REVERT JUMPDEST PUSH1 0x0 DUP1 REVERT JUMPDEST PUSH1 0x0 PUSH20 0xFFFFFFFFFFFFFFFFFFFFFFFFFFFFFFFFFFFFFFFF DUP3 AND SWAP1 POP SWAP2 SWAP1 POP JUMP JUMPDEST PUSH1 0x0 PUSH2 0x32B6 DUP3 PUSH2 0x328B JUMP JUMPDEST SWAP1 POP SWAP2 SWAP1 POP JUMP JUMPDEST PUSH2 0x32C6 DUP2 PUSH2 0x32AB JUMP JUMPDEST DUP2 EQ PUSH2 0x32D1 JUMPI PUSH1 0x0 DUP1 REVERT JUMPDEST POP JUMP JUMPDEST PUSH1 0x0 DUP2 CALLDATALOAD SWAP1 POP PUSH2 0x32E3 DUP2 PUSH2 0x32BD JUMP JUMPDEST SWAP3 SWAP2 POP POP JUMP JUMPDEST PUSH1 0x0 DUP2 SWAP1 POP SWAP2 SWAP1 POP JUMP JUMPDEST PUSH2 0x32FC DUP2 PUSH2 0x32E9 JUMP JUMPDEST DUP2 EQ PUSH2 0x3307 JUMPI PUSH1 0x0 DUP1 REVERT JUMPDEST POP JUMP JUMPDEST PUSH1 0x0 DUP2 CALLDATALOAD SWAP1 POP PUSH2 0x3319 DUP2 PUSH2 0x32F3 JUMP JUMPDEST SWAP3 SWAP2 POP POP JUMP JUMPDEST PUSH1 0x0 DUP1 PUSH1 0x40 DUP4 DUP6 SUB SLT ISZERO PUSH2 0x3336 JUMPI PUSH2 0x3335 PUSH2 0x3281 JUMP JUMPDEST JUMPDEST PUSH1 0x0 PUSH2 0x3344 DUP6 DUP3 DUP7 ADD PUSH2 0x32D4 JUMP JUMPDEST SWAP3 POP POP PUSH1 0x20 PUSH2 0x3355 DUP6 DUP3 DUP7 ADD PUSH2 0x330A JUMP JUMPDEST SWAP2 POP POP SWAP3 POP SWAP3 SWAP1 POP JUMP JUMPDEST PUSH1 0x0 DUP2 MLOAD SWAP1 POP SWAP2 SWAP1 POP JUMP JUMPDEST PUSH1 0x0 DUP3 DUP3 MSTORE PUSH1 0x20 DUP3 ADD SWAP1 POP SWAP3 SWAP2 POP POP JUMP JUMPDEST PUSH1 0x0 DUP2 SWAP1 POP PUSH1 0x20 DUP3 ADD SWAP1 POP SWAP2 SWAP1 POP JUMP JUMPDEST PUSH2 0x3394 DUP2 PUSH2 0x32E9 JUMP JUMPDEST DUP3 MSTORE POP POP JUMP JUMPDEST PUSH1 0x0 DUP2 MLOAD SWAP1 POP SWAP2 SWAP1 POP JUMP JUMPDEST PUSH1 0x0 DUP3 DUP3 MSTORE PUSH1 0x20 DUP3 ADD SWAP1 POP SWAP3 SWAP2 POP POP JUMP JUMPDEST PUSH1 0x0 JUMPDEST DUP4 DUP2 LT ISZERO PUSH2 0x33D4 JUMPI DUP1 DUP3 ADD MLOAD DUP2 DUP5 ADD MSTORE PUSH1 0x20 DUP2 ADD SWAP1 POP PUSH2 0x33B9 JUMP JUMPDEST PUSH1 0x0 DUP5 DUP5 ADD MSTORE POP POP POP POP JUMP JUMPDEST PUSH1 0x0 PUSH1 0x1F NOT PUSH1 0x1F DUP4 ADD AND SWAP1 POP SWAP2 SWAP1 POP JUMP JUMPDEST PUSH1 0x0 PUSH2 0x33FC DUP3 PUSH2 0x339A JUMP JUMPDEST PUSH2 0x3406 DUP2 DUP6 PUSH2 0x33A5 JUMP JUMPDEST SWAP4 POP PUSH2 0x3416 DUP2 DUP6 PUSH1 0x20 DUP7 ADD PUSH2 0x33B6 JUMP JUMPDEST PUSH2 0x341F DUP2 PUSH2 0x33E0 JUMP JUMPDEST DUP5 ADD SWAP2 POP POP SWAP3 SWAP2 POP POP JUMP JUMPDEST PUSH2 0x3433 DUP2 PUSH2 0x32AB JUMP JUMPDEST DUP3 MSTORE POP POP JUMP JUMPDEST PUSH1 0x0 PUSH1 0x80 DUP4 ADD PUSH1 0x0 DUP4 ADD MLOAD PUSH2 0x3451 PUSH1 0x0 DUP7 ADD DUP3 PUSH2 0x338B JUMP JUMPDEST POP PUSH1 0x20 DUP4 ADD MLOAD DUP5 DUP3 SUB PUSH1 0x20 DUP7 ADD MSTORE PUSH2 0x3469 DUP3 DUP3 PUSH2 0x33F1 JUMP JUMPDEST SWAP2 POP POP PUSH1 0x40 DUP4 ADD MLOAD PUSH2 0x347E PUSH1 0x40 DUP7 ADD DUP3 PUSH2 0x342A JUMP JUMPDEST POP PUSH1 0x60 DUP4 ADD MLOAD DUP5 DUP3 SUB PUSH1 0x60 DUP7 ADD MSTORE PUSH2 0x3496 DUP3 DUP3 PUSH2 0x33F1 JUMP JUMPDEST SWAP2 POP POP DUP1 SWAP2 POP POP SWAP3 SWAP2 POP POP JUMP JUMPDEST PUSH1 0x0 PUSH2 0x34AF DUP4 DUP4 PUSH2 0x3439 JUMP JUMPDEST SWAP1 POP SWAP3 SWAP2 POP POP JUMP JUMPDEST PUSH1 0x0 PUSH1 0x20 DUP3 ADD SWAP1 POP SWAP2 SWAP1 POP JUMP JUMPDEST PUSH1 0x0 PUSH2 0x34CF DUP3 PUSH2 0x335F JUMP JUMPDEST PUSH2 0x34D9 DUP2 DUP6 PUSH2 0x336A JUMP JUMPDEST SWAP4 POP DUP4 PUSH1 0x20 DUP3 MUL DUP6 ADD PUSH2 0x34EB DUP6 PUSH2 0x337B JUMP JUMPDEST DUP1 PUSH1 0x0 JUMPDEST DUP6 DUP2 LT ISZERO PUSH2 0x3527 JUMPI DUP5 DUP5 SUB DUP10 MSTORE DUP2 MLOAD PUSH2 0x3508 DUP6 DUP3 PUSH2 0x34A3 JUMP JUMPDEST SWAP5 POP PUSH2 0x3513 DUP4 PUSH2 0x34B7 JUMP JUMPDEST SWAP3 POP PUSH1 0x20 DUP11 ADD SWAP10 POP POP PUSH1 0x1 DUP2 ADD SWAP1 POP PUSH2 0x34EF JUMP JUMPDEST POP DUP3 SWAP8 POP DUP8 SWAP6 POP POP POP POP POP POP SWAP3 SWAP2 POP POP JUMP JUMPDEST PUSH1 0x0 PUSH1 0x20 DUP3 ADD SWAP1 POP DUP2 DUP2 SUB PUSH1 0x0 DUP4 ADD MSTORE PUSH2 0x3553 DUP2 DUP5 PUSH2 0x34C4 JUMP JUMPDEST SWAP1 POP SWAP3 SWAP2 POP POP JUMP JUMPDEST PUSH1 0x0 DUP1 REVERT JUMPDEST PUSH1 0x0 DUP1 REVERT JUMPDEST PUSH32 0x4E487B7100000000000000000000000000000000000000000000000000000000 PUSH1 0x0 MSTORE PUSH1 0x41 PUSH1 0x4 MSTORE PUSH1 0x24 PUSH1 0x0 REVERT JUMPDEST PUSH2 0x359D DUP3 PUSH2 0x33E0 JUMP JUMPDEST DUP2 ADD DUP2 DUP2 LT PUSH8 0xFFFFFFFFFFFFFFFF DUP3 GT OR ISZERO PUSH2 0x35BC JUMPI PUSH2 0x35BB PUSH2 0x3565 JUMP JUMPDEST JUMPDEST DUP1 PUSH1 0x40 MSTORE POP POP POP JUMP JUMPDEST PUSH1 0x0 PUSH2 0x35CF PUSH2 0x3277 JUMP JUMPDEST SWAP1 POP PUSH2 0x35DB DUP3 DUP3 PUSH2 0x3594 JUMP JUMPDEST SWAP2 SWAP1 POP JUMP JUMPDEST PUSH1 0x0 PUSH8 0xFFFFFFFFFFFFFFFF DUP3 GT ISZERO PUSH2 0x35FB JUMPI PUSH2 0x35FA PUSH2 0x3565 JUMP JUMPDEST JUMPDEST PUSH2 0x3604 DUP3 PUSH2 0x33E0 JUMP JUMPDEST SWAP1 POP PUSH1 0x20 DUP2 ADD SWAP1 POP SWAP2 SWAP1 POP JUMP JUMPDEST DUP3 DUP2 DUP4 CALLDATACOPY PUSH1 0x0 DUP4 DUP4 ADD MSTORE POP POP POP JUMP JUMPDEST PUSH1 0x0 PUSH2 0x3633 PUSH2 0x362E DUP5 PUSH2 0x35E0 JUMP JUMPDEST PUSH2 0x35C5 JUMP JUMPDEST SWAP1 POP DUP3 DUP2 MSTORE PUSH1 0x20 DUP2 ADD DUP5 DUP5 DUP5 ADD GT ISZERO PUSH2 0x364F JUMPI PUSH2 0x364E PUSH2 0x3560 JUMP JUMPDEST JUMPDEST PUSH2 0x365A DUP5 DUP3 DUP6 PUSH2 0x3611 JUMP JUMPDEST POP SWAP4 SWAP3 POP POP POP JUMP JUMPDEST PUSH1 0x0 DUP3 PUSH1 0x1F DUP4 ADD SLT PUSH2 0x3677 JUMPI PUSH2 0x3676 PUSH2 0x355B JUMP JUMPDEST JUMPDEST DUP2 CALLDATALOAD PUSH2 0x3687 DUP5 DUP3 PUSH1 0x20 DUP7 ADD PUSH2 0x3620 JUMP JUMPDEST SWAP2 POP POP SWAP3 SWAP2 POP POP JUMP JUMPDEST PUSH1 0x0 DUP1 PUSH1 0x0 PUSH1 0x60 DUP5 DUP7 SUB SLT ISZERO PUSH2 0x36A9 JUMPI PUSH2 0x36A8 PUSH2 0x3281 JUMP JUMPDEST JUMPDEST PUSH1 0x0 DUP5 ADD CALLDATALOAD PUSH8 0xFFFFFFFFFFFFFFFF DUP2 GT ISZERO PUSH2 0x36C7 JUMPI PUSH2 0x36C6 PUSH2 0x3286 JUMP JUMPDEST JUMPDEST PUSH2 0x36D3 DUP7 DUP3 DUP8 ADD PUSH2 0x3662 JUMP JUMPDEST SWAP4 POP POP PUSH1 0x20 PUSH2 0x36E4 DUP7 DUP3 DUP8 ADD PUSH2 0x32D4 JUMP JUMPDEST SWAP3 POP POP PUSH1 0x40 DUP5 ADD CALLDATALOAD PUSH8 0xFFFFFFFFFFFFFFFF DUP2 GT ISZERO PUSH2 0x3705 JUMPI PUSH2 0x3704 PUSH2 0x3286 JUMP JUMPDEST JUMPDEST PUSH2 0x3711 DUP7 DUP3 DUP8 ADD PUSH2 0x3662 JUMP JUMPDEST SWAP2 POP POP SWAP3 POP SWAP3 POP SWAP3 JUMP JUMPDEST PUSH1 0x0 DUP1 PUSH1 0x0 DUP1 PUSH1 0x80 DUP6 DUP8 SUB SLT ISZERO PUSH2 0x3735 JUMPI PUSH2 0x3734 PUSH2 0x3281 JUMP JUMPDEST JUMPDEST PUSH1 0x0 PUSH2 0x3743 DUP8 DUP3 DUP9 ADD PUSH2 0x32D4 JUMP JUMPDEST SWAP5 POP POP PUSH1 0x20 DUP6 ADD CALLDATALOAD PUSH8 0xFFFFFFFFFFFFFFFF DUP2 GT ISZERO PUSH2 0x3764 JUMPI PUSH2 0x3763 PUSH2 0x3286 JUMP JUMPDEST JUMPDEST PUSH2 0x3770 DUP8 DUP3 DUP9 ADD PUSH2 0x3662 JUMP JUMPDEST SWAP4 POP POP PUSH1 0x40 DUP6 ADD CALLDATALOAD PUSH8 0xFFFFFFFFFFFFFFFF DUP2 GT ISZERO PUSH2 0x3791 JUMPI PUSH2 0x3790 PUSH2 0x3286 JUMP JUMPDEST JUMPDEST PUSH2 0x379D DUP8 DUP3 DUP9 ADD PUSH2 0x3662 JUMP JUMPDEST SWAP3 POP POP PUSH1 0x60 DUP6 ADD CALLDATALOAD PUSH8 0xFFFFFFFFFFFFFFFF DUP2 GT ISZERO PUSH2 0x37BE JUMPI PUSH2 0x37BD PUSH2 0x3286 JUMP JUMPDEST JUMPDEST PUSH2 0x37CA DUP8 DUP3 DUP9 ADD PUSH2 0x3662 JUMP JUMPDEST SWAP2 POP POP SWAP3 SWAP6 SWAP2 SWAP5 POP SWAP3 POP JUMP JUMPDEST PUSH1 0x0 DUP2 MLOAD SWAP1 POP SWAP2 SWAP1 POP JUMP JUMPDEST PUSH1 0x0 DUP3 DUP3 MSTORE PUSH1 0x20 DUP3 ADD SWAP1 POP SWAP3 SWAP2 POP POP JUMP JUMPDEST PUSH1 0x0 DUP2 SWAP1 POP PUSH1 0x20 DUP3 ADD SWAP1 POP SWAP2 SWAP1 POP JUMP JUMPDEST PUSH1 0x0 PUSH1 0x80 DUP4 ADD PUSH1 0x0 DUP4 ADD MLOAD PUSH2 0x381A PUSH1 0x0 DUP7 ADD DUP3 PUSH2 0x338B JUMP JUMPDEST POP PUSH1 0x20 DUP4 ADD MLOAD DUP5 DUP3 SUB PUSH1 0x20 DUP7 ADD MSTORE PUSH2 0x3832 DUP3 DUP3 PUSH2 0x33F1 JUMP JUMPDEST SWAP2 POP POP PUSH1 0x40 DUP4 ADD MLOAD DUP5 DUP3 SUB PUSH1 0x40 DUP7 ADD MSTORE PUSH2 0x384C DUP3 DUP3 PUSH2 0x33F1 JUMP JUMPDEST SWAP2 POP POP PUSH1 0x60 DUP4 ADD MLOAD PUSH2 0x3861 PUSH1 0x60 DUP7 ADD DUP3 PUSH2 0x342A JUMP JUMPDEST POP DUP1 SWAP2 POP POP SWAP3 SWAP2 POP POP JUMP JUMPDEST PUSH1 0x0 PUSH2 0x3878 DUP4 DUP4 PUSH2 0x3802 JUMP JUMPDEST SWAP1 POP SWAP3 SWAP2 POP POP JUMP JUMPDEST PUSH1 0x0 PUSH1 0x20 DUP3 ADD SWAP1 POP SWAP2 SWAP1 POP JUMP JUMPDEST PUSH1 0x0 PUSH2 0x3898 DUP3 PUSH2 0x37D6 JUMP JUMPDEST PUSH2 0x38A2 DUP2 DUP6 PUSH2 0x37E1 JUMP JUMPDEST SWAP4 POP DUP4 PUSH1 0x20 DUP3 MUL DUP6 ADD PUSH2 0x38B4 DUP6 PUSH2 0x37F2 JUMP JUMPDEST DUP1 PUSH1 0x0 JUMPDEST DUP6 DUP2 LT ISZERO PUSH2 0x38F0 JUMPI DUP5 DUP5 SUB DUP10 MSTORE DUP2 MLOAD PUSH2 0x38D1 DUP6 DUP3 PUSH2 0x386C JUMP JUMPDEST SWAP5 POP PUSH2 0x38DC DUP4 PUSH2 0x3880 JUMP JUMPDEST SWAP3 POP PUSH1 0x20 DUP11 ADD SWAP10 POP POP PUSH1 0x1 DUP2 ADD SWAP1 POP PUSH2 0x38B8 JUMP JUMPDEST POP DUP3 SWAP8 POP DUP8 SWAP6 POP POP POP POP POP POP SWAP3 SWAP2 POP POP JUMP JUMPDEST PUSH1 0x0 PUSH1 0x20 DUP3 ADD SWAP1 POP DUP2 DUP2 SUB PUSH1 0x0 DUP4 ADD MSTORE PUSH2 0x391C DUP2 DUP5 PUSH2 0x388D JUMP JUMPDEST SWAP1 POP SWAP3 SWAP2 POP POP JUMP JUMPDEST PUSH1 0x0 DUP1 PUSH1 0x40 DUP4 DUP6 SUB SLT ISZERO PUSH2 0x393B JUMPI PUSH2 0x393A PUSH2 0x3281 JUMP JUMPDEST JUMPDEST PUSH1 0x0 DUP4 ADD CALLDATALOAD PUSH8 0xFFFFFFFFFFFFFFFF DUP2 GT ISZERO PUSH2 0x3959 JUMPI PUSH2 0x3958 PUSH2 0x3286 JUMP JUMPDEST JUMPDEST PUSH2 0x3965 DUP6 DUP3 DUP7 ADD PUSH2 0x3662 JUMP JUMPDEST SWAP3 POP POP PUSH1 0x20 PUSH2 0x3976 DUP6 DUP3 DUP7 ADD PUSH2 0x32D4 JUMP JUMPDEST SWAP2 POP POP SWAP3 POP SWAP3 SWAP1 POP JUMP JUMPDEST PUSH1 0x0 DUP1 PUSH1 0x40 DUP4 DUP6 SUB SLT ISZERO PUSH2 0x3997 JUMPI PUSH2 0x3996 PUSH2 0x3281 JUMP JUMPDEST JUMPDEST PUSH1 0x0 PUSH2 0x39A5 DUP6 DUP3 DUP7 ADD PUSH2 0x32D4 JUMP JUMPDEST SWAP3 POP POP PUSH1 0x20 DUP4 ADD CALLDATALOAD PUSH8 0xFFFFFFFFFFFFFFFF DUP2 GT ISZERO PUSH2 0x39C6 JUMPI PUSH2 0x39C5 PUSH2 0x3286 JUMP JUMPDEST JUMPDEST PUSH2 0x39D2 DUP6 DUP3 DUP7 ADD PUSH2 0x3662 JUMP JUMPDEST SWAP2 POP POP SWAP3 POP SWAP3 SWAP1 POP JUMP JUMPDEST PUSH1 0x0 DUP2 ISZERO ISZERO SWAP1 POP SWAP2 SWAP1 POP JUMP JUMPDEST PUSH2 0x39F1 DUP2 PUSH2 0x39DC JUMP JUMPDEST DUP3 MSTORE POP POP JUMP JUMPDEST PUSH1 0x0 PUSH1 0x20 DUP3 ADD SWAP1 POP PUSH2 0x3A0C PUSH1 0x0 DUP4 ADD DUP5 PUSH2 0x39E8 JUMP JUMPDEST SWAP3 SWAP2 POP POP JUMP JUMPDEST PUSH1 0x0 PUSH1 0x20 DUP3 DUP5 SUB SLT ISZERO PUSH2 0x3A28 JUMPI PUSH2 0x3A27 PUSH2 0x3281 JUMP JUMPDEST JUMPDEST PUSH1 0x0 PUSH2 0x3A36 DUP5 DUP3 DUP6 ADD PUSH2 0x32D4 JUMP JUMPDEST SWAP2 POP POP SWAP3 SWAP2 POP POP JUMP JUMPDEST PUSH1 0x0 PUSH1 0x20 DUP3 DUP5 SUB SLT ISZERO PUSH2 0x3A55 JUMPI PUSH2 0x3A54 PUSH2 0x3281 JUMP JUMPDEST JUMPDEST PUSH1 0x0 DUP3 ADD CALLDATALOAD PUSH8 0xFFFFFFFFFFFFFFFF DUP2 GT ISZERO PUSH2 0x3A73 JUMPI PUSH2 0x3A72 PUSH2 0x3286 JUMP JUMPDEST JUMPDEST PUSH2 0x3A7F DUP5 DUP3 DUP6 ADD PUSH2 0x3662 JUMP JUMPDEST SWAP2 POP POP SWAP3 SWAP2 POP POP JUMP JUMPDEST PUSH1 0x0 DUP2 MLOAD SWAP1 POP SWAP2 SWAP1 POP JUMP JUMPDEST PUSH1 0x0 DUP3 DUP3 MSTORE PUSH1 0x20 DUP3 ADD SWAP1 POP SWAP3 SWAP2 POP POP JUMP JUMPDEST PUSH1 0x0 DUP2 SWAP1 POP PUSH1 0x20 DUP3 ADD SWAP1 POP SWAP2 SWAP1 POP JUMP JUMPDEST PUSH1 0x0 PUSH1 0x60 DUP4 ADD PUSH1 0x0 DUP4 ADD MLOAD PUSH2 0x3ACC PUSH1 0x0 DUP7 ADD DUP3 PUSH2 0x338B JUMP JUMPDEST POP PUSH1 0x20 DUP4 ADD MLOAD DUP5 DUP3 SUB PUSH1 0x20 DUP7 ADD MSTORE PUSH2 0x3AE4 DUP3 DUP3 PUSH2 0x33F1 JUMP JUMPDEST SWAP2 POP POP PUSH1 0x40 DUP4 ADD MLOAD PUSH2 0x3AF9 PUSH1 0x40 DUP7 ADD DUP3 PUSH2 0x342A JUMP JUMPDEST POP DUP1 SWAP2 POP POP SWAP3 SWAP2 POP POP JUMP JUMPDEST PUSH1 0x0 PUSH2 0x3B10 DUP4 DUP4 PUSH2 0x3AB4 JUMP JUMPDEST SWAP1 POP SWAP3 SWAP2 POP POP JUMP JUMPDEST PUSH1 0x0 PUSH1 0x20 DUP3 ADD SWAP1 POP SWAP2 SWAP1 POP JUMP JUMPDEST PUSH1 0x0 PUSH2 0x3B30 DUP3 PUSH2 0x3A88 JUMP JUMPDEST PUSH2 0x3B3A DUP2 DUP6 PUSH2 0x3A93 JUMP JUMPDEST SWAP4 POP DUP4 PUSH1 0x20 DUP3 MUL DUP6 ADD PUSH2 0x3B4C DUP6 PUSH2 0x3AA4 JUMP JUMPDEST DUP1 PUSH1 0x0 JUMPDEST DUP6 DUP2 LT ISZERO PUSH2 0x3B88 JUMPI DUP5 DUP5 SUB DUP10 MSTORE DUP2 MLOAD PUSH2 0x3B69 DUP6 DUP3 PUSH2 0x3B04 JUMP JUMPDEST SWAP5 POP PUSH2 0x3B74 DUP4 PUSH2 0x3B18 JUMP JUMPDEST SWAP3 POP PUSH1 0x20 DUP11 ADD SWAP10 POP POP PUSH1 0x1 DUP2 ADD SWAP1 POP PUSH2 0x3B50 JUMP JUMPDEST POP DUP3 SWAP8 POP DUP8 SWAP6 POP POP POP POP POP POP SWAP3 SWAP2 POP POP JUMP JUMPDEST PUSH1 0x0 PUSH1 0x20 DUP3 ADD SWAP1 POP DUP2 DUP2 SUB PUSH1 0x0 DUP4 ADD MSTORE PUSH2 0x3BB4 DUP2 DUP5 PUSH2 0x3B25 JUMP JUMPDEST SWAP1 POP SWAP3 SWAP2 POP POP JUMP JUMPDEST PUSH1 0x0 DUP2 MLOAD SWAP1 POP SWAP2 SWAP1 POP JUMP JUMPDEST PUSH1 0x0 DUP3 DUP3 MSTORE PUSH1 0x20 DUP3 ADD SWAP1 POP SWAP3 SWAP2 POP POP JUMP JUMPDEST PUSH1 0x0 DUP2 SWAP1 POP PUSH1 0x20 DUP3 ADD SWAP1 POP SWAP2 SWAP1 POP JUMP JUMPDEST PUSH1 0x0 DUP2 MLOAD SWAP1 POP SWAP2 SWAP1 POP JUMP JUMPDEST PUSH1 0x0 DUP3 DUP3 MSTORE PUSH1 0x20 DUP3 ADD SWAP1 POP SWAP3 SWAP2 POP POP JUMP JUMPDEST PUSH1 0x0 DUP2 SWAP1 POP PUSH1 0x20 DUP3 ADD SWAP1 POP SWAP2 SWAP1 POP JUMP JUMPDEST PUSH1 0x0 PUSH2 0x3C20 DUP4 DUP4 PUSH2 0x33F1 JUMP JUMPDEST SWAP1 POP SWAP3 SWAP2 POP POP JUMP JUMPDEST PUSH1 0x0 PUSH1 0x20 DUP3 ADD SWAP1 POP SWAP2 SWAP1 POP JUMP JUMPDEST PUSH1 0x0 PUSH2 0x3C40 DUP3 PUSH2 0x3BE8 JUMP JUMPDEST PUSH2 0x3C4A DUP2 DUP6 PUSH2 0x3BF3 JUMP JUMPDEST SWAP4 POP DUP4 PUSH1 0x20 DUP3 MUL DUP6 ADD PUSH2 0x3C5C DUP6 PUSH2 0x3C04 JUMP JUMPDEST DUP1 PUSH1 0x0 JUMPDEST DUP6 DUP2 LT ISZERO PUSH2 0x3C98 JUMPI DUP5 DUP5 SUB DUP10 MSTORE DUP2 MLOAD PUSH2 0x3C79 DUP6 DUP3 PUSH2 0x3C14 JUMP JUMPDEST SWAP5 POP PUSH2 0x3C84 DUP4 PUSH2 0x3C28 JUMP JUMPDEST SWAP3 POP PUSH1 0x20 DUP11 ADD SWAP10 POP POP PUSH1 0x1 DUP2 ADD SWAP1 POP PUSH2 0x3C60 JUMP JUMPDEST POP DUP3 SWAP8 POP DUP8 SWAP6 POP POP POP POP POP POP SWAP3 SWAP2 POP POP JUMP JUMPDEST PUSH1 0x0 PUSH2 0x120 DUP4 ADD PUSH1 0x0 DUP4 ADD MLOAD DUP5 DUP3 SUB PUSH1 0x0 DUP7 ADD MSTORE PUSH2 0x3CC8 DUP3 DUP3 PUSH2 0x33F1 JUMP JUMPDEST SWAP2 POP POP PUSH1 0x20 DUP4 ADD MLOAD DUP5 DUP3 SUB PUSH1 0x20 DUP7 ADD MSTORE PUSH2 0x3CE2 DUP3 DUP3 PUSH2 0x33F1 JUMP JUMPDEST SWAP2 POP POP PUSH1 0x40 DUP4 ADD MLOAD DUP5 DUP3 SUB PUSH1 0x40 DUP7 ADD MSTORE PUSH2 0x3CFC DUP3 DUP3 PUSH2 0x33F1 JUMP JUMPDEST SWAP2 POP POP PUSH1 0x60 DUP4 ADD MLOAD PUSH2 0x3D11 PUSH1 0x60 DUP7 ADD DUP3 PUSH2 0x342A JUMP JUMPDEST POP PUSH1 0x80 DUP4 ADD MLOAD PUSH2 0x3D24 PUSH1 0x80 DUP7 ADD DUP3 PUSH2 0x338B JUMP JUMPDEST POP PUSH1 0xA0 DUP4 ADD MLOAD DUP5 DUP3 SUB PUSH1 0xA0 DUP7 ADD MSTORE PUSH2 0x3D3C DUP3 DUP3 PUSH2 0x33F1 JUMP JUMPDEST SWAP2 POP POP PUSH1 0xC0 DUP4 ADD MLOAD DUP5 DUP3 SUB PUSH1 0xC0 DUP7 ADD MSTORE PUSH2 0x3D56 DUP3 DUP3 PUSH2 0x3C35 JUMP JUMPDEST SWAP2 POP POP PUSH1 0xE0 DUP4 ADD MLOAD DUP5 DUP3 SUB PUSH1 0xE0 DUP7 ADD MSTORE PUSH2 0x3D70 DUP3 DUP3 PUSH2 0x3C35 JUMP JUMPDEST SWAP2 POP POP PUSH2 0x100 DUP4 ADD MLOAD DUP5 DUP3 SUB PUSH2 0x100 DUP7 ADD MSTORE PUSH2 0x3D8C DUP3 DUP3 PUSH2 0x3C35 JUMP JUMPDEST SWAP2 POP POP DUP1 SWAP2 POP POP SWAP3 SWAP2 POP POP JUMP JUMPDEST PUSH1 0x0 PUSH2 0x3DA5 DUP4 DUP4 PUSH2 0x3CAA JUMP JUMPDEST SWAP1 POP SWAP3 SWAP2 POP POP JUMP JUMPDEST PUSH1 0x0 PUSH1 0x20 DUP3 ADD SWAP1 POP SWAP2 SWAP1 POP JUMP JUMPDEST PUSH1 0x0 PUSH2 0x3DC5 DUP3 PUSH2 0x3BBC JUMP JUMPDEST PUSH2 0x3DCF DUP2 DUP6 PUSH2 0x3BC7 JUMP JUMPDEST SWAP4 POP DUP4 PUSH1 0x20 DUP3 MUL DUP6 ADD PUSH2 0x3DE1 DUP6 PUSH2 0x3BD8 JUMP JUMPDEST DUP1 PUSH1 0x0 JUMPDEST DUP6 DUP2 LT ISZERO PUSH2 0x3E1D JUMPI DUP5 DUP5 SUB DUP10 MSTORE DUP2 MLOAD PUSH2 0x3DFE DUP6 DUP3 PUSH2 0x3D99 JUMP JUMPDEST SWAP5 POP PUSH2 0x3E09 DUP4 PUSH2 0x3DAD JUMP JUMPDEST SWAP3 POP PUSH1 0x20 DUP11 ADD SWAP10 POP POP PUSH1 0x1 DUP2 ADD SWAP1 POP PUSH2 0x3DE5 JUMP JUMPDEST POP DUP3 SWAP8 POP DUP8 SWAP6 POP POP POP POP POP POP SWAP3 SWAP2 POP POP JUMP JUMPDEST PUSH1 0x0 PUSH1 0x20 DUP3 ADD SWAP1 POP DUP2 DUP2 SUB PUSH1 0x0 DUP4 ADD MSTORE PUSH2 0x3E49 DUP2 DUP5 PUSH2 0x3DBA JUMP JUMPDEST SWAP1 POP SWAP3 SWAP2 POP POP JUMP JUMPDEST PUSH1 0x0 DUP1 PUSH1 0x0 DUP1 PUSH1 0x0 PUSH1 0xA0 DUP7 DUP9 SUB SLT ISZERO PUSH2 0x3E6D JUMPI PUSH2 0x3E6C PUSH2 0x3281 JUMP JUMPDEST JUMPDEST PUSH1 0x0 DUP7 ADD CALLDATALOAD PUSH8 0xFFFFFFFFFFFFFFFF DUP2 GT ISZERO PUSH2 0x3E8B JUMPI PUSH2 0x3E8A PUSH2 0x3286 JUMP JUMPDEST JUMPDEST PUSH2 0x3E97 DUP9 DUP3 DUP10 ADD PUSH2 0x3662 JUMP JUMPDEST SWAP6 POP POP PUSH1 0x20 DUP7 ADD CALLDATALOAD PUSH8 0xFFFFFFFFFFFFFFFF DUP2 GT ISZERO PUSH2 0x3EB8 JUMPI PUSH2 0x3EB7 PUSH2 0x3286 JUMP JUMPDEST JUMPDEST PUSH2 0x3EC4 DUP9 DUP3 DUP10 ADD PUSH2 0x3662 JUMP JUMPDEST SWAP5 POP POP PUSH1 0x40 DUP7 ADD CALLDATALOAD PUSH8 0xFFFFFFFFFFFFFFFF DUP2 GT ISZERO PUSH2 0x3EE5 JUMPI PUSH2 0x3EE4 PUSH2 0x3286 JUMP JUMPDEST JUMPDEST PUSH2 0x3EF1 DUP9 DUP3 DUP10 ADD PUSH2 0x3662 JUMP JUMPDEST SWAP4 POP POP PUSH1 0x60 PUSH2 0x3F02 DUP9 DUP3 DUP10 ADD PUSH2 0x32D4 JUMP JUMPDEST SWAP3 POP POP PUSH1 0x80 DUP7 ADD CALLDATALOAD PUSH8 0xFFFFFFFFFFFFFFFF DUP2 GT ISZERO PUSH2 0x3F23 JUMPI PUSH2 0x3F22 PUSH2 0x3286 JUMP JUMPDEST JUMPDEST PUSH2 0x3F2F DUP9 DUP3 DUP10 ADD PUSH2 0x3662 JUMP JUMPDEST SWAP2 POP POP SWAP3 SWAP6 POP SWAP3 SWAP6 SWAP1 SWAP4 POP JUMP JUMPDEST PUSH32 0x4E487B7100000000000000000000000000000000000000000000000000000000 PUSH1 0x0 MSTORE PUSH1 0x32 PUSH1 0x4 MSTORE PUSH1 0x24 PUSH1 0x0 REVERT JUMPDEST PUSH32 0x4E487B7100000000000000000000000000000000000000000000000000000000 PUSH1 0x0 MSTORE PUSH1 0x11 PUSH1 0x4 MSTORE PUSH1 0x24 PUSH1 0x0 REVERT JUMPDEST PUSH1 0x0 PUSH2 0x3FA5 DUP3 PUSH2 0x32E9 JUMP JUMPDEST SWAP2 POP PUSH32 0xFFFFFFFFFFFFFFFFFFFFFFFFFFFFFFFFFFFFFFFFFFFFFFFFFFFFFFFFFFFFFFFF DUP3 SUB PUSH2 0x3FD7 JUMPI PUSH2 0x3FD6 PUSH2 0x3F6B JUMP JUMPDEST JUMPDEST PUSH1 0x1 DUP3 ADD SWAP1 POP SWAP2 SWAP1 POP JUMP JUMPDEST PUSH1 0x0 PUSH2 0x3FED DUP3 PUSH2 0x32E9 JUMP JUMPDEST SWAP2 POP PUSH2 0x3FF8 DUP4 PUSH2 0x32E9 JUMP JUMPDEST SWAP3 POP DUP3 DUP3 SUB SWAP1 POP DUP2 DUP2 GT ISZERO PUSH2 0x4010 JUMPI PUSH2 0x400F PUSH2 0x3F6B JUMP JUMPDEST JUMPDEST SWAP3 SWAP2 POP POP JUMP JUMPDEST PUSH1 0x0 PUSH2 0x4021 DUP3 PUSH2 0x32E9 JUMP JUMPDEST SWAP2 POP PUSH2 0x402C DUP4 PUSH2 0x32E9 JUMP JUMPDEST SWAP3 POP DUP3 DUP3 ADD SWAP1 POP DUP1 DUP3 GT ISZERO PUSH2 0x4044 JUMPI PUSH2 0x4043 PUSH2 0x3F6B JUMP JUMPDEST JUMPDEST SWAP3 SWAP2 POP POP JUMP JUMPDEST PUSH32 0x4E487B7100000000000000000000000000000000000000000000000000000000 PUSH1 0x0 MSTORE PUSH1 0x22 PUSH1 0x4 MSTORE PUSH1 0x24 PUSH1 0x0 REVERT JUMPDEST PUSH1 0x0 PUSH1 0x2 DUP3 DIV SWAP1 POP PUSH1 0x1 DUP3 AND DUP1 PUSH2 0x4091 JUMPI PUSH1 0x7F DUP3 AND SWAP2 POP JUMPDEST PUSH1 0x20 DUP3 LT DUP2 SUB PUSH2 0x40A4 JUMPI PUSH2 0x40A3 PUSH2 0x404A JUMP JUMPDEST JUMPDEST POP SWAP2 SWAP1 POP JUMP JUMPDEST PUSH1 0x0 DUP2 SLOAD SWAP1 POP PUSH2 0x40B9 DUP2 PUSH2 0x4079 JUMP JUMPDEST SWAP1 POP SWAP2 SWAP1 POP JUMP JUMPDEST PUSH1 0x0 DUP2 SWAP1 POP DUP2 PUSH1 0x0 MSTORE PUSH1 0x20 PUSH1 0x0 KECCAK256 SWAP1 POP SWAP2 SWAP1 POP JUMP JUMPDEST PUSH1 0x0 DUP2 SWAP1 POP DUP2 PUSH1 0x0 MSTORE PUSH1 0x20 PUSH1 0x0 KECCAK256 SWAP1 POP SWAP2 SWAP1 POP JUMP JUMPDEST PUSH1 0x0 PUSH1 0x20 PUSH1 0x1F DUP4 ADD DIV SWAP1 POP SWAP2 SWAP1 POP JUMP JUMPDEST PUSH1 0x0 DUP3 DUP3 SHL SWAP1 POP SWAP3 SWAP2 POP POP JUMP JUMPDEST PUSH1 0x0 PUSH1 0x8 DUP4 MUL PUSH2 0x4137 PUSH32 0xFFFFFFFFFFFFFFFFFFFFFFFFFFFFFFFFFFFFFFFFFFFFFFFFFFFFFFFFFFFFFFFF DUP3 PUSH2 0x40FA JUMP JUMPDEST PUSH2 0x4141 DUP7 DUP4 PUSH2 0x40FA JUMP JUMPDEST SWAP6 POP DUP1 NOT DUP5 AND SWAP4 POP DUP1 DUP7 AND DUP5 OR SWAP3 POP POP POP SWAP4 SWAP3 POP POP POP JUMP JUMPDEST PUSH1 0x0 DUP2 SWAP1 POP SWAP2 SWAP1 POP JUMP JUMPDEST PUSH1 0x0 PUSH2 0x417E PUSH2 0x4179 PUSH2 0x4174 DUP5 PUSH2 0x32E9 JUMP JUMPDEST PUSH2 0x4159 JUMP JUMPDEST PUSH2 0x32E9 JUMP JUMPDEST SWAP1 POP SWAP2 SWAP1 POP JUMP JUMPDEST PUSH1 0x0 DUP2 SWAP1 POP SWAP2 SWAP1 POP JUMP JUMPDEST PUSH2 0x4198 DUP4 PUSH2 0x4163 JUMP JUMPDEST PUSH2 0x41AC PUSH2 0x41A4 DUP3 PUSH2 0x4185 JUMP JUMPDEST DUP5 DUP5 SLOAD PUSH2 0x4107 JUMP JUMPDEST DUP3 SSTORE POP POP POP POP JUMP JUMPDEST PUSH1 0x0 SWAP1 JUMP JUMPDEST PUSH2 0x41C1 PUSH2 0x41B4 JUMP JUMPDEST PUSH2 0x41CC DUP2 DUP5 DUP5 PUSH2 0x418F JUMP JUMPDEST POP POP POP JUMP JUMPDEST JUMPDEST DUP2 DUP2 LT ISZERO PUSH2 0x41F0 JUMPI PUSH2 0x41E5 PUSH1 0x0 DUP3 PUSH2 0x41B9 JUMP JUMPDEST PUSH1 0x1 DUP2 ADD SWAP1 POP PUSH2 0x41D2 JUMP JUMPDEST POP POP JUMP JUMPDEST PUSH1 0x1F DUP3 GT ISZERO PUSH2 0x4235 JUMPI PUSH2 0x4206 DUP2 PUSH2 0x40C0 JUMP JUMPDEST PUSH2 0x420F DUP5 PUSH2 0x40EA JUMP JUMPDEST DUP2 ADD PUSH1 0x20 DUP6 LT ISZERO PUSH2 0x421E JUMPI DUP2 SWAP1 POP JUMPDEST PUSH2 0x4232 PUSH2 0x422A DUP6 PUSH2 0x40EA JUMP JUMPDEST DUP4 ADD DUP3 PUSH2 0x41D1 JUMP JUMPDEST POP POP JUMPDEST POP POP POP JUMP JUMPDEST PUSH1 0x0 DUP3 DUP3 SHR SWAP1 POP SWAP3 SWAP2 POP POP JUMP JUMPDEST PUSH1 0x0 PUSH2 0x4258 PUSH1 0x0 NOT DUP5 PUSH1 0x8 MUL PUSH2 0x423A JUMP JUMPDEST NOT DUP1 DUP4 AND SWAP2 POP POP SWAP3 SWAP2 POP POP JUMP JUMPDEST PUSH1 0x0 PUSH2 0x4271 DUP4 DUP4 PUSH2 0x4247 JUMP JUMPDEST SWAP2 POP DUP3 PUSH1 0x2 MUL DUP3 OR SWAP1 POP SWAP3 SWAP2 POP POP JUMP JUMPDEST DUP2 DUP2 SUB PUSH2 0x428F JUMPI POP POP PUSH2 0x4367 JUMP JUMPDEST PUSH2 0x4298 DUP3 PUSH2 0x40AA JUMP JUMPDEST PUSH8 0xFFFFFFFFFFFFFFFF DUP2 GT ISZERO PUSH2 0x42B1 JUMPI PUSH2 0x42B0 PUSH2 0x3565 JUMP JUMPDEST JUMPDEST PUSH2 0x42BB DUP3 SLOAD PUSH2 0x4079 JUMP JUMPDEST PUSH2 0x42C6 DUP3 DUP3 DUP6 PUSH2 0x41F4 JUMP JUMPDEST PUSH1 0x0 PUSH1 0x1F DUP4 GT PUSH1 0x1 DUP2 EQ PUSH2 0x42F5 JUMPI PUSH1 0x0 DUP5 ISZERO PUSH2 0x42E3 JUMPI DUP3 DUP8 ADD SLOAD SWAP1 POP JUMPDEST PUSH2 0x42ED DUP6 DUP3 PUSH2 0x4265 JUMP JUMPDEST DUP7 SSTORE POP PUSH2 0x4360 JUMP JUMPDEST PUSH1 0x1F NOT DUP5 AND PUSH2 0x4303 DUP8 PUSH2 0x40D5 JUMP JUMPDEST SWAP7 POP PUSH2 0x430E DUP7 PUSH2 0x40C0 JUMP JUMPDEST PUSH1 0x0 JUMPDEST DUP3 DUP2 LT ISZERO PUSH2 0x4336 JUMPI DUP5 DUP10 ADD SLOAD DUP3 SSTORE PUSH1 0x1 DUP3 ADD SWAP2 POP PUSH1 0x1 DUP6 ADD SWAP5 POP PUSH1 0x20 DUP2 ADD SWAP1 POP PUSH2 0x4311 JUMP JUMPDEST DUP7 DUP4 LT ISZERO PUSH2 0x4353 JUMPI DUP5 DUP10 ADD SLOAD PUSH2 0x434F PUSH1 0x1F DUP10 AND DUP3 PUSH2 0x4247 JUMP JUMPDEST DUP4 SSTORE POP JUMPDEST PUSH1 0x1 PUSH1 0x2 DUP9 MUL ADD DUP9 SSTORE POP POP POP JUMPDEST POP POP POP POP POP POP JUMPDEST JUMP JUMPDEST PUSH32 0x4E487B7100000000000000000000000000000000000000000000000000000000 PUSH1 0x0 MSTORE PUSH1 0x31 PUSH1 0x4 MSTORE PUSH1 0x24 PUSH1 0x0 REVERT JUMPDEST PUSH1 0x0 DUP2 SWAP1 POP SWAP3 SWAP2 POP POP JUMP JUMPDEST PUSH1 0x0 DUP2 SLOAD PUSH2 0x43B0 DUP2 PUSH2 0x4079 JUMP JUMPDEST PUSH2 0x43BA DUP2 DUP7 PUSH2 0x4398 JUMP JUMPDEST SWAP5 POP PUSH1 0x1 DUP3 AND PUSH1 0x0 DUP2 EQ PUSH2 0x43D5 JUMPI PUSH1 0x1 DUP2 EQ PUSH2 0x43EA JUMPI PUSH2 0x441D JUMP JUMPDEST PUSH1 0xFF NOT DUP4 AND DUP7 MSTORE DUP2 ISZERO ISZERO DUP3 MUL DUP7 ADD SWAP4 POP PUSH2 0x441D JUMP JUMPDEST PUSH2 0x43F3 DUP6 PUSH2 0x40C0 JUMP JUMPDEST PUSH1 0x0 JUMPDEST DUP4 DUP2 LT ISZERO PUSH2 0x4415 JUMPI DUP2 SLOAD DUP2 DUP10 ADD MSTORE PUSH1 0x1 DUP3 ADD SWAP2 POP PUSH1 0x20 DUP2 ADD SWAP1 POP PUSH2 0x43F6 JUMP JUMPDEST DUP4 DUP9 ADD SWAP6 POP POP POP JUMPDEST POP POP POP SWAP3 SWAP2 POP POP JUMP JUMPDEST PUSH1 0x0 PUSH2 0x4432 DUP3 DUP5 PUSH2 0x43A3 JUMP JUMPDEST SWAP2 POP DUP2 SWAP1 POP SWAP3 SWAP2 POP POP JUMP JUMPDEST PUSH1 0x0 DUP2 SLOAD SWAP1 POP PUSH2 0x444C DUP2 PUSH2 0x4079 JUMP JUMPDEST SWAP1 POP SWAP2 SWAP1 POP JUMP JUMPDEST DUP2 DUP2 SUB PUSH2 0x4461 JUMPI POP POP PUSH2 0x4539 JUMP JUMPDEST PUSH2 0x446A DUP3 PUSH2 0x443D JUMP JUMPDEST PUSH8 0xFFFFFFFFFFFFFFFF DUP2 GT ISZERO PUSH2 0x4483 JUMPI PUSH2 0x4482 PUSH2 0x3565 JUMP JUMPDEST JUMPDEST PUSH2 0x448D DUP3 SLOAD PUSH2 0x4079 JUMP JUMPDEST PUSH2 0x4498 DUP3 DUP3 DUP6 PUSH2 0x41F4 JUMP JUMPDEST PUSH1 0x0 PUSH1 0x1F DUP4 GT PUSH1 0x1 DUP2 EQ PUSH2 0x44C7 JUMPI PUSH1 0x0 DUP5 ISZERO PUSH2 0x44B5 JUMPI DUP3 DUP8 ADD SLOAD SWAP1 POP JUMPDEST PUSH2 0x44BF DUP6 DUP3 PUSH2 0x4265 JUMP JUMPDEST DUP7 SSTORE POP PUSH2 0x4532 JUMP JUMPDEST PUSH1 0x1F NOT DUP5 AND PUSH2 0x44D5 DUP8 PUSH2 0x40C0 JUMP JUMPDEST SWAP7 POP PUSH2 0x44E0 DUP7 PUSH2 0x40C0 JUMP JUMPDEST PUSH1 0x0 JUMPDEST DUP3 DUP2 LT ISZERO PUSH2 0x4508 JUMPI DUP5 DUP10 ADD SLOAD DUP3 SSTORE PUSH1 0x1 DUP3 ADD SWAP2 POP PUSH1 0x1 DUP6 ADD SWAP5 POP PUSH1 0x20 DUP2 ADD SWAP1 POP PUSH2 0x44E3 JUMP JUMPDEST DUP7 DUP4 LT ISZERO PUSH2 0x4525 JUMPI DUP5 DUP10 ADD SLOAD PUSH2 0x4521 PUSH1 0x1F DUP10 AND DUP3 PUSH2 0x4247 JUMP JUMPDEST DUP4 SSTORE POP JUMPDEST PUSH1 0x1 PUSH1 0x2 DUP9 MUL ADD DUP9 SSTORE POP POP POP JUMPDEST POP POP POP POP POP POP JUMPDEST JUMP JUMPDEST PUSH1 0x0 DUP3 DUP3 MSTORE PUSH1 0x20 DUP3 ADD SWAP1 POP SWAP3 SWAP2 POP POP JUMP JUMPDEST PUSH32 0x706C656173652070617920312047776900000000000000000000000000000000 PUSH1 0x0 DUP3 ADD MSTORE POP JUMP JUMPDEST PUSH1 0x0 PUSH2 0x4582 PUSH1 0x10 DUP4 PUSH2 0x453B JUMP JUMPDEST SWAP2 POP PUSH2 0x458D DUP3 PUSH2 0x454C JUMP JUMPDEST PUSH1 0x20 DUP3 ADD SWAP1 POP SWAP2 SWAP1 POP JUMP JUMPDEST PUSH1 0x0 PUSH1 0x20 DUP3 ADD SWAP1 POP DUP2 DUP2 SUB PUSH1 0x0 DUP4 ADD MSTORE PUSH2 0x45B1 DUP2 PUSH2 0x4575 JUMP JUMPDEST SWAP1 POP SWAP2 SWAP1 POP JUMP JUMPDEST PUSH2 0x45C1 DUP3 PUSH2 0x339A JUMP JUMPDEST PUSH8 0xFFFFFFFFFFFFFFFF DUP2 GT ISZERO PUSH2 0x45DA JUMPI PUSH2 0x45D9 PUSH2 0x3565 JUMP JUMPDEST JUMPDEST PUSH2 0x45E4 DUP3 SLOAD PUSH2 0x4079 JUMP JUMPDEST PUSH2 0x45EF DUP3 DUP3 DUP6 PUSH2 0x41F4 JUMP JUMPDEST PUSH1 0x0 PUSH1 0x20 SWAP1 POP PUSH1 0x1F DUP4 GT PUSH1 0x1 DUP2 EQ PUSH2 0x4622 JUMPI PUSH1 0x0 DUP5 ISZERO PUSH2 0x4610 JUMPI DUP3 DUP8 ADD MLOAD SWAP1 POP JUMPDEST PUSH2 0x461A DUP6 DUP3 PUSH2 0x4265 JUMP JUMPDEST DUP7 SSTORE POP PUSH2 0x4682 JUMP JUMPDEST PUSH1 0x1F NOT DUP5 AND PUSH2 0x4630 DUP7 PUSH2 0x40C0 JUMP JUMPDEST PUSH1 0x0 JUMPDEST DUP3 DUP2 LT ISZERO PUSH2 0x4658 JUMPI DUP5 DUP10 ADD MLOAD DUP3 SSTORE PUSH1 0x1 DUP3 ADD SWAP2 POP PUSH1 0x20 DUP6 ADD SWAP5 POP PUSH1 0x20 DUP2 ADD SWAP1 POP PUSH2 0x4633 JUMP JUMPDEST DUP7 DUP4 LT ISZERO PUSH2 0x4675 JUMPI DUP5 DUP10 ADD MLOAD PUSH2 0x4671 PUSH1 0x1F DUP10 AND DUP3 PUSH2 0x4247 JUMP JUMPDEST DUP4 SSTORE POP JUMPDEST PUSH1 0x1 PUSH1 0x2 DUP9 MUL ADD DUP9 SSTORE POP POP POP JUMPDEST POP POP POP POP POP POP JUMP JUMPDEST PUSH32 0x55736572204E6F7420466F756E64000000000000000000000000000000000000 PUSH1 0x0 DUP3 ADD MSTORE POP JUMP JUMPDEST PUSH1 0x0 PUSH2 0x46C0 PUSH1 0xE DUP4 PUSH2 0x453B JUMP JUMPDEST SWAP2 POP PUSH2 0x46CB DUP3 PUSH2 0x468A JUMP JUMPDEST PUSH1 0x20 DUP3 ADD SWAP1 POP SWAP2 SWAP1 POP JUMP JUMPDEST PUSH1 0x0 PUSH1 0x20 DUP3 ADD SWAP1 POP DUP2 DUP2 SUB PUSH1 0x0 DUP4 ADD MSTORE PUSH2 0x46EF DUP2 PUSH2 0x46B3 JUMP JUMPDEST SWAP1 POP SWAP2 SWAP1 POP JUMP JUMPDEST PUSH1 0x0 PUSH2 0x4701 DUP3 PUSH2 0x339A JUMP JUMPDEST PUSH2 0x470B DUP2 DUP6 PUSH2 0x4398 JUMP JUMPDEST SWAP4 POP PUSH2 0x471B DUP2 DUP6 PUSH1 0x20 DUP7 ADD PUSH2 0x33B6 JUMP JUMPDEST DUP1 DUP5 ADD SWAP2 POP POP SWAP3 SWAP2 POP POP JUMP JUMPDEST PUSH1 0x0 PUSH2 0x4733 DUP3 DUP5 PUSH2 0x46F6 JUMP JUMPDEST SWAP2 POP DUP2 SWAP1 POP SWAP3 SWAP2 POP POP JUMP JUMPDEST PUSH32 0x596F75206861766520616C7265616479205369676E5570000000000000000000 PUSH1 0x0 DUP3 ADD MSTORE POP JUMP JUMPDEST PUSH1 0x0 PUSH2 0x4774 PUSH1 0x17 DUP4 PUSH2 0x453B JUMP JUMPDEST SWAP2 POP PUSH2 0x477F DUP3 PUSH2 0x473E JUMP JUMPDEST PUSH1 0x20 DUP3 ADD SWAP1 POP SWAP2 SWAP1 POP JUMP JUMPDEST PUSH1 0x0 PUSH1 0x20 DUP3 ADD SWAP1 POP DUP2 DUP2 SUB PUSH1 0x0 DUP4 ADD MSTORE PUSH2 0x47A3 DUP2 PUSH2 0x4767 JUMP JUMPDEST SWAP1 POP SWAP2 SWAP1 POP JUMP JUMPDEST PUSH32 0x706C656173652070617920302047776900000000000000000000000000000000 PUSH1 0x0 DUP3 ADD MSTORE POP JUMP JUMPDEST PUSH1 0x0 PUSH2 0x47E0 PUSH1 0x10 DUP4 PUSH2 0x453B JUMP JUMPDEST SWAP2 POP PUSH2 0x47EB DUP3 PUSH2 0x47AA JUMP JUMPDEST PUSH1 0x20 DUP3 ADD SWAP1 POP SWAP2 SWAP1 POP JUMP JUMPDEST PUSH1 0x0 PUSH1 0x20 DUP3 ADD SWAP1 POP DUP2 DUP2 SUB PUSH1 0x0 DUP4 ADD MSTORE PUSH2 0x480F DUP2 PUSH2 0x47D3 JUMP JUMPDEST SWAP1 POP SWAP2 SWAP1 POP JUMP INVALID LOG2 PUSH5 0x6970667358 0x22 SLT KECCAK256 CALLVALUE MSIZE PUSH24 0x5520F6E298EA97B2D32600198B8F270E19620EB27A59F564 DIV SWAP5 DIV CREATE EXTCODEHASH PUSH5 0x736F6C6343 STOP ADDMOD GT STOP CALLER "},"methodIdentifiers":{"DeleteImages(string)":"d0564fb0","DeleteUser(address)":"a590e9c1","DeleteVideos(string)":"f678a7fd","DeletingTExt(address,uint256)":"0857c054","EditProfile(address,string,string,string)":"661c01cb","GetDataImages()":"7bd3a4ca","GetGlobalVideos()":"0f9d76d4","GetTextData()":"dc92b32d","GettingUserData()":"e51b6ad3","Login(address,string)":"a4b4e42b","POstImage(string,address,string)":"32c7c2ea","PostText(string,address)":"97f52dc1","PostVideos(string,address,string)":"f5296302","SignUp(string,string,string,address,string)":"f8059642","checksignup(address)":"ecdef347"}}}}}