{
  "_format": "hh-sol-artifact-1",
  "contractName": "SocialMeadia",
  "sourceName": "contracts/SocialMeadia.sol",
  "abi": [
    {
      "inputs": [],
      "stateMutability": "nonpayable",
      "type": "constructor"
    },
    {
      "inputs": [
        {
          "internalType": "string",
          "name": "imageUrl",
          "type": "string"
        }
      ],
      "name": "DeleteImages",
      "outputs": [],
      "stateMutability": "nonpayable",
      "type": "function"
    },
    {
      "inputs": [
        {
          "internalType": "address",
          "name": "UserKey",
          "type": "address"
        }
      ],
      "name": "DeleteUser",
      "outputs": [],
      "stateMutability": "nonpayable",
      "type": "function"
    },
    {
      "inputs": [
        {
          "internalType": "string",
          "name": "VideoUrl",
          "type": "string"
        }
      ],
      "name": "DeleteVideos",
      "outputs": [],
      "stateMutability": "nonpayable",
      "type": "function"
    },
    {
      "inputs": [
        {
          "internalType": "address",
          "name": "pubkey",
          "type": "address"
        },
        {
          "internalType": "uint256",
          "name": "index",
          "type": "uint256"
        }
      ],
      "name": "DeletingTExt",
      "outputs": [],
      "stateMutability": "nonpayable",
      "type": "function"
    },
    {
      "inputs": [
        {
          "internalType": "address",
          "name": "pubkey",
          "type": "address"
        },
        {
          "internalType": "string",
          "name": "FirstName",
          "type": "string"
        },
        {
          "internalType": "string",
          "name": "LastName",
          "type": "string"
        },
        {
          "internalType": "string",
          "name": "password",
          "type": "string"
        }
      ],
      "name": "EditProfile",
      "outputs": [],
      "stateMutability": "nonpayable",
      "type": "function"
    },
    {
      "inputs": [],
      "name": "GetDataImages",
      "outputs": [
        {
          "components": [
            {
              "internalType": "uint256",
              "name": "timestamp",
              "type": "uint256"
            },
            {
              "internalType": "string",
              "name": "url",
              "type": "string"
            },
            {
              "internalType": "string",
              "name": "photoDiscription",
              "type": "string"
            },
            {
              "internalType": "address",
              "name": "owner",
              "type": "address"
            }
          ],
          "internalType": "struct SocialMeadia.Photosfeed[]",
          "name": "",
          "type": "tuple[]"
        }
      ],
      "stateMutability": "view",
      "type": "function"
    },
    {
      "inputs": [],
      "name": "GetGlobalVideos",
      "outputs": [
        {
          "components": [
            {
              "internalType": "uint256",
              "name": "timestamp",
              "type": "uint256"
            },
            {
              "internalType": "string",
              "name": "url",
              "type": "string"
            },
            {
              "internalType": "address",
              "name": "owner",
              "type": "address"
            },
            {
              "internalType": "string",
              "name": "VideosDiscription",
              "type": "string"
            }
          ],
          "internalType": "struct SocialMeadia.videosfeed[]",
          "name": "",
          "type": "tuple[]"
        }
      ],
      "stateMutability": "view",
      "type": "function"
    },
    {
      "inputs": [],
      "name": "GetTextData",
      "outputs": [
        {
          "components": [
            {
              "internalType": "uint256",
              "name": "timestamp",
              "type": "uint256"
            },
            {
              "internalType": "string",
              "name": "text",
              "type": "string"
            },
            {
              "internalType": "address",
              "name": "owner",
              "type": "address"
            }
          ],
          "internalType": "struct SocialMeadia.textfeed[]",
          "name": "",
          "type": "tuple[]"
        }
      ],
      "stateMutability": "view",
      "type": "function"
    },
    {
      "inputs": [],
      "name": "GettingUserData",
      "outputs": [
        {
          "components": [
            {
              "internalType": "string",
              "name": "FName",
              "type": "string"
            },
            {
              "internalType": "string",
              "name": "LName",
              "type": "string"
            },
            {
              "internalType": "string",
              "name": "profilePic",
              "type": "string"
            },
            {
              "internalType": "address",
              "name": "owner",
              "type": "address"
            },
            {
              "internalType": "uint256",
              "name": "timestamp",
              "type": "uint256"
            },
            {
              "internalType": "string",
              "name": "password",
              "type": "string"
            },
            {
              "internalType": "string[]",
              "name": "postsUrl",
              "type": "string[]"
            },
            {
              "internalType": "string[]",
              "name": "Text",
              "type": "string[]"
            },
            {
              "internalType": "string[]",
              "name": "VideosUrl",
              "type": "string[]"
            }
          ],
          "internalType": "struct SocialMeadia.User[]",
          "name": "",
          "type": "tuple[]"
        }
      ],
      "stateMutability": "view",
      "type": "function"
    },
    {
      "inputs": [
        {
          "internalType": "address",
          "name": "userKey",
          "type": "address"
        },
        {
          "internalType": "string",
          "name": "password",
          "type": "string"
        }
      ],
      "name": "Login",
      "outputs": [
        {
          "internalType": "bool",
          "name": "",
          "type": "bool"
        }
      ],
      "stateMutability": "view",
      "type": "function"
    },
    {
      "inputs": [
        {
          "internalType": "string",
          "name": "url",
          "type": "string"
        },
        {
          "internalType": "address",
          "name": "pubkey",
          "type": "address"
        },
        {
          "internalType": "string",
          "name": "Discription",
          "type": "string"
        }
      ],
      "name": "POstImage",
      "outputs": [],
      "stateMutability": "payable",
      "type": "function"
    },
    {
      "inputs": [
        {
          "internalType": "string",
          "name": "Data",
          "type": "string"
        },
        {
          "internalType": "address",
          "name": "pubkey",
          "type": "address"
        }
      ],
      "name": "PostText",
      "outputs": [],
      "stateMutability": "payable",
      "type": "function"
    },
    {
      "inputs": [
        {
          "internalType": "string",
          "name": "url",
          "type": "string"
        },
        {
          "internalType": "address",
          "name": "pubkey",
          "type": "address"
        },
        {
          "internalType": "string",
          "name": "Description",
          "type": "string"
        }
      ],
      "name": "PostVideos",
      "outputs": [],
      "stateMutability": "payable",
      "type": "function"
    },
    {
      "inputs": [
        {
          "internalType": "string",
          "name": "FirstName",
          "type": "string"
        },
        {
          "internalType": "string",
          "name": "LastName",
          "type": "string"
        },
        {
          "internalType": "string",
          "name": "Profile",
          "type": "string"
        },
        {
          "internalType": "address",
          "name": "userKey",
          "type": "address"
        },
        {
          "internalType": "string",
          "name": "password",
          "type": "string"
        }
      ],
      "name": "SignUp",
      "outputs": [],
      "stateMutability": "payable",
      "type": "function"
    },
    {
      "inputs": [
        {
          "internalType": "address",
          "name": "pubkey",
          "type": "address"
        }
      ],
      "name": "checksignup",
      "outputs": [
        {
          "internalType": "bool",
          "name": "",
          "type": "bool"
        }
      ],
      "stateMutability": "view",
      "type": "function"
    }
  ],
  "bytecode": "0x608060405234801561001057600080fd5b50336000806101000a81548173ffffffffffffffffffffffffffffffffffffffff021916908373ffffffffffffffffffffffffffffffffffffffff16021790555061484c806100606000396000f3fe6080604052600436106100e85760003560e01c8063a590e9c11161008a578063ecdef34711610059578063ecdef347146102b2578063f5296302146102ef578063f678a7fd1461030b578063f805964214610334576100e8565b8063a590e9c11461020a578063d0564fb014610233578063dc92b32d1461025c578063e51b6ad314610287576100e8565b8063661c01cb116100c6578063661c01cb1461015d5780637bd3a4ca1461018657806397f52dc1146101b1578063a4b4e42b146101cd576100e8565b80630857c054146100ed5780630f9d76d41461011657806332c7c2ea14610141575b600080fd5b3480156100f957600080fd5b50610114600480360381019061010f919061331f565b610350565b005b34801561012257600080fd5b5061012b61088f565b6040516101389190613539565b60405180910390f35b61015b60048036038101906101569190613690565b610a72565b005b34801561016957600080fd5b50610184600480360381019061017f919061371b565b610cf7565b005b34801561019257600080fd5b5061019b610e33565b6040516101a89190613902565b60405180910390f35b6101cb60048036038101906101c69190613924565b611016565b005b3480156101d957600080fd5b506101f460048036038101906101ef9190613980565b61127e565b60405161020191906139f7565b60405180910390f35b34801561021657600080fd5b50610231600480360381019061022c9190613a12565b6113f5565b005b34801561023f57600080fd5b5061025a60048036038101906102559190613a3f565b611869565b005b34801561026857600080fd5b50610271611dfe565b60405161027e9190613b9a565b60405180910390f35b34801561029357600080fd5b5061029c611f4f565b6040516102a99190613e2f565b60405180910390f35b3480156102be57600080fd5b506102d960048036038101906102d49190613a12565b6124e2565b6040516102e691906139f7565b60405180910390f35b61030960048036038101906103049190613690565b612597565b005b34801561031757600080fd5b50610332600480360381019061032d9190613a3f565b61281c565b005b61034e60048036038101906103499190613e51565b612db1565b005b60008060005b6001805490508110156103f5576001818154811061037757610376613f3c565b5b906000526020600020906009020160030160009054906101000a900473ffffffffffffffffffffffffffffffffffffffff1673ffffffffffffffffffffffffffffffffffffffff168573ffffffffffffffffffffffffffffffffffffffff16036103e2578092508391505b80806103ed90613f9a565b915050610356565b5060008190505b600180848154811061041157610410613f3c565b5b9060005260206000209060090201600701805490506104309190613fe2565b8110156104e5576001838154811061044b5761044a613f3c565b5b90600052602060002090600902016007016001826104699190614016565b8154811061047a57610479613f3c565b5b906000526020600020016001848154811061049857610497613f3c565b5b906000526020600020906009020160070182815481106104bb576104ba613f3c565b5b9060005260206000200190816104d19190614281565b5080806104dd90613f9a565b9150506103fc565b50600182815481106104fa576104f9613f3c565b5b906000526020600020906009020160070160018084815481106105205761051f613f3c565b5b90600052602060002090600902016007018054905061053f9190613fe2565b815481106105505761054f613f3c565b5b906000526020600020016000610566919061311f565b6001828154811061057a57610579613f3c565b5b906000526020600020906009020160070180548061059b5761059a614369565b5b6001900381819060005260206000200160006105b7919061311f565b9055600080600090505b60038054905081101561069c57600381815481106105e2576105e1613f3c565b5b90600052602060002090600302016001016040516020016106039190614426565b604051602081830303815290604052805190602001206001858154811061062d5761062c613f3c565b5b906000526020600020906009020160070184815481106106505761064f613f3c565b5b9060005260206000200160405160200161066a9190614426565b6040516020818303038152906040528051906020012003610689578091505b808061069490613f9a565b9150506105c1565b5060008190505b60016003805490506106b59190613fe2565b8110156107a85760036001826106cb9190614016565b815481106106dc576106db613f3c565b5b9060005260206000209060030201600382815481106106fe576106fd613f3c565b5b9060005260206000209060030201600082015481600001556001820181600101908161072a9190614453565b506002820160009054906101000a900473ffffffffffffffffffffffffffffffffffffffff168160020160006101000a81548173ffffffffffffffffffffffffffffffffffffffff021916908373ffffffffffffffffffffffffffffffffffffffff16021790555090505080806107a090613f9a565b9150506106a3565b50600360016003805490506107bd9190613fe2565b815481106107ce576107cd613f3c565b5b90600052602060002090600302016000808201600090556001820160006107f5919061311f565b6002820160006101000a81549073ffffffffffffffffffffffffffffffffffffffff0219169055505060038054806108305761082f614369565b5b600190038181906000526020600020906003020160008082016000905560018201600061085d919061311f565b6002820160006101000a81549073ffffffffffffffffffffffffffffffffffffffff0219169055505090555050505050565b60606004805480602002602001604051908101604052809291908181526020016000905b82821015610a695783829060005260206000209060040201604051806080016040529081600082015481526020016001820180546108f090614079565b80601f016020809104026020016040519081016040528092919081815260200182805461091c90614079565b80156109695780601f1061093e57610100808354040283529160200191610969565b820191906000526020600020905b81548152906001019060200180831161094c57829003601f168201915b505050505081526020016002820160009054906101000a900473ffffffffffffffffffffffffffffffffffffffff1673ffffffffffffffffffffffffffffffffffffffff1673ffffffffffffffffffffffffffffffffffffffff1681526020016003820180546109d890614079565b80601f0160208091040260200160405190810160405280929190818152602001828054610a0490614079565b8015610a515780601f10610a2657610100808354040283529160200191610a51565b820191906000526020600020905b815481529060010190602001808311610a3457829003601f168201915b505050505081525050815260200190600101906108b3565b50505050905090565b60013411610ab5576040517f08c379a0000000000000000000000000000000000000000000000000000000008152600401610aac90614598565b60405180910390fd5b60008054906101000a900473ffffffffffffffffffffffffffffffffffffffff1673ffffffffffffffffffffffffffffffffffffffff166108fc349081150290604051600060405180830381858888f19350505050158015610b1b573d6000803e3d6000fd5b50600260405180608001604052804281526020018581526020018381526020018473ffffffffffffffffffffffffffffffffffffffff168152509080600181540180825580915050600190039060005260206000209060040201600090919091909150600082015181600001556020820151816001019081610b9d91906145b8565b506040820151816002019081610bb391906145b8565b5060608201518160030160006101000a81548173ffffffffffffffffffffffffffffffffffffffff021916908373ffffffffffffffffffffffffffffffffffffffff160217905550505060005b600180549050811015610cf15760018181548110610c2157610c20613f3c565b5b906000526020600020906009020160030160009054906101000a900473ffffffffffffffffffffffffffffffffffffffff1673ffffffffffffffffffffffffffffffffffffffff168373ffffffffffffffffffffffffffffffffffffffff1603610cde5760018181548110610c9957610c98613f3c565b5b906000526020600020906009020160060182908060018154018082558091505060019003906000526020600020016000909190919091509081610cdc91906145b8565b505b8080610ce990613f9a565b915050610c00565b50505050565b60005b600180549050811015610e2c5760018181548110610d1b57610d1a613f3c565b5b906000526020600020906009020160030160009054906101000a900473ffffffffffffffffffffffffffffffffffffffff1673ffffffffffffffffffffffffffffffffffffffff168573ffffffffffffffffffffffffffffffffffffffff1603610e19578360018281548110610d9457610d93613f3c565b5b90600052602060002090600902016000019081610db191906145b8565b508260018281548110610dc757610dc6613f3c565b5b90600052602060002090600902016001019081610de491906145b8565b508160018281548110610dfa57610df9613f3c565b5b90600052602060002090600902016005019081610e1791906145b8565b505b8080610e2490613f9a565b915050610cfa565b5050505050565b60606002805480602002602001604051908101604052809291908181526020016000905b8282101561100d578382906000526020600020906004020160405180608001604052908160008201548152602001600182018054610e9490614079565b80601f0160208091040260200160405190810160405280929190818152602001828054610ec090614079565b8015610f0d5780601f10610ee257610100808354040283529160200191610f0d565b820191906000526020600020905b815481529060010190602001808311610ef057829003601f168201915b50505050508152602001600282018054610f2690614079565b80601f0160208091040260200160405190810160405280929190818152602001828054610f5290614079565b8015610f9f5780601f10610f7457610100808354040283529160200191610f9f565b820191906000526020600020905b815481529060010190602001808311610f8257829003601f168201915b505050505081526020016003820160009054906101000a900473ffffffffffffffffffffffffffffffffffffffff1673ffffffffffffffffffffffffffffffffffffffff1673ffffffffffffffffffffffffffffffffffffffff168152505081526020019060010190610e57565b50505050905090565b60013411611059576040517f08c379a000000000000000000000000000000000000000000000000000000000815260040161105090614598565b60405180910390fd5b60008054906101000a900473ffffffffffffffffffffffffffffffffffffffff1673ffffffffffffffffffffffffffffffffffffffff166108fc349081150290604051600060405180830381858888f193505050501580156110bf573d6000803e3d6000fd5b50600360405180606001604052804281526020018481526020018373ffffffffffffffffffffffffffffffffffffffff16815250908060018154018082558091505060019003906000526020600020906003020160009091909190915060008201518160000155602082015181600101908161113b91906145b8565b5060408201518160020160006101000a81548173ffffffffffffffffffffffffffffffffffffffff021916908373ffffffffffffffffffffffffffffffffffffffff160217905550505060005b60018054905081101561127957600181815481106111a9576111a8613f3c565b5b906000526020600020906009020160030160009054906101000a900473ffffffffffffffffffffffffffffffffffffffff1673ffffffffffffffffffffffffffffffffffffffff168273ffffffffffffffffffffffffffffffffffffffff1603611266576001818154811061122157611220613f3c565b5b90600052602060002090600902016007018390806001815401808255809150506001900390600052602060002001600090919091909150908161126491906145b8565b505b808061127190613f9a565b915050611188565b505050565b6000611289836124e2565b6112c8576040517f08c379a00000000000000000000000000000000000000000000000000000000081526004016112bf906146d6565b60405180910390fd5b60005b6001805490508110156113e9578373ffffffffffffffffffffffffffffffffffffffff166001828154811061130357611302613f3c565b5b906000526020600020906009020160030160009054906101000a900473ffffffffffffffffffffffffffffffffffffffff1673ffffffffffffffffffffffffffffffffffffffff161480156113c75750826040516020016113649190614727565b604051602081830303815290604052805190602001206001828154811061138e5761138d613f3c565b5b90600052602060002090600902016005016040516020016113af9190614426565b60405160208183030381529060405280519060200120145b156113d65760019150506113ef565b80806113e190613f9a565b9150506112cb565b50600090505b92915050565b60008054906101000a900473ffffffffffffffffffffffffffffffffffffffff1673ffffffffffffffffffffffffffffffffffffffff163373ffffffffffffffffffffffffffffffffffffffff161461144d57600080fd5b611456816124e2565b611495576040517f08c379a000000000000000000000000000000000000000000000000000000000815260040161148c906146d6565b60405180910390fd5b600080600090505b60018054905081101561153957600181815481106114be576114bd613f3c565b5b906000526020600020906009020160030160009054906101000a900473ffffffffffffffffffffffffffffffffffffffff1673ffffffffffffffffffffffffffffffffffffffff168373ffffffffffffffffffffffffffffffffffffffff1603611526578091505b808061153190613f9a565b91505061149d565b5060008190505b600180805490506115519190613fe2565b8110156116c757600180826115669190614016565b8154811061157757611576613f3c565b5b90600052602060002090600902016001828154811061159957611598613f3c565b5b9060005260206000209060090201600082018160000190816115bb9190614453565b50600182018160010190816115d09190614453565b50600282018160020190816115e59190614453565b506003820160009054906101000a900473ffffffffffffffffffffffffffffffffffffffff168160030160006101000a81548173ffffffffffffffffffffffffffffffffffffffff021916908373ffffffffffffffffffffffffffffffffffffffff160217905550600482015481600401556005820181600501908161166b9190614453565b50600682018160060190805461168292919061315f565b50600782018160070190805461169992919061315f565b5060088201816008019080546116b092919061315f565b5090505080806116bf90613f9a565b915050611540565b5060018080805490506116da9190613fe2565b815481106116eb576116ea613f3c565b5b90600052602060002090600902016000808201600061170a919061311f565b60018201600061171a919061311f565b60028201600061172a919061311f565b6003820160006101000a81549073ffffffffffffffffffffffffffffffffffffffff02191690556004820160009055600582016000611769919061311f565b60068201600061177991906131bc565b60078201600061178991906131bc565b60088201600061179991906131bc565b505060018054806117ad576117ac614369565b5b6001900381819060005260206000209060090201600080820160006117d2919061311f565b6001820160006117e2919061311f565b6002820160006117f2919061311f565b6003820160006101000a81549073ffffffffffffffffffffffffffffffffffffffff02191690556004820160009055600582016000611831919061311f565b60068201600061184191906131bc565b60078201600061185191906131bc565b60088201600061186191906131bc565b505090555050565b60008060005b6001805490508110156119705760005b6001828154811061189357611892613f3c565b5b90600052602060002090600902016006018054905081101561195c57600182815481106118c3576118c2613f3c565b5b906000526020600020906009020160060181815481106118e6576118e5613f3c565b5b906000526020600020016040516020016119009190614426565b60405160208183030381529060405280519060200120856040516020016119279190614727565b6040516020818303038152906040528051906020012003611949578193508092505b808061195490613f9a565b91505061187f565b50808061196890613f9a565b91505061186f565b5060008190505b600180848154811061198c5761198b613f3c565b5b9060005260206000209060090201600601805490506119ab9190613fe2565b811015611a6057600183815481106119c6576119c5613f3c565b5b90600052602060002090600902016006016001826119e49190614016565b815481106119f5576119f4613f3c565b5b9060005260206000200160018481548110611a1357611a12613f3c565b5b90600052602060002090600902016006018281548110611a3657611a35613f3c565b5b906000526020600020019081611a4c9190614281565b508080611a5890613f9a565b915050611977565b5060018281548110611a7557611a74613f3c565b5b90600052602060002090600902016006016001808481548110611a9b57611a9a613f3c565b5b906000526020600020906009020160060180549050611aba9190613fe2565b81548110611acb57611aca613f3c565b5b906000526020600020016000611ae1919061311f565b60018281548110611af557611af4613f3c565b5b9060005260206000209060090201600601805480611b1657611b15614369565b5b600190038181906000526020600020016000611b32919061311f565b9055600080600090505b600280549050811015611bd75784604051602001611b5a9190614727565b6040516020818303038152906040528051906020012060028281548110611b8457611b83613f3c565b5b9060005260206000209060040201600101604051602001611ba59190614426565b6040516020818303038152906040528051906020012003611bc4578091505b8080611bcf90613f9a565b915050611b3c565b5060008190505b6001600280549050611bf09190613fe2565b811015611cf8576002600182611c069190614016565b81548110611c1757611c16613f3c565b5b906000526020600020906004020160028281548110611c3957611c38613f3c565b5b90600052602060002090600402016000820154816000015560018201816001019081611c659190614453565b5060028201816002019081611c7a9190614453565b506003820160009054906101000a900473ffffffffffffffffffffffffffffffffffffffff168160030160006101000a81548173ffffffffffffffffffffffffffffffffffffffff021916908373ffffffffffffffffffffffffffffffffffffffff1602179055509050508080611cf090613f9a565b915050611bde565b5060026001600280549050611d0d9190613fe2565b81548110611d1e57611d1d613f3c565b5b9060005260206000209060040201600080820160009055600182016000611d45919061311f565b600282016000611d55919061311f565b6003820160006101000a81549073ffffffffffffffffffffffffffffffffffffffff021916905550506002805480611d9057611d8f614369565b5b6001900381819060005260206000209060040201600080820160009055600182016000611dbd919061311f565b600282016000611dcd919061311f565b6003820160006101000a81549073ffffffffffffffffffffffffffffffffffffffff02191690555050905550505050565b60606003805480602002602001604051908101604052809291908181526020016000905b82821015611f46578382906000526020600020906003020160405180606001604052908160008201548152602001600182018054611e5f90614079565b80601f0160208091040260200160405190810160405280929190818152602001828054611e8b90614079565b8015611ed85780601f10611ead57610100808354040283529160200191611ed8565b820191906000526020600020905b815481529060010190602001808311611ebb57829003601f168201915b505050505081526020016002820160009054906101000a900473ffffffffffffffffffffffffffffffffffffffff1673ffffffffffffffffffffffffffffffffffffffff1673ffffffffffffffffffffffffffffffffffffffff168152505081526020019060010190611e22565b50505050905090565b60606001805480602002602001604051908101604052809291908181526020016000905b828210156124d9578382906000526020600020906009020160405180610120016040529081600082018054611fa790614079565b80601f0160208091040260200160405190810160405280929190818152602001828054611fd390614079565b80156120205780601f10611ff557610100808354040283529160200191612020565b820191906000526020600020905b81548152906001019060200180831161200357829003601f168201915b5050505050815260200160018201805461203990614079565b80601f016020809104026020016040519081016040528092919081815260200182805461206590614079565b80156120b25780601f10612087576101008083540402835291602001916120b2565b820191906000526020600020905b81548152906001019060200180831161209557829003601f168201915b505050505081526020016002820180546120cb90614079565b80601f01602080910402602001604051908101604052809291908181526020018280546120f790614079565b80156121445780601f1061211957610100808354040283529160200191612144565b820191906000526020600020905b81548152906001019060200180831161212757829003601f168201915b505050505081526020016003820160009054906101000a900473ffffffffffffffffffffffffffffffffffffffff1673ffffffffffffffffffffffffffffffffffffffff1673ffffffffffffffffffffffffffffffffffffffff168152602001600482015481526020016005820180546121bd90614079565b80601f01602080910402602001604051908101604052809291908181526020018280546121e990614079565b80156122365780601f1061220b57610100808354040283529160200191612236565b820191906000526020600020905b81548152906001019060200180831161221957829003601f168201915b5050505050815260200160068201805480602002602001604051908101604052809291908181526020016000905b8282101561231057838290600052602060002001805461228390614079565b80601f01602080910402602001604051908101604052809291908181526020018280546122af90614079565b80156122fc5780601f106122d1576101008083540402835291602001916122fc565b820191906000526020600020905b8154815290600101906020018083116122df57829003601f168201915b505050505081526020019060010190612264565b50505050815260200160078201805480602002602001604051908101604052809291908181526020016000905b828210156123e957838290600052602060002001805461235c90614079565b80601f016020809104026020016040519081016040528092919081815260200182805461238890614079565b80156123d55780601f106123aa576101008083540402835291602001916123d5565b820191906000526020600020905b8154815290600101906020018083116123b857829003601f168201915b50505050508152602001906001019061233d565b50505050815260200160088201805480602002602001604051908101604052809291908181526020016000905b828210156124c257838290600052602060002001805461243590614079565b80601f016020809104026020016040519081016040528092919081815260200182805461246190614079565b80156124ae5780601f10612483576101008083540402835291602001916124ae565b820191906000526020600020905b81548152906001019060200180831161249157829003601f168201915b505050505081526020019060010190612416565b505050508152505081526020019060010190611f73565b50505050905090565b600080600090505b60018054905081101561258c578273ffffffffffffffffffffffffffffffffffffffff166001828154811061252257612521613f3c565b5b906000526020600020906009020160030160009054906101000a900473ffffffffffffffffffffffffffffffffffffffff1673ffffffffffffffffffffffffffffffffffffffff1603612579576001915050612592565b808061258490613f9a565b9150506124ea565b50600090505b919050565b600134116125da576040517f08c379a00000000000000000000000000000000000000000000000000000000081526004016125d190614598565b60405180910390fd5b60008054906101000a900473ffffffffffffffffffffffffffffffffffffffff1673ffffffffffffffffffffffffffffffffffffffff166108fc349081150290604051600060405180830381858888f19350505050158015612640573d6000803e3d6000fd5b50600460405180608001604052804281526020018581526020018473ffffffffffffffffffffffffffffffffffffffff1681526020018381525090806001815401808255809150506001900390600052602060002090600402016000909190919091506000820151816000015560208201518160010190816126c291906145b8565b5060408201518160020160006101000a81548173ffffffffffffffffffffffffffffffffffffffff021916908373ffffffffffffffffffffffffffffffffffffffff160217905550606082015181600301908161271f91906145b8565b50505060005b600180549050811015612816576001818154811061274657612745613f3c565b5b906000526020600020906009020160030160009054906101000a900473ffffffffffffffffffffffffffffffffffffffff1673ffffffffffffffffffffffffffffffffffffffff168373ffffffffffffffffffffffffffffffffffffffff160361280357600181815481106127be576127bd613f3c565b5b90600052602060002090600902016008018290806001815401808255809150506001900390600052602060002001600090919091909150908161280191906145b8565b505b808061280e90613f9a565b915050612725565b50505050565b60008060005b6001805490508110156129235760005b6001828154811061284657612845613f3c565b5b90600052602060002090600902016008018054905081101561290f576001828154811061287657612875613f3c565b5b9060005260206000209060090201600801818154811061289957612898613f3c565b5b906000526020600020016040516020016128b39190614426565b60405160208183030381529060405280519060200120856040516020016128da9190614727565b60405160208183030381529060405280519060200120036128fc578193508092505b808061290790613f9a565b915050612832565b50808061291b90613f9a565b915050612822565b5060008190505b600180848154811061293f5761293e613f3c565b5b90600052602060002090600902016008018054905061295e9190613fe2565b811015612a13576001838154811061297957612978613f3c565b5b90600052602060002090600902016008016001826129979190614016565b815481106129a8576129a7613f3c565b5b90600052602060002001600184815481106129c6576129c5613f3c565b5b906000526020600020906009020160080182815481106129e9576129e8613f3c565b5b9060005260206000200190816129ff9190614281565b508080612a0b90613f9a565b91505061292a565b5060018281548110612a2857612a27613f3c565b5b90600052602060002090600902016008016001808481548110612a4e57612a4d613f3c565b5b906000526020600020906009020160080180549050612a6d9190613fe2565b81548110612a7e57612a7d613f3c565b5b906000526020600020016000612a94919061311f565b60018281548110612aa857612aa7613f3c565b5b9060005260206000209060090201600801805480612ac957612ac8614369565b5b600190038181906000526020600020016000612ae5919061311f565b9055600080600090505b600480549050811015612b8a5784604051602001612b0d9190614727565b6040516020818303038152906040528051906020012060048281548110612b3757612b36613f3c565b5b9060005260206000209060040201600101604051602001612b589190614426565b6040516020818303038152906040528051906020012003612b77578091505b8080612b8290613f9a565b915050612aef565b5060008190505b6001600480549050612ba39190613fe2565b811015612cab576004600182612bb99190614016565b81548110612bca57612bc9613f3c565b5b906000526020600020906004020160048281548110612bec57612beb613f3c565b5b90600052602060002090600402016000820154816000015560018201816001019081612c189190614453565b506002820160009054906101000a900473ffffffffffffffffffffffffffffffffffffffff168160020160006101000a81548173ffffffffffffffffffffffffffffffffffffffff021916908373ffffffffffffffffffffffffffffffffffffffff16021790555060038201816003019081612c949190614453565b509050508080612ca390613f9a565b915050612b91565b5060046001600480549050612cc09190613fe2565b81548110612cd157612cd0613f3c565b5b9060005260206000209060040201600080820160009055600182016000612cf8919061311f565b6002820160006101000a81549073ffffffffffffffffffffffffffffffffffffffff0219169055600382016000612d2f919061311f565b50506004805480612d4357612d42614369565b5b6001900381819060005260206000209060040201600080820160009055600182016000612d70919061311f565b6002820160006101000a81549073ffffffffffffffffffffffffffffffffffffffff0219169055600382016000612da7919061311f565b5050905550505050565b60001515612dbe836124e2565b151514612e00576040517f08c379a0000000000000000000000000000000000000000000000000000000008152600401612df79061478a565b60405180910390fd5b60003411612e43576040517f08c379a0000000000000000000000000000000000000000000000000000000008152600401612e3a906147f6565b60405180910390fd5b60008054906101000a900473ffffffffffffffffffffffffffffffffffffffff1673ffffffffffffffffffffffffffffffffffffffff166108fc349081150290604051600060405180830381858888f19350505050158015612ea9573d6000803e3d6000fd5b5060016040518061012001604052808781526020018681526020018581526020018473ffffffffffffffffffffffffffffffffffffffff168152602001428152602001838152602001600067ffffffffffffffff811115612f0d57612f0c613565565b5b604051908082528060200260200182016040528015612f4057816020015b6060815260200190600190039081612f2b5790505b508152602001600067ffffffffffffffff811115612f6157612f60613565565b5b604051908082528060200260200182016040528015612f9457816020015b6060815260200190600190039081612f7f5790505b508152602001600067ffffffffffffffff811115612fb557612fb4613565565b5b604051908082528060200260200182016040528015612fe857816020015b6060815260200190600190039081612fd35790505b508152509080600181540180825580915050600190039060005260206000209060090201600090919091909150600082015181600001908161302a91906145b8565b50602082015181600101908161304091906145b8565b50604082015181600201908161305691906145b8565b5060608201518160030160006101000a81548173ffffffffffffffffffffffffffffffffffffffff021916908373ffffffffffffffffffffffffffffffffffffffff1602179055506080820151816004015560a08201518160050190816130bd91906145b8565b5060c08201518160060190805190602001906130da9291906131dd565b5060e08201518160070190805190602001906130f79291906131dd565b506101008201518160080190805190602001906131159291906131dd565b5050505050505050565b50805461312b90614079565b6000825580601f1061313d575061315c565b601f01602090049060005260206000209081019061315b9190613236565b5b50565b8280548282559060005260206000209081019282156131ab5760005260206000209182015b828111156131aa578282908161319a9190614453565b5091600101919060010190613184565b5b5090506131b89190613253565b5090565b50805460008255906000526020600020908101906131da9190613253565b50565b828054828255906000526020600020908101928215613225579160200282015b8281111561322457825182908161321491906145b8565b50916020019190600101906131fd565b5b5090506132329190613253565b5090565b5b8082111561324f576000816000905550600101613237565b5090565b5b80821115613273576000818161326a919061311f565b50600101613254565b5090565b6000604051905090565b600080fd5b600080fd5b600073ffffffffffffffffffffffffffffffffffffffff82169050919050565b60006132b68261328b565b9050919050565b6132c6816132ab565b81146132d157600080fd5b50565b6000813590506132e3816132bd565b92915050565b6000819050919050565b6132fc816132e9565b811461330757600080fd5b50565b600081359050613319816132f3565b92915050565b6000806040838503121561333657613335613281565b5b6000613344858286016132d4565b92505060206133558582860161330a565b9150509250929050565b600081519050919050565b600082825260208201905092915050565b6000819050602082019050919050565b613394816132e9565b82525050565b600081519050919050565b600082825260208201905092915050565b60005b838110156133d45780820151818401526020810190506133b9565b60008484015250505050565b6000601f19601f8301169050919050565b60006133fc8261339a565b61340681856133a5565b93506134168185602086016133b6565b61341f816133e0565b840191505092915050565b613433816132ab565b82525050565b6000608083016000830151613451600086018261338b565b506020830151848203602086015261346982826133f1565b915050604083015161347e604086018261342a565b506060830151848203606086015261349682826133f1565b9150508091505092915050565b60006134af8383613439565b905092915050565b6000602082019050919050565b60006134cf8261335f565b6134d9818561336a565b9350836020820285016134eb8561337b565b8060005b85811015613527578484038952815161350885826134a3565b9450613513836134b7565b925060208a019950506001810190506134ef565b50829750879550505050505092915050565b6000602082019050818103600083015261355381846134c4565b905092915050565b600080fd5b600080fd5b7f4e487b7100000000000000000000000000000000000000000000000000000000600052604160045260246000fd5b61359d826133e0565b810181811067ffffffffffffffff821117156135bc576135bb613565565b5b80604052505050565b60006135cf613277565b90506135db8282613594565b919050565b600067ffffffffffffffff8211156135fb576135fa613565565b5b613604826133e0565b9050602081019050919050565b82818337600083830152505050565b600061363361362e846135e0565b6135c5565b90508281526020810184848401111561364f5761364e613560565b5b61365a848285613611565b509392505050565b600082601f8301126136775761367661355b565b5b8135613687848260208601613620565b91505092915050565b6000806000606084860312156136a9576136a8613281565b5b600084013567ffffffffffffffff8111156136c7576136c6613286565b5b6136d386828701613662565b93505060206136e4868287016132d4565b925050604084013567ffffffffffffffff81111561370557613704613286565b5b61371186828701613662565b9150509250925092565b6000806000806080858703121561373557613734613281565b5b6000613743878288016132d4565b945050602085013567ffffffffffffffff81111561376457613763613286565b5b61377087828801613662565b935050604085013567ffffffffffffffff81111561379157613790613286565b5b61379d87828801613662565b925050606085013567ffffffffffffffff8111156137be576137bd613286565b5b6137ca87828801613662565b91505092959194509250565b600081519050919050565b600082825260208201905092915050565b6000819050602082019050919050565b600060808301600083015161381a600086018261338b565b506020830151848203602086015261383282826133f1565b9150506040830151848203604086015261384c82826133f1565b9150506060830151613861606086018261342a565b508091505092915050565b60006138788383613802565b905092915050565b6000602082019050919050565b6000613898826137d6565b6138a281856137e1565b9350836020820285016138b4856137f2565b8060005b858110156138f057848403895281516138d1858261386c565b94506138dc83613880565b925060208a019950506001810190506138b8565b50829750879550505050505092915050565b6000602082019050818103600083015261391c818461388d565b905092915050565b6000806040838503121561393b5761393a613281565b5b600083013567ffffffffffffffff81111561395957613958613286565b5b61396585828601613662565b9250506020613976858286016132d4565b9150509250929050565b6000806040838503121561399757613996613281565b5b60006139a5858286016132d4565b925050602083013567ffffffffffffffff8111156139c6576139c5613286565b5b6139d285828601613662565b9150509250929050565b60008115159050919050565b6139f1816139dc565b82525050565b6000602082019050613a0c60008301846139e8565b92915050565b600060208284031215613a2857613a27613281565b5b6000613a36848285016132d4565b91505092915050565b600060208284031215613a5557613a54613281565b5b600082013567ffffffffffffffff811115613a7357613a72613286565b5b613a7f84828501613662565b91505092915050565b600081519050919050565b600082825260208201905092915050565b6000819050602082019050919050565b6000606083016000830151613acc600086018261338b565b5060208301518482036020860152613ae482826133f1565b9150506040830151613af9604086018261342a565b508091505092915050565b6000613b108383613ab4565b905092915050565b6000602082019050919050565b6000613b3082613a88565b613b3a8185613a93565b935083602082028501613b4c85613aa4565b8060005b85811015613b885784840389528151613b698582613b04565b9450613b7483613b18565b925060208a01995050600181019050613b50565b50829750879550505050505092915050565b60006020820190508181036000830152613bb48184613b25565b905092915050565b600081519050919050565b600082825260208201905092915050565b6000819050602082019050919050565b600081519050919050565b600082825260208201905092915050565b6000819050602082019050919050565b6000613c2083836133f1565b905092915050565b6000602082019050919050565b6000613c4082613be8565b613c4a8185613bf3565b935083602082028501613c5c85613c04565b8060005b85811015613c985784840389528151613c798582613c14565b9450613c8483613c28565b925060208a01995050600181019050613c60565b50829750879550505050505092915050565b6000610120830160008301518482036000860152613cc882826133f1565b91505060208301518482036020860152613ce282826133f1565b91505060408301518482036040860152613cfc82826133f1565b9150506060830151613d11606086018261342a565b506080830151613d24608086018261338b565b5060a083015184820360a0860152613d3c82826133f1565b91505060c083015184820360c0860152613d568282613c35565b91505060e083015184820360e0860152613d708282613c35565b915050610100830151848203610100860152613d8c8282613c35565b9150508091505092915050565b6000613da58383613caa565b905092915050565b6000602082019050919050565b6000613dc582613bbc565b613dcf8185613bc7565b935083602082028501613de185613bd8565b8060005b85811015613e1d5784840389528151613dfe8582613d99565b9450613e0983613dad565b925060208a01995050600181019050613de5565b50829750879550505050505092915050565b60006020820190508181036000830152613e498184613dba565b905092915050565b600080600080600060a08688031215613e6d57613e6c613281565b5b600086013567ffffffffffffffff811115613e8b57613e8a613286565b5b613e9788828901613662565b955050602086013567ffffffffffffffff811115613eb857613eb7613286565b5b613ec488828901613662565b945050604086013567ffffffffffffffff811115613ee557613ee4613286565b5b613ef188828901613662565b9350506060613f02888289016132d4565b925050608086013567ffffffffffffffff811115613f2357613f22613286565b5b613f2f88828901613662565b9150509295509295909350565b7f4e487b7100000000000000000000000000000000000000000000000000000000600052603260045260246000fd5b7f4e487b7100000000000000000000000000000000000000000000000000000000600052601160045260246000fd5b6000613fa5826132e9565b91507fffffffffffffffffffffffffffffffffffffffffffffffffffffffffffffffff8203613fd757613fd6613f6b565b5b600182019050919050565b6000613fed826132e9565b9150613ff8836132e9565b92508282039050818111156140105761400f613f6b565b5b92915050565b6000614021826132e9565b915061402c836132e9565b925082820190508082111561404457614043613f6b565b5b92915050565b7f4e487b7100000000000000000000000000000000000000000000000000000000600052602260045260246000fd5b6000600282049050600182168061409157607f821691505b6020821081036140a4576140a361404a565b5b50919050565b6000815490506140b981614079565b9050919050565b60008190508160005260206000209050919050565b60008190508160005260206000209050919050565b60006020601f8301049050919050565b600082821b905092915050565b6000600883026141377fffffffffffffffffffffffffffffffffffffffffffffffffffffffffffffffff826140fa565b61414186836140fa565b95508019841693508086168417925050509392505050565b6000819050919050565b600061417e614179614174846132e9565b614159565b6132e9565b9050919050565b6000819050919050565b61419883614163565b6141ac6141a482614185565b848454614107565b825550505050565b600090565b6141c16141b4565b6141cc81848461418f565b505050565b5b818110156141f0576141e56000826141b9565b6001810190506141d2565b5050565b601f82111561423557614206816140c0565b61420f846140ea565b8101602085101561421e578190505b61423261422a856140ea565b8301826141d1565b50505b505050565b600082821c905092915050565b60006142586000198460080261423a565b1980831691505092915050565b60006142718383614247565b9150826002028217905092915050565b81810361428f575050614367565b614298826140aa565b67ffffffffffffffff8111156142b1576142b0613565565b5b6142bb8254614079565b6142c68282856141f4565b6000601f8311600181146142f557600084156142e3578287015490505b6142ed8582614265565b865550614360565b601f198416614303876140d5565b965061430e866140c0565b60005b8281101561433657848901548255600182019150600185019450602081019050614311565b86831015614353578489015461434f601f891682614247565b8355505b6001600288020188555050505b5050505050505b565b7f4e487b7100000000000000000000000000000000000000000000000000000000600052603160045260246000fd5b600081905092915050565b600081546143b081614079565b6143ba8186614398565b945060018216600081146143d557600181146143ea5761441d565b60ff198316865281151582028601935061441d565b6143f3856140c0565b60005b83811015614415578154818901526001820191506020810190506143f6565b838801955050505b50505092915050565b600061443282846143a3565b915081905092915050565b60008154905061444c81614079565b9050919050565b818103614461575050614539565b61446a8261443d565b67ffffffffffffffff81111561448357614482613565565b5b61448d8254614079565b6144988282856141f4565b6000601f8311600181146144c757600084156144b5578287015490505b6144bf8582614265565b865550614532565b601f1984166144d5876140c0565b96506144e0866140c0565b60005b82811015614508578489015482556001820191506001850194506020810190506144e3565b868310156145255784890154614521601f891682614247565b8355505b6001600288020188555050505b5050505050505b565b600082825260208201905092915050565b7f706c656173652070617920312047776900000000000000000000000000000000600082015250565b600061458260108361453b565b915061458d8261454c565b602082019050919050565b600060208201905081810360008301526145b181614575565b9050919050565b6145c18261339a565b67ffffffffffffffff8111156145da576145d9613565565b5b6145e48254614079565b6145ef8282856141f4565b600060209050601f8311600181146146225760008415614610578287015190505b61461a8582614265565b865550614682565b601f198416614630866140c0565b60005b8281101561465857848901518255600182019150602085019450602081019050614633565b868310156146755784890151614671601f891682614247565b8355505b6001600288020188555050505b505050505050565b7f55736572204e6f7420466f756e64000000000000000000000000000000000000600082015250565b60006146c0600e8361453b565b91506146cb8261468a565b602082019050919050565b600060208201905081810360008301526146ef816146b3565b9050919050565b60006147018261339a565b61470b8185614398565b935061471b8185602086016133b6565b80840191505092915050565b600061473382846146f6565b915081905092915050565b7f596f75206861766520616c7265616479205369676e5570000000000000000000600082015250565b600061477460178361453b565b915061477f8261473e565b602082019050919050565b600060208201905081810360008301526147a381614767565b9050919050565b7f706c656173652070617920302047776900000000000000000000000000000000600082015250565b60006147e060108361453b565b91506147eb826147aa565b602082019050919050565b6000602082019050818103600083015261480f816147d3565b905091905056fea26469706673582212203459775520f6e298ea97b2d32600198b8f270e19620eb27a59f564049404f03f64736f6c63430008110033",
  "linkReferences": {},
  "deployedLinkReferences": {}
}